:020000040800F2
:10000000809B002029030008A73B00084D3400080E
:10001000A53B0008130B0008A94E000800000000D3
:10002000000000000000000000000000690200085D
:100030005B0D000800000000C5020008E143000855
:100040004303000843030008430300084303000878
:100050004303000843030008430300084303000868
:100060004303000843030008430300084303000858
:10007000750C00084303000843030008430300080D
:10008000430300084303000843030008450B00082E
:100090002D0B0008390B0008430300084303000838
:1000A0004303000843030008430300084303000818
:1000B0004303000843030008430300084303000808
:1000C00043030008430300084303000843030008F8
:1000D00043030008214D0008430300082D4D00088C
:1000E00043030008430300084303000843030008D8
:1000F00043030008430300084303000843030008C8
:100100004303000843030008F544000843030008C4
:1001100043030008430300080145000843030008A7
:1001200043030008790C0008850C0008910C0008B6
:10013000430300084303000843030008690B000859
:10014000510B00085D0B000843030008430300083F
:10015000430300089D0C000843030008FD4D000800
:100160004303000843030008430300084303000857
:100170004303000843030008430300080000000095
:10018000430300084303000800F002F800F05CF8A5
:100190000AA090E8000C82448344AAF10107DA45E2
:1001A00001D100F051F8AFF2090EBAE80F0013F0D8
:1001B000010F18BFFB1A43F00103184738C70000AE
:1001C00058C700000A444FF0000C10F8013B13F030
:1001D000070408BF10F8014B1D1108BF10F8015BA0
:1001E000641E05D010F8016B641E01F8016BF9D193
:1001F00013F0080F1EBF10F8014BAD1C0C1B09D1EA
:100200006D1E58BF01F801CBFAD505E014F8016B5B
:1002100001F8016B6D1EF9D59142D6D370470000ED
:100220000023002400250026103A28BF78C1FBD8FF
:10023000520728BF30C148BF0B6070471FB50BF095
:1002400003FE1FBD10B510BD00F051FA1146FFF7B7
:10025000F5FF08F000FA00F06FFA03B4FFF7F2FFC1
:1002600003BC00F07FFA00002C4B19680868B0E866
:10027000F04F80F30988BFF36F8F4FF0000080F3D9
:10028000118870470000000008480068006880F38B
:1002900008884FF0000080F3148862B661B6BFF39F
:1002A0004F8FBFF36F8F00DF00BF00BF08ED00E08E
:1002B000DFF80C00016841F470010160704700BF75
:1002C00088ED00E0EFF30980BFF36F8F134B1A68DE
:1002D0001EF0100F08BF20ED108A20E9F04F1060CB
:1002E00009B44FF0500080F31188BFF34F8FBFF374
:1002F0006F8F09F0CFFB4FF0000080F3118809BC2D
:1003000019680868B0E8F04F1EF0100F08BFB0EC95
:10031000108A80F30988BFF36F8F7047DC010020DB
:10032000EFF30580704700000948804709480047FF
:10033000FEE7FEE7FEE7FEE7FEE7FEE7FEE7FEE795
:10034000FEE7FEE704480549054A064B70470000F2
:10035000A144000889010008805B0020809B0020E8
:10036000807B0020807B002053EA020C00F0698033
:100370002DE9F04B4FF00006002B1FBFB3FA83F5B9
:1003800003FA05F424FA05F65E4012BF1643B2FAEA
:1003900082F502FA05F4C5F120051EBF22FA05FC1C
:1003A00044EA0C04203556EA044C4FEA144418BFC2
:1003B000641C4FF000084FF00009904271EB030CF1
:1003C00039D3002919BFB1FA81F701FA07F6B0FA5B
:1003D00080F700FA07F6C7F120071EBF20FA07FCD6
:1003E00046EA0C062037B6FBF4FCA7EB0507103FE6
:1003F00007F01F0BCBF120060CFA0BFB2CFA06F6CC
:1004000044BFB3460026202FA4BF5E464FF0000B2A
:100410005BEA060C08BF4FF0010B19EB0B09ABFBB5
:10042000027C48EB0608C01B06FB02CC0BFB03CC8E
:1004300071EB0C01C1E70B46024641464846BDE858
:10044000F08B13B54FF000004FF00001AFF30080C8
:10045000BDE81C407047032A40F2308010F0030CC6
:1004600000F0158011F8013BBCF1020F624498BF07
:1004700011F801CB00F8013B38BF11F8013BA2F1A4
:10048000040298BF00F801CB38BF00F8013B11F01F
:10049000030300F06780083AC0F0088051F8043B7D
:1004A000083A51F804CBA0E80810F5E7121D5CBF2C
:1004B00051F8043B40F8043BAFF30080D20724BF5F
:1004C00011F8013B11F801CB48BF11F8012B24BFF3
:1004D00000F8013B00F801CB48BF00F8012B704742
:1004E000431A28BF9A427FF6B6AF032A104411443C
:1004F00040F2268010F0030F1EBF11F8013D521E7E
:1005000000F8013D10F0030F7FF4F6AF11F0030384
:1005100000F0A280083AC0F00B8051F8043D083A80
:1005200051F804CD40F8043D40F804CDFFF7F3BF87
:10053000121D5CBF51F8043D40F8043DAFF300804C
:10054000D20724BF11F8013D11F801CD48BF11F8C1
:10055000012C24BF00F8013D00F801CD48BF00F890
:10056000012C704710B5203AC0F00B80B1E818504C
:10057000203AA0E81850B1E81850A0E81850BFF48D
:10058000F5AF5FEA027C24BFB1E81850A0E818502C
:1005900044BF18C918C0BDE810405FEA827C24BF80
:1005A00051F8043B40F8043B08BF7047D20728BF0E
:1005B00031F8023B48BF11F8012B28BF20F8023B5D
:1005C00048BF00F8012B70474FF0000200B51346FA
:1005D00094469646203922BFA0E80C50A0E80C5063
:1005E000B1F12001BFF4F7AF090728BFA0E80C5014
:1005F00048BF0CC05DF804EB890028BF40F8042B0D
:1006000008BF704748BF20F8022B11F0804F18BF79
:1006100000F8012B704770477047704710B500F025
:1006200049F8006810BD10B5044600F043F80460B6
:1006300010BD431A28BF9A427FF694AF104410F0C1
:10064000030F11441EBF11F8013D521E00F8013D79
:1006500010F0030F7FF4F6AF103AC0F00A8010B527
:1006600031E91850103A20E91850BFF4F9AFBDE84D
:100670001040530724BF31E9081020E9081044BF97
:1006800051F8043D40F8043D12F0030F08BF7047D5
:10069000D20728BF31F8023D48BF11F8012C28BF0E
:1006A00020F8023D48BF00F8012C70470048704711
:1006B000205B002000487047205B00201FB584B0FD
:1006C00000200A9C06AB04AA02A90094AFF30080A4
:1006D00018B1DDE9020108B010BD0348204000F068
:1006E00039F800200146F6E70000207C7047754687
:1006F000FFF7DCFFAE4605006946534620F00700D1
:10070000854618B020B5FFF71DFEBDE820404FF02C
:1007100000064FF000074FF000084FF0000B21F0EB
:100720000701AC46ACE8C009ACE8C009ACE8C009B8
:10073000ACE8C0098D46704710B50446AFF30080A1
:100740002046BDE81040FFF788BD002801D000F02A
:1007500009B8704710B500F025F8BDE81040FFF764
:10076000F4BF000001491820ABBEFEE726000200DE
:1007700070B505460C460A2000E06D1C00F068F8D4
:1007800035B128780028F8D102E0641C00F060F848
:1007900014B120780028F8D1BDE870400A2000F09C
:1007A00057B8000010B5022803D0410103D50DA1B0
:1007B00012E0002010BD010101D50FA10CE0C10025
:1007C00001D511A108E0810001D512A104E040008B
:1007D00001D513A100E0002115A0FFF7C9FF0120FA
:1007E00010BD0000496E76616C6964204F706572BF
:1007F0006174696F6E000000446976696465204227
:1008000079205A65726F00004F766572666C6F775B
:1008100000000000556E646572666C6F7700000022
:10082000496E657861637420526573756C7400005D
:100830005349474650453A2041726974686D657462
:10084000696320657863657074696F6E3A20000093
:1008500008B569468DF800000320ABBE08BD000056
:10086000B7EE000A80ED000A9FED040A80ED010A50
:1008700080ED020A80ED030A7047000000000000CE
:10088000B4EEE00AF1EE10FA01DD30EE600AB5EEEA
:10089000C00AF1EE10FA01D230EE200A70470000D3
:1008A00001221021014801F0F9BA000000000240C5
:1008B00000221021014801F0F1BA000000000240BE
:1008C0007047000001221146014801F0E7BA00001C
:1008D0000004024000220121014801F0DFBA0000BB
:1008E00000040240704730B504464FF47A7502E0C8
:1008F000284600F004F8641EA4B2F9D230BD70B5E9
:1009000000214FF0E0256C69A8225043AB69AA6929
:100910009A42FCD003D2A3EB0203194403E0A4EBF8
:1009200002063344194413468142F0D370BD10B51A
:10093000FFF7C6FFFFF7D6FF06F0D8FA044606F029
:100940005BFB204310BD00002DE9FC4104460D4631
:100950001646002000900190FFF7AAFF922000F0B9
:10096000BFF806226946122000F09CF8FFF798FFB6
:100970009DF801009DF80010000200B2084300EE4F
:10098000100A474FB8EEC00AD7ED000A20EE200A41
:1009900085ED000A9DF803009DF80210000200B2E8
:1009A000084300EE100AF8EEC00A97ED000A60EE68
:1009B000800AC5ED010A9DF805009DF804100002AB
:1009C00000B2084300EE900AF8EEE00A20EE800A3A
:1009D00085ED020AFFF77EFF08226946002000F03D
:1009E00061F8FFF76FFF9DF800000F2830D19DF8E8
:1009F00003009DF80210000200B2084300EE100A46
:100A0000D7ED010AB8EEC00A20EE200A84ED000AF4
:100A10009DF805009DF80410000200B2084300EEA6
:100A2000100AF8EEC00A97ED010A60EE800AC4EDE4
:100A3000010A9DF807009DF80610000200B2084365
:100A400000EE900AF8EEE00A20EE800A84ED020A39
:100A5000FFF72EFFA22000F043F802226946222071
:100A600000F020F8FFF71CFF9DF800009DF8011032
:100A7000C00040EA5110B0F5806F02DBA0F50060C5
:100A800000B200EE100AB4EE001AF8EEC00AB3EE9F
:100A9000070A00EE810A86ED000ABDE8FC8100002D
:100AA0009001002070B50D46144640F0800000F023
:100AB00017F806E0552000F013F805F8010B641E46
:100AC000E4B2002CF6D170BD10B50C4640F08000A9
:100AD00000F006F8552000F003F8207010BD00006B
:100AE00001B582B04FF47A700090012301AA02A9E7
:100AF000024801F0C5FE9DF804000EBD4809002023
:100B000010B50C46FFF7ECFF2046BDE81040FFF79C
:100B1000E7BFFEE710B5044802F01EF8BDE810403C
:100B20000821014802F01FBA600A0020014800F0C5
:100B300040BB0000F8080020014800F03ABB00006C
:100B4000F8080020014800F034BB0000F80800203D
:100B5000014800F02EBB000020090020014800F0F1
:100B600028BB000020090020014800F022BB000043
:100B70002009002030B587B040F2FF140094002413
:100B800002940394082404940A4C050A25706070AA
:100B9000080AA070E170100A20716271180AA07131
:100BA000E37106AB22466946034800F035F907B009
:100BB00030BD0000400000202009002030B587B083
:100BC0004FF40074009408240494002403940294C5
:100BD0000A4C050A25706070080AA070E170100ABE
:100BE00020716271180AA071E37106AB2246694652
:100BF000034800F011F907B030BD000038000020B4
:100C0000F808002000B589B04FF40071029100216E
:100C10000491059102210691010A8DF804108DF8C6
:100C2000050008AB01AA02A9024800F0F5F809B0D6
:100C300000BD0000200900200D4901F5806091ED04
:100C4000030A80ED870A91ED080A80ED880A91ED8C
:100C50000D0A80ED890A90ED750A80ED8A0A90ED03
:100C6000760A80ED8B0A90ED770A80ED8C0A70474A
:100C70005810002070470000014800F095BE0000A9
:100C8000000C0020014800F08FBE0000A0090020E9
:100C9000014800F089BE0000000A0020014800F071
:100CA00083BE0000600C002001680A4BCAB2103AF3
:100CB000A3FB02321209084B9B5CC365032A04D9CB
:100CC0006FF30901091D816502E06FF30901816578
:100CD000806D7047ABAAAAAA44C300080146002051
:100CE0008A6A8B69002B0FD0B3F5005F1DD08AB3E1
:100CF000012A30D0022A2ED0032A04D1C96A11F069
:100D0000807F00D0012070471AB1012A07D0022A43
:100D1000F9D1C96A11F0807FF5D001207047C96A06
:100D2000B1F1C07FFAD1012070475AB1012A0BD02E
:100D3000022A07D0032AF7D1C96AB1F1C07FF3D1E3
:100D40000120704701207047C96A11F0807FFAD0F6
:100D500001207047FFE701207047704772B6FEE739
:100D600010B52DED028B00EE900AF8EEE00A30EEA1
:100D7000C08A18EE100A0AF0B1FF41EC100B04F023
:100D80007BFD9FED111B51EC100B53EC112B0AF066
:100D900046FB13D218EE100A0AF0A0FF41EC100B2C
:100DA00004F06AFD9FED0A1B51EC100B53EC112B64
:100DB0000AF066FB09F05CFC08EE100AB0EE480A87
:100DC000BDEC028B10BD00000000000000806640FA
:100DD000000000000080764010B5054C03E010F8DC
:100DE000013B5340E25C491E4B1CF8D1104610BD3C
:100DF0004CC3000890F82020012A07D0022A05D011
:100E0000416A41F4802141620120704700684269D3
:100E1000114341610020704770B490F82040D0F831
:100E200000C0DCF808C0012C08D0022C06D0416AB2
:100E300041F48021416270BC012070470CF0806455
:100E40000CF000652C4302D11CF0805F5FD0CCF326
:100E5000016CBCF1020F06D9416A41F40001416204
:100E600070BC01207047012404FA0CF41C608B68EC
:100E70004FF4C0749BB1CD6804EB0C162B434D6846
:100E800043EAC5030568AB514FF4C273066803EB30
:100E90000C130D69F550097D012909D00DE00D886D
:100EA000CB6804EB0C1643EA45530568AB51EBE7FE
:100EB0000168CD5845F48075CD501179D3795579B5
:100EC00041EA036193791B0443EA052319434FF474
:100ED000C675036805EB0C1559511178D37841EAB2
:100EE0000361937852781B0443EA022211434FF4C2
:100EF000C473026803EB0C13D150016804EB0C10AF
:100F00000A5842F001020A5070BC00207047416A42
:100F100041F40011416270BC0120704790F820201C
:100F2000012A07D0022A05D0416A41F4802141629A
:100F3000012070474248D0F8002242F00102C0F878
:100F40000022D0F8002222F47C52C0F80022D0F80F
:100F500000224B6A42EA0322C0F800220A7D0123E4
:100F600002F01F0203FA02F2D0F81C329343C0F8D9
:100F70001C32CB69D3B9D0F80C329343C0F80C3291
:100F8000B1F80CC04B686CF31F43D1F814C000EBF0
:100F9000CC0CCCF84032B1F808C00B686CF31F439E
:100FA000D1F814C000EBCC0CCCF84432CB69012B47
:100FB0001AD1D0F80C321343C0F80C32B1F800C08B
:100FC0004B686CF31F43D1F814C000EBCC0CCCF889
:100FD0004032B1F808C0CB686CF31F43D1F814C09D
:100FE00000EBCC0CCCF844328B697BB1D0F80432E6
:100FF0001343C0F804320B6973B1D0F814321343B1
:10100000C0F81432096A01290CD010E0D0F804327B
:101010009343C0F80432EEE7D0F814329343C0F89B
:101020001432EFE7D0F81C121143C0F81C12D0F8AC
:10103000001221F00101C0F80012002070470000EA
:1010400000640040704710B490F820C0BCF1010F5C
:1010500009D0BCF1020F06D0416A41F480214162FF
:1010600010BC0120704739B1D0F800C0DCF810C0C6
:101070001CF0030F7DD006E0D0F800C0DCF80CC0F7
:101080001CF0030F7BD04FF4D87C04680CEB011CE0
:1010900054F80C4004F004049460002C7DD00468E3
:1010A00054F80C40E4085460046854F80CC0CCF3C5
:1010B000400CC2F80CC04FF4DA7C04680CEB011C45
:1010C00054F80C4004F00F041461046854F80C4008
:1010D000C4F307249461046854F80CC04FEA1C4C14
:1010E000C2F814C04FF4DC72D0F800C002EB011259
:1010F0005CF802C083F800C0D0F800C05CF802C001
:101100004FEA1C2C83F801C0D0F800C05CF802C084
:101110004FEA1C4C83F802C0D0F800C05CF80220F3
:10112000120EDA704FF4DE72D0F800C002EB01123A
:101130005CF802C083F804C0D0F800C05CF802C0BC
:101140004FEA1C2C83F805C0D0F800C05CF802C040
:101150004FEA1C4C83F806C0D0F800C05CF80220AF
:10116000120EDA71F9B10068016941F020010161E4
:1011700002E00BE003E010E010BC00207047416A81
:1011800041F40011416210BC01207047416A41F4F2
:101190000011416210BC01207047046854F80C40F3
:1011A000640D146080E70068C16841F02001C160EF
:1011B000DEE72DE9F05F0546002428684669D0F88F
:1011C00004908768D0F80CA0D0F810B0D0F8188040
:1011D00016F0010F54D017F0010F17D001218160D4
:1011E00017F0020F03D0284600F0C6FB0EE017F000
:1011F000040F02D04FF4006408E017F0080F02D08B
:101200004FF4805402E0284600F0B5FB17F4807FCD
:1012100019D029684FF48070886017F4007F03D0DC
:10122000284600F0ABFB0EE017F4806F02D044F4C8
:10123000005408E017F4006F02D044F4804402E048
:10124000284600F09AFB17F4803F19D029684FF424
:101250008030886017F4003F03D0284600F090FBF0
:101260000EE017F4802F02D044F4004408E017F495
:10127000002F02D044F4803402E0284600F07FFBC7
:1012800016F0080F07D01AF0100F04D044F40074C1
:1012900029681020C86016F0040F4FF0080707D027
:1012A0001AF0080F04D02868C760284600F0F0F94B
:1012B00016F0020F07D02868C06810F0030F02D0A4
:1012C000284600F0E7F916F0400F07D01BF0100F8A
:1012D00004D044F4806429681020086116F0200FBF
:1012E00007D01BF0080F04D028680761284600F0DB
:1012F0000DFB16F0100F07D02868006910F0030FDF
:1013000002D0284600F003FB16F4003F08D019F085
:10131000100F05D0296810204860284600F0F8FA20
:1013200016F4803F07D019F0080F04D028684760F2
:10133000284600F026FB16F4004F4AD019F0040F9F
:1013400044D016F4807F04D018F0010F01D044F08F
:10135000010416F4007F04D018F0020F01D044F00D
:10136000020416F4806F04D018F0040F01D044F08A
:10137000040416F4006F29D018F0700F26D008F07E
:101380007000402815D006DC102809D020280AD08B
:10139000302816D10AE050280ED0602811D10EE076
:1013A00044F008040DE044F010040AE044F0200486
:1013B00007E044F0400404E044F0800401E044F419
:1013C00080742868816921F0700181612968042096
:1013D0004860002C05D0686A204368622846FFF701
:1013E00031FEBDE8F09F70B50446002C03D094F8A0
:1013F000200010B104E0012070BD204600F0A8F8E4
:101400002068016821F00201016000F04FFD0546EF
:10141000206840684FF0050610F0020F11D000F070
:1014200045FD401B0A2807D9606A40F4003060621D
:1014300084F82060012070BD2068406810F0020F21
:10144000EDD12068016841F00101016000F02EFD3E
:1014500005462068406810F0010F11D100F026FD0C
:10146000401B0A2807D9606A40F40030606284F8A3
:101470002060012070BD2068406810F0010FEDD0A1
:10148000207E01283FD02068016821F080010160A2
:10149000607E01283DD02068016821F04001016094
:1014A000A07E01283BD02068016821F02001016066
:1014B000E07E012839D02068016841F01001016008
:1014C000207F012837D02068016821F008010160E1
:1014D000607F012835D02068016821F00401016097
:1014E000E168A068626908432169114308436168A3
:1014F000491E08432168C86100206062012084F809
:101500002000002070BD2068016841F0800101606A
:10151000BEE72068016841F040010160C0E7206833
:10152000016841F020010160C2E72068016821F0F4
:1015300010010160C4E72068016841F00801016002
:10154000C6E72068016841F004010160C8E70000B7
:101550002DE9F04186B00446142101A8FFF734F8C4
:10156000464B474ADFF8108118682168444C03262F
:101570000227401C103200254FF0090C414537D19D
:101580001860012807D1106840F0007010601068E2
:1015900000F000700090206840F008002060206893
:1015A00000F0080000900196029703950496CDF88C
:1015B00014C001A9334800F063FB00220521132069
:1015C00000F000FD132000F0EFFC002205211420A4
:1015D00000F0F8FC142000F0E7FC002205211520A3
:1015E00000F0F0FC152000F0DFFC06B0BDE8F08153
:1015F000DFF894804145F8D1116841F080611160B5
:10160000116801F0806100911860012807D110680D
:1016100040F000701060106800F0007000902068CA
:1016200040F002002060206800F00200009060207E
:101630000190029703950496CDF814C001A91348B0
:1016400000F01EFB002205213F2000F0BBFC3F20E4
:1016500000F0AAFC00220521402000F0B3FC40204D
:1016600000F0A2FC00220521412000F0ABFC41204B
:1016700000F09AFCB9E70000006400402000002060
:1016800030380240000C0240006800400004024074
:101690007047000010B58EB000689549884277D138
:1016A000944B07AA00219448FFF7CDFC079940F21C
:1016B00003249048914AA1F20323A14251D01FDC98
:1016C000A1F5807111397DD0F02933D0F12915D1E0
:1016D000518951824178037841EA03215181C178CF
:1016E000837841EA032191814179037941EA032119
:1016F000D18180791074022006F0F0FC0EB010BD8C
:10170000012B46D0062BF9D17C495A310A880A812F
:101710004278037842EA03220A80C278837842EA58
:1017200003224A804279037942EA03228A8080793F
:101730008871E3E7118811814178037841EA032138
:101740001180C178837841EA03215180417903797E
:1017500041EA0321918080799071012006F0BEFC5E
:10176000CCE7918A91834178037841EA0321918201
:10177000C178837841EA0321D1824179037941EA32
:101780000321118380799076032006F0A7FCB5E74A
:101790001DE0D18BD1844178037841EA0321D183C4
:1017A000C178837841EA032111844179037941EAC0
:1017B00003215184807982F82400042006F08EFCF5
:1017C0009CE7FFE74B494E4806F052FE96E74D492D
:1017D000884293D1474B6A46083300214A48FFF7B5
:1017E00032FC009A43484549A2F2012208302831D0
:1017F000082A83D2DFE802F062040404051C334A9D
:101800007CE70A880A814278037842EA03220A8048
:10181000C278837842EA03224A804279037942EA15
:1018200003228A8080798871052006F057FC65E7DD
:101830004A894A824278037842EA03224A81C2787E
:10184000837842EA03228A814279037942EA0322B9
:10185000CA8180790874062006F040FC4EE78A8A27
:101860008A834278037842EA03228A82C2788378A4
:1018700042EA0322CA824279037942EA03220A83B6
:1018800080798876072006F029FC37E7CA8BCA845E
:101890004278037842EA0322CA83C278837842EA14
:1018A00003220A844279037942EA03224A84807936
:1018B00081F82400082006F011FC1FE70F49503181
:1018C0000A880A814278037842EA03220A80C278B1
:1018D000837842EA03224A804279037942EA03226A
:1018E0008A8080798871092006F0F8FB06E70000FD
:1018F0000064004048000020F8080020BA0F0020D3
:10190000D01C00200068004020090020704770476C
:10191000704770B5044694F82000012805D0606A2D
:1019200040F400206062012070BD022084F8200095
:101930002068016821F00101016000F0B7FA054656
:101940002068406810F0010F12D000F0AFFA401B81
:101950000A2808D9606A40F400306062052084F8E3
:101960002000012070BD2068406810F0010FECD10C
:101970000020606270BD70477047704770477047C5
:101980007047704790F83510022903D080214165D7
:1019900001207047052180F835100068016821F0AA
:1019A00001010160002070472DE9F84304464FF023
:1019B0000008CDF8008076484FF416510068B0FB5F
:1019C000F1F7A56D2E6894F85C00082101FA00F08B
:1019D000304211D02068026812F0040F0CD0026867
:1019E00022F00402026094F85C0001FA00F0A860A2
:1019F000606D40F00100606594F85C004FF00109F3
:101A000009FA00F0304209D02168496911F0800FCD
:101A100004D0A860606D40F00200606594F85C102E
:101A200004208840304209D02168096811F0020F73
:101A300004D0A860606D40F00400606594F85C100C
:101A400010208840304224D02168096811F0080F26
:101A50001FD0A8602068016811F4802F0DD00068A5
:101A600010F4002F04D0A16C99B12046884710E0F3
:101A7000216C71B1204688470BE0016811F4807F2A
:101A800003D1016821F008010160216C09B12046F1
:101A9000884794F85C1020208840304251D021685B
:101AA000096811F0100F4CD0A86094F83500052893
:101AB0000DD02068016811F4802F32D0006810F436
:101AC000002F29D0E16B59B32046884739E02068C0
:101AD000016821F0160101602068416921F0800150
:101AE0004161206C08B9A06C20B12068016821F028
:101AF0000801016094F85C003F2101FA00F0A86041
:101B000084F8348084F83590216D00293ED001B0EE
:101B10002046BDE8F0430847616C09B1204688477C
:101B20000FE0016811F4807F07D1016821F01001F6
:101B3000016084F8348084F83590E16B09B1204667
:101B40008847606D002821D0606D10F0010F15D01E
:101B5000052084F835002068016821F0010101604A
:101B60000098401C0090B84204D82068006810F02B
:101B7000010FF5D184F8348084F83590E16C0029A8
:101B800004D001B02046BDE8F0430847BDE8F88323
:101B9000240000202DE9F041044600F087F90546B5
:101BA000DCB1002684F83460022084F83500206817
:101BB000016821F0010101602068006810F0010F48
:101BC00013D000F073F9401B052809D92020606567
:101BD000032084F83500BDE8F0810120BDE8F081E4
:101BE0002068006810F0010FEBD121680868234AD3
:101BF0001040A3686268D4F810C01A43E36843EA4F
:101C00000C031A4363691A43A3691A43E3691A432D
:101C1000236A1A431043626A042A03D1236BE26ADF
:101C20001A43104308602068406920F00701606A89
:101C300040EA0105012704280ED1A06A0543E06AA5
:101C400050B12046FFF74AF830B14020606584F873
:101C500035700120BDE8F081206845612046FFF71E
:101C600023F894F85C103F2202FA01F18160666566
:101C700084F835700020BDE8F08100003F8010F04E
:101C80002DE9F84F0022DFF80082DFF80092DFF83C
:101C900000A24FF0030E0F27012303FA02F50B6891
:101CA0002B40AB427DD1D1F804C0BCF1020F02D071
:101CB000BCF1120F12D14FEAD20C00EB8C0CDCF805
:101CC00020605407E40E07FA04FB26EA0B06D1F85D
:101CD00010B00BFA04F43443CCF8204006684FEA05
:101CE000420C0EFA0CF4A64391F804B00BF0030B6F
:101CF0000BFA0CFB4BEA060606604E68012E05D077
:101D0000022E03D0112E01D0122E11D18668A643C7
:101D1000D1F80CB00BFA0CFB4BEA0606866046685D
:101D200026EA05050E79C6F3001696403543456050
:101D3000C56825EA04048D6805FA0CFC4CEA040C1D
:101D4000C0F80CC0D1F804C01CF0805F7DD0D8F87A
:101D500000C04CF4804CC8F800C0D8F800C00CF4A7
:101D6000804CCDF800C022F0030C0CF1804404F547
:101D70009834D4F808C895072D0F07FA05F62CEA11
:101D80000606A0F1804CBCF5003C64D0A0F1804C6C
:101D9000BCF5013C62D0A0F1804CBCF5023C60D0A7
:101DA00000E052E0A0F1804CBCF5033C5CD0A0F117
:101DB000804CBCF5043C5AD0A0F1804CBCF5053CED
:101DC00058D0A0F1804CBCF5063C56D0A0F1804C18
:101DD000BCF5073C54D04FF0080C0CFA05FC4CEA5B
:101DE000060CC4F808C8D9F800C02CEA030C4C68EB
:101DF00014F4803F01D04CEA030CC9F800C0254C14
:101E0000D4F800C02CEA030C4D6815F4003F01D053
:101E10004CEA030CC4F800C0DAF800C02CEA030C4A
:101E20004C6814F4801F01D04CEA030CCAF800C0BF
:101E3000194CD4F800C02CEA030C4D6815F4001FAF
:101E400001D04CEA030CC4F800C0521C102AFFF465
:101E500023AFBDE8F88F4FF0000CBEE74FF0010C48
:101E6000BBE74FF0020CB8E74FF0030CB5E74FF0BB
:101E7000040CB2E74FF0050CAFE74FF0060CACE7EF
:101E80004FF0070CA9E7000044380240003C014035
:101E9000083C0140043C01400C3C0140002A01D0B8
:101EA00081617047090481617047000001488068C2
:101EB00070470000D0010020024881680278114478
:101EC00081607047D001002010B50B48016841F4D3
:101ED00000710160016841F480610160016841F4B2
:101EE00080710160032000F0A1F8002000F006F8E6
:101EF00000F03EF8002010BD003C024010B588B054
:101F000001460022362000F05DF8362000F04CF843
:101F100000241348016841F010010160006800F0DE
:101F20001000019002A903A800F04CF900F06EF92E
:101F300040000C49B0FBF1F1491E0C480A4A02600E
:101F400040F2E732C26041600461846000F0BDFD90
:101F500010B1012008B010BD044800F00FFEF9E7F1
:101F60004038024040420F0000100040C00C0020EA
:101F700082B00C48016841F480410160006800F4BF
:101F8000804001900748001F016841F080510160C6
:101F9000006800F08050019000220F21901E02B0D6
:101FA00000F010B84438024000280ADB00F01F019E
:101FB000012202FA01F14009800000F1E020C0F89E
:101FC0000011704710B4184B1B68C3F30223C3F110
:101FD000070CBCF1040F01D94FF0040C1C1D072C99
:101FE00001D2002300E0DB1E012404FA0CFCACF15A
:101FF000010C0CEA0101994004FA03F35B1E1A403C
:102000001143002806DB00F1E020090180F80014EC
:1020100010BC704700F00F0000F1E020090180F8CB
:10202000141D10BC704700000CED00E000F007002C
:10203000064A11684FF6FF03194041EA002040F0BC
:10204000FD7040F080601060704700000CED00E013
:102050002DE9F04704460D46002C13D0DFF85091CF
:10206000D9F80000EFB200F00F00A8420DD289F8B5
:102070000070D9F8000000F00F00A84205D0012040
:10208000BDE8F0870120BDE8F0872068494E10F0D8
:10209000020F14D010F0040F03D0306840F4E05069
:1020A0003060207810F0080F03D0306840F46040B2
:1020B00030603068A16820F0F0000843306020787C
:1020C00010F0010F3ED060683B49012808D002287B
:1020D0000DD003280BD0096811F0020F28D00AE0B8
:1020E000096811F4003F06D10120BDE8F0870968B6
:1020F00011F0007F19D0316821F0030108433060EE
:10210000FFF7D4FE80463068616800F00C00B0EB49
:10211000810F17D041F2883AFFF7C8FEA0EB080004
:10212000504508D90320BDE8F0870120BDE8F087BD
:102130000120BDE8F0873068616800F00C00B0EB6A
:10214000810FE9D1D9F8000000F00F00A8420AD9A8
:1021500089F80070D9F8000000F00F00A84202D002
:102160000120BDE8F087207810F0040F05D030681A
:10217000E16820F4E05008433060207810F0080F48
:1021800006D03068216920F4604040EAC100306028
:1021900000F05CF83168094AC1F30311515CC84092
:1021A000074908600020FFF7A9FE0020BDE8F0877E
:1021B000003C02400838024000380240ACC200082F
:1021C000240000200F2202600B4A136803F003036F
:1021D0004360136803F0F0038360136803F4E05373
:1021E000C360126802F46042D208026103480068CA
:1021F00000F00F000860704708380240003C0240C1
:1022000001480068704700002400002000B5FFF777
:10221000F7FF04490968044AC1F38221515CC840B0
:1022200000BD000008380240BCC2000800B5FFF73E
:10223000E7FF04490968044AC1F34231515CC840D0
:1022400000BD000008380240BCC2000810B51748A5
:10225000006810F00C01164816D0164B042912D055
:10226000082911D1144C216801F03F02216811F4B2
:10227000800F0AD02068C0F38810A0FB0301002360
:10228000FEF772F809E0184610BD21680023C1F37B
:102290008811A1FB0001FEF767F82168C1F3014135
:1022A000491C4900B0FBF1F010BD000008380240A5
:1022B0000024F400001BB700043802402DE9F84F59
:1022C0000446002C10D02078FA4D10F0010F64D095
:1022D000F948016801F00C0104290DD0006800F0F4
:1022E0000C00082803D011E00120BDE8F88FF34866
:1022F000006810F4800F09D0286810F4003F4CD01B
:102300006068002849D10120BDE8F88F6068B0F509
:10231000803F14D0B0F5A02F16D0286820F480306C
:102320002860286820F480202860606810B3FFF7D8
:10233000BDFD0646286810F4003F0ED02DE0286849
:1023400040F480302860F0E7286840F4802028605E
:10235000286840F480302860E7E7FFF7A7FD801B7E
:10236000642802D90320BDE8F88F286810F4003FE4
:10237000F3D012E0FFF79AFD0646286810F4003FFC
:102380000BD0FFF793FD801B642802D90320BDE822
:10239000F88F286810F4003FF3D12078C84F10F070
:1023A000020F4FF0000856D0C348016811F00C0F1F
:1023B00015D0006800F00C00082804D1BF48006860
:1023C00010F4800F0BD0E06878B301203860FFF77D
:1023D0006DFD0646286810F0020F12D01DE0286837
:1023E00010F0020F05D0E068012802D00120BDE8FE
:1023F000F88F2868216920F0F80040EAC1002860C1
:1024000029E0FFF753FD801B022802D90320BDE815
:10241000F88F286810F0020FF3D02868216920F0A7
:10242000F80040EAC100286015E0FFE7C7F8008027
:10243000FFF73CFD0646286810F0020F0BD0FFF7AF
:1024400035FD801B022802D90320BDE8F88F2868DB
:1024500010F0020FF3D1207810F0080F33D0994814
:10246000DFF864926169B9B101210160FFF71EFDD7
:102470000646D9F8000010F0020F24D1FFF716FD30
:10248000801B022802D90320BDE8F88FD9F800008C
:1024900010F0020FF2D016E0C0F80080FFF706FD42
:1024A0000646D9F8000010F0020F0CD0FFF7FEFC32
:1024B000801B022802D90320BDE8F88FD9F800005C
:1024C00010F0020FF2D1207810F0040F73D04FF00B
:1024D0000009DFF8F8A1DAF8000010F0805F0CD1F5
:1024E000DAF8000040F08050CAF80000DAF8000086
:1024F00000F0805000904FF00109DFF8D4B1DBF814
:10250000000010F4807F1AD1DBF8000040F48070E6
:10251000CBF80000FFF7CAFC0646DBF8000010F419
:10252000807F0CD1FFF7C2FC801B022802D9032058
:10253000BDE8F88FDBF8000010F4807FF2D0A068CF
:10254000DFF890B1012818D005281DD0DBF8000075
:1025500020F00100CBF80000DBF8000020F00400C0
:10256000CBF80000A06838B3FFF7A0FC0646DBF804
:10257000000010F0020F14D03CE0DBF8000040F047
:102580000100CBF80000EDE7DBF8000040F00400AC
:10259000CBF80000DBF8000040F00100CBF80000B1
:1025A000E0E7FFF783FC811B41F28830814204D9C8
:1025B0000320BDE8F88F26E005E0DBF8000010F00E
:1025C000020FEED016E0FFF771FC0646DBF80000C4
:1025D00010F0020F0ED0FFF769FC811B41F288302A
:1025E000814202D90320BDE8F88FDBF8000010F02B
:1025F000020FF0D1B9F1010F05D1DAF8000020F097
:102600008050CAF80000A069E8B32B49096801F0BE
:102610000C0108296BD0022810D0C7F86080FFF7A2
:1026200045FC0446286810F0007F5ED0FFF73EFCB2
:10263000001B022855D90320BDE8F88FC7F8608039
:10264000FFF734FC0646286810F0007F0BD0FFF738
:102650002DFC801B022802D90320BDE8F88F2868D2
:1026600010F0007FF3D1216AE069A26A0843616A31
:102670004FF0FF33890103EB520241EA0241084364
:1026800094F82C1000E030E040EA01610B48016052
:1026900001203866FFF70AFC0446286810F0007F26
:1026A00023D1FFF703FC001B022815D90320BDE846
:1026B000F88F1CE00038024008380240043802401D
:1026C00000004742800E47427438024040380240C2
:1026D0000070004070380240286810F0007FE0D0A1
:1026E00003E0286810F0007FA0D10020DFE7012080
:1026F000DDE770B50446002C05D00025A56294F8EE
:10270000510010B106E0012070BD84F85050204601
:1027100000F030F8022084F851002068016821F0B0
:1027200040010160A168606822690843E1681143C3
:10273000084361690843218B01F400710843E16992
:102740000843216A0843A16A084321680860A06918
:10275000042101EA1040616A08432168486020684A
:10276000C16921F40061C1616565012084F85100EF
:10277000002070BD2DE9F04387B00546142102A862
:10278000FDF722FF38492868884269D1002637487A
:10279000016841F480510160006800F480500190AC
:1027A00032481438016841F002010160016801F00B
:1027B00002010191016841F001010160006800F02F
:1027C00001000190182002904FF00208CDF80C8013
:1027D0004FF00109CDF810900324059405270697C2
:1027E00002A92348FFF74CFA80200290CDF80C8014
:1027F000CDF810900594069702A91E48FFF740FAFD
:102800001E4C1D4820604FF0C068C4F80480A660CC
:10281000E660071527616661A661E6612662666269
:102820002046FFF7B7F908B1FEF798FAEC64A56304
:102830001148124C183060342060C4F804804020E5
:10284000A060E66027616661A661E6612662666255
:102850002046FFF79FF908B1FEF780FAAC64A56344
:1028600007B0BDE8F083000000300140443802406A
:10287000000402400000024040640240A009002021
:102880002DE9F84F04460A9E8A4693461F460125C5
:102890004FF0000894F8500001280ED0012084F871
:1028A0005000FFF703FB814694F85100616801284E
:1028B0000ED0B1F5827F07D102E00220BDE8F88F8B
:1028C000A16809B9042803D04FF0020800F0CBB882
:1028D000BAF1000F1DD0BBF1000F1AD0380018D08C
:1028E00094F85100042802D0052084F851000020FB
:1028F0006065C4F838B0E787A787C4F830A0E786DA
:10290000A786206460642068016811F0400F03D03E
:1029100006E04FF00108A6E0016841F040010160C7
:10292000E068B0F5006F05D06068002848D0012F3E
:1029300046D07EE0606808B1012F3AD1206B216853
:102940000088C860206B801C2063E08E401EE086FB
:102950002FE02068816811F0020F0DD0E18E59B18F
:10296000012D09D1216B0988C160206B801C206377
:10297000E08E401EE08600252068816811F0010F7E
:102980000BD0E18F49B1C068A16B0880A06B801C9F
:10299000A063E08F401EE0870125FFF787FAA0EBD8
:1029A0000900B04205D3B6F1FF3F02D04FF0030853
:1029B00059E0E08E0028CCD1E08F0028C9D13EE05C
:1029C000206B216800780873206B401C2063E08E28
:1029D000401EE0862DE02068816811F0020F0DD0C6
:1029E000E18E59B1012D09D1216B09780173206B5A
:1029F000401C2063E08E401EE08600252068816830
:102A000011F0010F0BD0E18F49B1C068A16B0870C4
:102A1000A06B401CA063E08F401EE0870125FFF7FC
:102A200045FAA0EB0900B04202D3B6F1FF3F11D145
:102A300086B1E08E0028CED1E08F0028CBD14A4667
:102A40003146204601F03CFC38B14FF0010820200F
:102A5000606508E04FF0030805E0A06818B9206839
:102A6000C16880680090012084F85100002084F83B
:102A700050004046BDE8F88F7047704730B490F87A
:102A80003C20012A1ED0012480F83C40022280F81C
:102A90003D200268D2F804C093682CF0700C0D68D9
:102AA00045EA0C0C23F0800349681943C2F804C0BE
:102AB0000268916080F83D40002180F83C1030BCF5
:102AC0000020704730BC0220704710B50446002C2F
:102AD00003D094F83D0010B107E0012010BD0020A4
:102AE00084F83C00204600F00DF8022084F83D00F8
:102AF000211D206801F00AFD012084F83D0000201E
:102B000010BD000008B50068104A1149904208D174
:102B1000086840F004000860086800F004000090B5
:102B200008BD0C4A9042FBD1086840F008000860DC
:102B3000086800F008000090002205213220FFF70D
:102B400041FABDE808403220FFF72EBA00080040E5
:102B500040380240000C0040022180F83D1001681E
:102B60008A6802F00702062A03D00A6842F00102CE
:102B70000A60012180F83D10002070470168CA6892
:102B800042F00102CA600068816801F0070106296D
:102B900003D0016841F0010101600020704770B569
:102BA000044694F83C00012818D0012584F83C50D4
:102BB000022084F83D002068826822F0770222F427
:102BC0007F4282600868502832D00EDC20284DD029
:102BD00006DC00284AD010284DD147E0022070BD05
:102BE000302843D0402846D136E060282AD07028CB
:102BF00006D0B0F5805F3ED0B0F5005F3BD10BE072
:102C0000CB684A688968206801F0F5FC2068816813
:102C100041F0770181602EE0CB684A6889682068BE
:102C200001F0E9FC2068816841F48041816022E084
:102C3000CA684968206801F0CDFD5021206801F084
:102C4000E5FC18E0CA684968206801F0D6FD6021FB
:102C5000206801F0DBFC0EE0CA684968206801F0DA
:102C6000B9FD4021206801F0D1FC04E02268014652
:102C7000104601F0CBFC84F83D50002084F83C0065
:102C800070BD704770B50446206801694FF00005BB
:102C900011F0020F17D0C16811F0020F13D0E91E16
:102CA0000161012020772068806910F0030F03D0B4
:102CB0002046FFF7E6FF05E0204600F0C7F8204673
:102CC00000F050F925772068016911F0040F18D041
:102CD000C16811F0040F14D06FF0040101610220EB
:102CE00020772068806910F4407F03D02046FFF7EA
:102CF000C8FF05E0204600F0A9F8204600F032F9B0
:102D000025772068016911F0080F18D0C16811F00B
:102D1000080F14D06FF008010161042020772068AB
:102D2000C06910F0030F03D02046FFF7AAFF05E0AB
:102D3000204600F08BF8204600F014F92577206833
:102D4000016911F0100F18D0C16811F0100F14D0E4
:102D50006FF010010161082020772068C06910F42D
:102D6000407F03D02046FFF78CFF05E0204600F0AF
:102D70006DF8204600F0F6F825772068016911F01B
:102D8000010F09D0C16811F0010F05D06FF00101EA
:102D90000161204600F008F92068016911F0800FF8
:102DA00009D0C16811F0800F05D06FF0800101617A
:102DB0002046FFF761FE2068016911F0400F09D03D
:102DC000C16811F0400F05D06FF04001016120464D
:102DD00000F0F4F82068016911F0200F0BD0C168F1
:102DE00011F0200F07D06FF0200101612046BDE8EF
:102DF0007040FFF742BE70BD10B586B00446142186
:102E000001A8FDF7E1FB0E482168814215D10021A0
:102E10000C48026842F008020260006800F00800F6
:102E200000904FF4804001900220029003910491A1
:102E3000059001A90448FEF723FF06B010BD00006D
:102E40000008004030380240000C0240704770B566
:102E500004460D4694F83C0001280DD0012684F864
:102E60003C60022084F83D0042B1042A1AD0082AAE
:102E70002DD00C2A53D13EE0022070BD2946206897
:102E800001F0CCFB2068816941F008018161206874
:102E9000816921F004018161206881692A691143F7
:102EA00081613CE02946206801F0F0FB20688169DF
:102EB00041F4006181612068816921F48061816150
:102EC000206881692A6941EA0221816127E0294657
:102ED000206801F017FC2068C16941F00801C16158
:102EE0002068C16921F00401C1612068C1692A69B3
:102EF0001143C16113E02946206801F03FFC2068BE
:102F0000C16941F40061C1612068C16921F4806137
:102F1000C1612068C1692A6941EA0221C16184F85E
:102F20003D60002084F83C0070BD10B50446002CC4
:102F300003D094F83D0010B107E0012010BD00203F
:102F400084F83C00204600F00CF8022084F83D0094
:102F5000211D206801F0DAFA012084F83D000020EC
:102F600010BD7047704710B504460122206801F07B
:102F700033FB2168A1F18040B0F5803004D0A1F18D
:102F80008040B0F5823003D1486C40F40040486482
:102F90002068816801F00701062903D0016841F02B
:102FA00001010160002010BD00680349884201D181
:102FB000FEF782BF70470000001000407047704766
:102FC00010B5044622681068D168526900F00F03FA
:102FD000002B0AD110F0200F07D011F0200F04D0E1
:102FE0002046BDE8104001F03DBC002B6BD002F044
:102FF000010301F4907C53EA0C0364D010F0010F3C
:1030000006D011F4807F03D0E36B43F00103E36348
:1030100010F0040F06D012F0010F03D0E36B43F061
:103020000203E36310F0020F06D012F0010F03D089
:10303000E36B43F00403E36310F0080F06D012F0D3
:10304000010F03D0E26B42F00802E263E26B002A58
:103050002ED010F0200F05D011F0200F02D0204606
:1030600001F000FC20684069C0F38010E16B11F0B2
:10307000080F00D108B3204601F0D9FB2068416950
:1030800011F0400F15D0416921F040014161606BA2
:1030900058B118490165606BFEF774FC002807D031
:1030A000606B016DBDE8104008472046FFF787FFC1
:1030B00010BD2046FFF783FF10BD2046FFF77FFFBE
:1030C0000020E06310BD10F0800F07D011F0800FDA
:1030D00004D02046BDE8104001F0B2BD10F0400F12
:1030E000F0D011F0400FEDD02046BDE8104001F0C7
:1030F000ACBB00001F48000870B50446002C04D08B
:1031000094F83900002510B106E0012070BD84F864
:103110003850204600F022F8242084F83900206836
:10312000C16821F40051C160204601F0E9FB20682C
:10313000016921F4904101612068416921F02A016F
:1031400041612068C16841F40051C160E5632020FD
:1031500084F8390084F83A00002070BD2DE9F0476A
:1031600086B00446142101A8FDF72EFA7548744B69
:103170002168744A1438022500264FF001084FF0E8
:1031800003094FF0070A99423CD1116841F0100140
:103190001160116801F010010091016841F0020115
:1031A0000160016801F002010091016841F0010134
:1031B0000160006800F001000090802001900295FD
:1031C000CDF80C80CDF81090CDF814A001A95E4880
:1031D000FEF756FD280201900295CDF80C80CDF83F
:1031E0001090CDF814A001A95848FEF749FD00221F
:1031F00005212520FEF7E6FE2520FEF7D5FE06B0C8
:10320000BDE8F087524B1F1599423ED14D49091F29
:103210000A6842F480220A60096801F48021009162
:10322000016841F004010160006800F004000090B2
:103230004FF4406001900295CDF80C80CDF81090CD
:10324000CDF814A001A94348FEF71AFD434D4248AA
:10325000286078046860AE60EE602F616E61AE61D8
:10326000EE61801228626E622846FEF793FC08B178
:10327000FDF774FD6563AC63002205212720FEF78E
:10328000A1FE2720FEF790FEB9E7354B9942B6D153
:10329000116841F020011160116801F020010091D6
:1032A000016841F040010160006800F040000090BA
:1032B0004FF4844001900295CDF80C80CDF8109029
:1032C0000820059001A92748FEF7DAFC234D26487F
:1032D000603528604FF02068C5F80480AE60EE606D
:1032E0002F616E61AE61EE612E626E622846FEF75E
:1032F00051FC08B1FDF732FD6563AC631A48174D08
:103300007830C0352860C5F804804020A860EE60A1
:103310002F616E61AE61EE612E626E622846FEF72D
:1033200039FC08B1FDF71AFD2563AC6300220521C5
:103330004720FEF747FE4720FEF736FE5FE7000016
:1033400000100140443802400004024000000240E6
:10335000004800400008024028600240A00B002006
:1033600000140140001802402864024070472DE913
:10337000F84304460D4691461E4694F8390020282D
:1033800002D00220BDE8F8834DB3B9F1000F26D07A
:1033900094F83800012825D0012084F8380000274F
:1033A000E763212084F83900FEF780FD8046A4F809
:1033B0002490A4F82690E08CA0B3E08C401EE0841A
:1033C000A068B0F5805F10D04346002280212046DF
:1033D000009601F068FCF0B10320BDE8F8830120FD
:1033E000BDE8F8830220BDE8F8834346002280212F
:1033F0002046009601F057FC10B10320BDE8F88389
:1034000028882168C0F308004860206908B16D1C55
:1034100005E0AD1C03E0216815F8010B4860E08C65
:103420000028CAD14346002240212046009601F0E0
:103430003AFC10B10320BDE8F883202084F839005D
:1034400084F838700020BDE8F8837047FEE700007C
:103450002DED028B02E0642005F042F9FDF767FADA
:103460000028F8D12D4AA2F1100A101D90460AF149
:1034700004018146FDF768FADFED290A9FED290A6C
:10348000294B012200210AF1300000F0FFFDAAF1D2
:103490001000FDF7E5F90AF1900005F02FF80AF1A8
:1034A0002C052E1F9FED218A371F54464246211DB1
:1034B0004846FDF749FA19494846803105F078F841
:1034C0001648D4ED032A94ED022AD4ED011A94EDA6
:1034D000071AD4ED060A94ED050A203800F06CFABC
:1034E0000E482B4632463946203804F04DFF002165
:1034F0000AEB810494ED090A20EE080A84ED090A1A
:10350000491CC9B20329F3D39AED0A0AB1EE400A65
:103510008AED0A0A012005F0E3F8C6E7D00E002084
:103520000080894500A08C4508C30008E12E654253
:1035300010B50F480D4901600321416000218160F1
:10354000C1604FF4102202614FF400124261017613
:1035500041768176C17601774177FDF744FF0028F7
:1035600003D0BDE81040FDF7F9BB10BD006400407A
:10357000F808002010B50E480C4901600321416095
:1035800000218160C1604FF4302202614161017607
:1035900041768176C17601774177FDF724FF0028D7
:1035A00003D0BDE81040FDF7D9BB10BD0068004056
:1035B0002009002008B51D48016841F48001016020
:1035C000016801F480010091016841F4001101607B
:1035D000006800F400100090002205210C20FEF786
:1035E000F1FC0C20FEF7E0FC002205213920FEF75B
:1035F000E9FC3920FEF7D8FC002205213A20FEF72D
:10360000E1FC3A20FEF7D0FC002205213B20FEF72A
:10361000D9FC3B20FEF7C8FC002205214520FEF71F
:10362000D1FCBDE808404520FEF7BEBC3038024062
:1036300010B5B4B02E48FFF7A1FA2E4803C8CDE963
:1036400032010022012132A805F086F82A4CE061FF
:103650001C22284908312BA8FCF784FF00212BA845
:1036600005F04BF820601C222249243124A8FCF7E5
:1036700079FF002124A805F040F860601C221D4954
:1036800040311DA8FCF76EFF00211DA805F035F89C
:10369000A0601C2217495C3116A8FCF763FF0021CB
:1036A00016A805F02AF8E0601C22124978310FA80C
:1036B000FCF758FF00210FA805F01FF820611C221D
:1036C0000C49943108A8FCF74DFF002108A805F02B
:1036D00014F860611C220749B03101A8FCF742FFD1
:1036E000002101A805F009F8A06134B010BD000068
:1036F000A00A0020E0C10008000000202DE9F041F0
:1037000086B0142101A8FCF75FFF00262948016854
:1037100041F002010160016801F0020100910168BD
:1037200041F040010160016801F040010091016831
:1037300041F001010160016801F00101009101689F
:1037400041F008010160016801F008010091016881
:1037500041F004010160016801F004010091016879
:1037600041F080010160006800F080000090DFF807
:103770004880012210214046FEF790FB0F4F0122A6
:1037800011463846FEF78AFB10200190012402946E
:1037900003960225049501A94046FEF771FA0194AB
:1037A00002940396049501A93846FEF769FA06B01B
:1037B000BDE8F081303802400000024000040240C1
:1037C00010B510480E4901604FF48271416000212C
:1037D0008160C16002220261012242615202826163
:1037E0003822C2610162416281620A21C162FEF730
:1037F00080FF002803D0BDE81040FDF7AFBA10BD30
:10380000003001404809002010B58EB000240A9411
:103810000B940C940D94089409941C2101A8FCF7B6
:10382000D3FE1E481C4901604460846045F20721B4
:10383000C16004618461FFF748F908B1FDF78EFAB1
:103840004FF480500A900AA91448FFF7A8F908B16C
:10385000FDF784FA1148FFF768FB08B1FDF77EFA1F
:103860000894099408A90D48FFF708F908B1FDF775
:1038700075FA60200190029403940594082201A92E
:103880000648FFF7E4FA08B1FDF768FA0348FFF7C6
:10389000B3FA0EB010BD000000080040600A00201E
:1038A00010B586B000240294039404940594009407
:1038B000019415481349016042F2D00141608460CF
:1038C00040F28111C160046180218161FFF7FDF840
:1038D00008B1FDF743FA4FF48050029002A90A485C
:1038E000FFF75DF908B1FDF739FA009401946946D4
:1038F0000548FFF7C3F8002801D0FDF72FFA06B0FE
:1039000010BD0000000C0040A00A002010B50C48BB
:103910000A4901604FF4E131416000218160C160DA
:1039200001610C2242618161C161FFF7E5FB002862
:1039300003D0BDE81040FDF711BA10BD00100140E2
:10394000E00A002010B50C480A4901600B494160AB
:1039500000218160C16001610C2242618161C1610D
:10396000FFF7CAFB002803D0BDE81040FDF7F6B909
:1039700010BD000000480040200B0020A086010080
:1039800010B50C480A4901604FF4E1314160002153
:103990008160C16001610C2242618161C161FFF7F8
:1039A000ABFB002803D0BDE81040FDF7D7B910BD30
:1039B00000140140600B002000B50246B0EE403A12
:1039C000F0EE603AB0EE414AF5EEC01AF1EE10FAB0
:1039D00009D1B5EEC02AF1EE10FA04D1F5EEC02AF5
:1039E000F1EE10FA78D021EEA10A02EE020A02EE00
:1039F000A20A04F0F7FD61EE804A22EE005A62EE60
:103A0000802A92ED012A92ED030AD2ED000A92ED8E
:103A1000021A62EE001A40EEC11A20EE822A01EE6E
:103A2000002AB6EE001A10EEA01A00EE001A25EEDB
:103A3000010A02EEC20A62EEA10A44EEC10A24EEB5
:103A4000821A05EE611A5348D0ED011AF5EEC01A3C
:103A5000F1EE10FA2CDDD0ED011A90ED022A61EEA4
:103A6000802ADFED4D1A02EEA12A80ED022A90EDA8
:103A7000012A62EE202A90ED032A02EEA12A80EDAF
:103A8000032A90ED012A62EE012A90ED042A02EE4B
:103A9000A12A80ED042AD0ED021A33EE213AD0EDAE
:103AA000031A73EEA13AD0ED041A34EE214A07E06E
:103AB000DFED3A1AC0ED021AC0ED031AC0ED041A88
:103AC000D0ED001A01EE803A90ED000A40EE203A67
:103AD00090ED000A00EE014A9FED311A23EE010A33
:103AE00063EE810A24EE011AD2ED001A92ED012A4A
:103AF000D2ED022AB1EE423A63EE003A92ED033A79
:103B000042EEE03A43EE413A73EEA14AC2ED004A7A
:103B100061EE803A42EE813A43EE603A73EE823AC9
:103B2000C2ED013A21EEA04A02EE414A03EE004AFC
:103B300034EE224A82ED024A21EE811A02EE201A68
:103B400002EEC01A71EE030AC2ED030A24EEA40AC3
:103B500003EEA30A04EE040A00EEA00A04F042FDFC
:103B6000D2ED000A60EE800AC2ED000AD2ED010A31
:103B700060EE800AC2ED010AD2ED020A60EE800A10
:103B8000C2ED020AD2ED030A20EE800A82ED030A9A
:103B900000BD0000BC0100206F12833A000000004D
:103BA0006F12033AFEE7FEE710B504460A46002C02
:103BB0001DD0A41CE06B2064A06BE06310EE900AA3
:103BC000606110EE100AA061BCEEC00A10EE100A8F
:103BD000BCEEE00A81B210EE100A80B204F075FB70
:103BE00010EE100AA06314F8021D19B183E09FEDD6
:103BF000440A10BD54F8021F00EE100A00EE901A9D
:103C000020EE800A10EE102A2262616A00EE900A0D
:103C100000EE101A616801EE101A01EE200A10EE93
:103C2000101A6162236B6363E36A236300EE100A78
:103C3000E06B00EE900A30EE600A10EE100AE062CF
:103C4000A36800EE100A00EE903A20EE800A10EE13
:103C5000103AA362206900EE101A00EE900AA41E2A
:103C6000B4EEE00AF1EE10FA02DDC4F8260012E02C
:103C700000EE900A00EE101AF1EE600AB4EEE00ACF
:103C8000F1EE10FA07D200EE100AB1EE400A10EE83
:103C9000100AC4F826000E3400EE102AA06900EEC7
:103CA000900A70EE200A00EE103A30EE800A10EE14
:103CB000101A216154F80E0900EE101A00EE900A55
:103CC000B4EEE00AF1EE10FA02DDC4F81E0012E0D4
:103CD00000EE900A00EE101AF1EE600AB4EEE00A6F
:103CE000F1EE10FA07D200EE100AB1EE400A10EE23
:103CF000100AC4F81E00D4F81E0000EE100A10BD11
:103D00000000000070B59FEDDD1A00281CD0801C5B
:103D1000C36B0364816BC16310EE902A426110EEA5
:103D2000102A826130EEC00AF7EE001A61EE800AB6
:103D300000EE101A41EE000A10EE902A826310F88D
:103D4000014C801E1CB11CE0B0EE410A70BDCC4C91
:103D5000DFEDCC0AA24207DD00EE102A30EE600A49
:103D600010EE102AC0F83A20D0F83A20C64CA242F1
:103D700007D900EE102A30EE200A10EE102AC0F803
:103D80003A20027822B1012A70D0022A6FD070E165
:103D900050F8022F836B00EE902A00EE103A20EECE
:103DA000800A10EE104A0462426A00EE903A00EE79
:103DB000102A426801EE102A01EE200A10EE102AA5
:103DC0004262056B4563C56A056300EE103A00EE7A
:103DD000901A30EE600A10EE101AC162836800EE8D
:103DE000101A00EE903A20EE800A10EE103A83622C
:103DF000016900EE102A00EE901A801EB4EEE00A6F
:103E0000F1EE10FA02DDC0F8261012E000EE901A72
:103E100000EE102AF1EE600AB4EEE00AF1EE10FABC
:103E200007D200EE101AB1EE400A10EE101AC0F8D8
:103E300026100E3000EE104A816900EE901A70EEE6
:103E4000200A00EE103A30EE800A10EE102A0261CD
:103E500050F80E1900EE102A00EE901AB4EEE00AA7
:103E6000F1EE10FA04DDC0F81E1002E114E07EE06D
:103E700000EE901A00EE102AF1EE600AB4EEE00AAD
:103E8000F1EE10FA07D200EE101AB1EE400A10EE71
:103E9000101AC0F81E10ECE0801C00EE901A826B25
:103EA000046800EE102A70EE600A00EE104A20EE60
:103EB000800A10EE104A0462456800EE102A00EEF7
:103EC000905A60EE800A10EE905A4562066B466387
:103ED000C66A066300EE102A00EE901AB0EE001AD1
:103EE00000EEC10A00EE903A30EE200A10EE101AF1
:103EF000C162826800EE101A00EE902A20EE800A5D
:103F000010EE101A816200EE104A00EE905A70EE28
:103F1000200A00EE101AC16970EE800A00EE101A35
:103F200030EE800A10EE102AC261C16800EE102A3D
:103F300000EE901A801EB4EEE00AF1EE10FA02DDF7
:103F4000C0F81E1095E000EE901A00EE102AF1EE77
:103F5000600AB4EEE00AF1EE10FA07D200EE101A91
:103F6000B1EE400A10EE101AC0F81E1081E0801C5D
:103F700000EE901A836B026800EE103A70EE600A51
:103F800000EE102A20EE800A10EE104A0462426809
:103F900000EE103A00EE902A20EE800A10EE102A71
:103FA0004262056B4563C56A056300EE103A00EE98
:103FB000901A30EE600A10EE101AC162836800EEAB
:103FC000101A00EE903A20EE800A10EE103A83624A
:103FD000016900EE102A00EE901A801EB4EEE00A8D
:103FE000F1EE10FA02DDC0F8261012E000EE901A91
:103FF00000EE102AF1EE600AB4EEE00AF1EE10FADB
:1040000007D200EE101AB1EE400A10EE101AC0F8F6
:1040100026100E3000EE104A816900EE901A70EE04
:10402000200A00EE103A30EE800A10EE102A0261EB
:1040300050F80E1900EE102A00EE901AB4EEE00AC5
:10404000F1EE10FA02DDC0F81E1012E000EE901A38
:1040500000EE102AF1EE600AB4EEE00AF1EE10FA7A
:1040600007D200EE101AB1EE400A10EE101AC0F896
:104070001E10D0F81E0000EE100A70BD00000000F7
:10408000000034430000B443000034C300281DD0B6
:10409000002B1BD0801C00F8021C00F8012C1968B2
:1040A0000160596841609968816010EE101AC16022
:1040B00010EE901A0161002141630163C162C16188
:1040C0008162416201620164C163816370470000E3
:1040D00030B5174C23685D6945F040055D61236884
:1040E000DC6844F01004DC60124C23681D6825F085
:1040F00001051D6003E01D6825F001051D602368B2
:104100001D68ED07F7D125680B4BAB602368D860BD
:1041100020680161206842602068016841F48021C4
:1041200001602068016841F00101016030BD0000BC
:10413000200B0020A00B0020044800400249C1F8D9
:104140009204808870470000C417002010B5144CFA
:10415000C4F88E041EE0D4F88E040178A5291DD180
:10416000052100F0A2FE012818D1D4F88E04C01D4C
:1041700000F018F8D4F88E04B4F88014B0F80120D8
:10418000891A0939A4F88014B0F8011008440930DC
:10419000C4F88E04B4F880040028DCD110BD0000FF
:1041A000C417002010B53C4C40F20623D4F88E14FE
:1041B000B1F80510A1F20622994241D01CDCB1F5FC
:1041C000817F2DD00ADC012922D0032962D101464A
:1041D000BDE8104020223148FCF782B9A1F50071FA
:1041E000013925D0012955D101462C481022BDE8BE
:1041F00010401038FCF774B9012A29D0032A2FD0B7
:10420000072A35D0FB2A45D1BDE81040FFF796BFFD
:10421000014622480322BDE810401338FCF760B97C
:1042200001461E480422BDE810404030FCF758B952
:1042300001461A481B22BDE810402030FCF750B957
:10424000014616480622BDE810403F30FCF748B949
:10425000014612480722BDE810404430FCF740B93F
:1042600001460E480422BDE810403B30FCF738B947
:10427000014604220A48FCF733F9094804F2824453
:104280000068C0F30A012160C0F3C3216160C0F37C
:10429000C330A06010BD0000C41700206D1C0020BA
:1042A0008C01002008B58020044B8200A3F500712A
:1042B0000090A1F5007004F015FF08BDC41B00209C
:1042C00010B582B004461548DFF854C00068B0FB52
:1042D000FCF04FF47A7C00FB0CF001906068B0F5C4
:1042E000827F0ED10B46009200228021204600F0F2
:1042F00019F880B1606D40F02000606502B00320C5
:1043000010BD019838B10198401E01902068806866
:1043100010F0800FF5D102B0002010BD2400002065
:1043200000366E012DE9F0410446069E8846174688
:104330001D462068806838EA000016D00020B84288
:1043400010D0B5F1FF3F05D0FDF7B0FD801BA842AE
:104350000DD265B12068806838EA000033D00020B3
:10436000B842EED10020BDE8F0810120E7E72068E7
:10437000416821F0E00141606068B0F5827F0BD1B7
:10438000A068B0F5004F02D0B0F5806F04D120686E
:10439000016821F040010160A06AB0F5005F09D119
:1043A0002068016821F4005101602068016841F42F
:1043B00000510160012084F85100002084F8500071
:1043C0000320BDE8F0810120CAE70000034801682E
:1043D0008979012901D180F8301170478C160020AD
:1043E00010B5502080F31188BFF34F8FBFF36F8F4C
:1043F00005F032FF18B104494FF0805008600020EA
:1044000080F3118810BD000004ED00E030B593B0DA
:10441000302107A8FCF7D8F8142102A8FCF7D4F83B
:1044200000251D48016841F080510160006800F0DE
:10443000805001901948016841F480410160006892
:1044400000F48040019001200790000408900224AD
:104450000D9480010E9006200F90A82010901194CA
:104460000720129007A8FDF729FF08B1FCF776FC9A
:104470000F200290039404954FF4A05005904FF440
:1044800080500690052102A8FDF7E2FD002801D02A
:10449000FCF764FC13B030BD4038024000700040AF
:1044A0001048016841F4700101600F48016841F053
:1044B000010101600C4A00210832116002680B4BB7
:1044C0001A400260031D0A4A1A60026822F4802220
:1044D000026005480C3001600249580680390860C6
:1044E0007047000088ED00E000380240FFFFF6FE54
:1044F000103000240148FEF7C5BB0000A00A0020D0
:104500000148FEF7BFBB0000C00C0020F0B40268F9
:104510002C4B2D4C2D4D2E4EDFF8B8C098420AD0B2
:10452000B0F1804F07D0A04205D0A84203D0B042DE
:1045300001D0604503D122F070024F683A4398429F
:1045400028D0B0F1804F25D0A04223D0A84221D05E
:10455000B0421FD060451DD0A0F18044B4F5A03416
:1045600018D0A0F18044B4F5A23413D0A0F1804457
:10457000B4F5A4340ED0A0F18044B4F5C05409D0F1
:10458000A0F18044B4F5E05404D0A0F18044B4F527
:10459000005403D122F44072CC6822434C6922F0CB
:1045A0008002224302608A68C2620A68826298427C
:1045B00001D0604501D10969016301214161F0BC6D
:1045C0007047000000000140000400400008004067
:1045D000000C00400004014001F01F0101238B404A
:1045E000D0F820C02CEA03030362036A02FA01F147
:1045F000194301627047D0F808C02CF47F4C42EA9E
:104600000322114341EA0C0181607047826822F065
:104610007002114341F007018160704770B4026A73
:1046200022F001020262036A4268D0F818C02CF03E
:10463000700C2CF0030C0C6844EA0C0C23F0020301
:104640008C6823430F4C104DA04201D0A84205D1E5
:1046500023F00803CE68334323F00403A04201D0C3
:10466000A84207D122F4807222F400724C692243DE
:104670008C6922434260C0F818C0496841630362F4
:1046800070BC7047000001400004014070B4026A31
:1046900022F010020262036A4268D0F818C02CF4BB
:1046A000E04C2CF4407C0C684CEA042C23F02003F2
:1046B0008C6843EA0413114C114DA04201D0A8426A
:1046C00006D123F08003CE6843EA061323F04003AB
:1046D000A04201D0A84209D122F4806222F40062F3
:1046E0004C6942EA84028C6942EA84024260C0F862
:1046F00018C049688163036270BC704700000140C4
:104700000004014070B4026A22F480720262036AFB
:104710004268D0F81CC02CF0700C2CF0030C0C6814
:1047200044EA0C0C23F400738C6843EA0423114C14
:10473000114DA04201D0A84206D123F40063CE68F7
:1047400043EA062323F48063A04201D0A84209D1A2
:1047500022F4805222F400524C6942EA04128C691D
:1047600042EA04124260C0F81CC04968C163036297
:1047700070BC7047000001400004014010B4026AA0
:1047800022F480520262D0F820C04268C36923F448
:10479000E04323F440730C6843EA04232CF4005CE8
:1047A0008C684CEA043CA0F18044B4F5803404D019
:1047B000A0F18044B4F5823404D122F480424C69E3
:1047C00042EA84124260C36149680164C0F820C0B3
:1047D00010BC7047036AD0F820C02CF0010CC0F860
:1047E00020C0D0F818C02CF0F00C4CEA021223F0D4
:1047F0000A031943826101627047036A23F01003C0
:104800000362D0F818C0036A2CF4704C4CEA0232F0
:1048100023F0A00343EA011182610162704710B5E1
:10482000806B0021C185C184FEF7C9FB10BD016802
:10483000CA6822F49072CA6001684A6922F00102D3
:104840004A61202180F83A10704710B50168CA68A3
:1048500022F04002CA60202180F83910FEF7F5FDF1
:10486000002010BD10B590F83A10222901D0022086
:1048700010BD8168B1F5805F11D0016919B301687D
:10488000496801F07F02816A4B1C83620A70C18D06
:10489000491E0904090CC1851CD0002010BD816A85
:1048A00002693AB102685268D2B20A80816A491C30
:1048B0008162ECE702685268C2F308020A80816AEA
:1048C000891C8162E3E701684A68816A4B1C836244
:1048D0000A70DCE70168CA6822F02002CA60016839
:1048E000CA6822F48072CA6001684A6922F0010233
:1048F0004A61202180F83A10FEF738FD002010BDF3
:104900002DE9F041044620680169E26821F4405134
:10491000114301612169A068E2690843616911439B
:1049200001432068C26822F4037222F41442114346
:10493000C16020684169A26921F44071114341615D
:10494000E069BC4ABC49BD4D3226B0F5004F5ED08F
:104950002068884202D0904240F01281FDF766FC48
:1049600000EBC00101EB001061688900B0FBF1F7BA
:10497000FDF75CFC00EBC00101EB001061688900F1
:10498000B0FBF1F0A5FB001040096FF0180148439F
:1049900007EB800006EB0010A5FB0010400900F0BB
:1049A000F007FDF743FC00EBC00101EB001061686C
:1049B0008900B0FBF1F0A5FB0010400907EB0017E0
:1049C000FDF734FC00EBC00101EB001061688900C9
:1049D000B0FBF1F8FDF72AFC00EBC00101EB001081
:1049E00061688900B0FBF1F0A5FB001040096FF091
:1049F0001801484308EB800006EB0010A5FB0010EF
:104A00002168C0F3431038448860BDE8F081206815
:104A1000884201D0904259D1FDF708FC00EBC0015B
:104A200001EB001061684900B0FBF1F0A5FB00103C
:104A300040090701FDF7FAFB00EBC00101EB001094
:104A400061684900B0FBF1F8FDF7F0FB00EBC00135
:104A500001EB001061684900B0FBF1F0A5FB00100C
:104A600040096FF01801484308EB800006EBC000D6
:104A7000A5FB0010400900F0F80007EB4007FDF728
:104A8000D5FB00EBC00101EB001061684900B0FBF1
:104A9000F1F8FDF7CBFB00EBC00101EB0010616802
:104AA0004900B0FBF1F0A5FB001040096FF01801C0
:104AB000484308EB800006EBC000A5FB001021680E
:104AC000C0F3421038448860BDE8F081FDF79EFBDA
:104AD00000EBC00101EB001061684900B0FBF1F090
:104AE000A5FB001040090701FDF790FB00EBC0019A
:104AF00001EB001061684900B0FBF1F8FDF786FB9F
:104B000000EBC00101EB001061684900B0FBF1F05F
:104B1000A5FB001040096FF01801484308EB800026
:104B200006EBC000A5FB0010400900F0F80007EB01
:104B30004007FDF76BFB00EBC00101EB0010616863
:104B40004900B0FBF1F8FDF761FB00EBC00101EBA0
:104B5000001061684900B0FBF1F0A5FB00104009AE
:104B60006FF01801484308EB800006EBC000A5FB7E
:104B700000102168C0F3421038448860BDE8F0811D
:104B8000FDF744FB00EBC00101EB001061688900F8
:104B9000B0FBF1F7FDF73AFB00EBC00101EB0010B1
:104BA00061688900B0FBF1F0A5FB001040096FF0CF
:104BB0001801484307EB800006EB0010A5FB00102E
:104BC000400900F0F007FDF721FB00EBC00101EB0D
:104BD000001061688900B0FBF1F0A5FB00104009EE
:104BE00007EB0017FDF712FB00EBC00101EB001013
:104BF00061688900B0FBF1F8FDF708FB00EBC0012C
:104C000001EB001061688900B0FBF1F0A5FB00101A
:104C100040096FF01801484308EB800006EB0010D4
:104C2000A5FB00102168C0F3431038448860BDE83C
:104C3000F081000000140140001001401F85EB517D
:104C400090F83910212901D0022070478168B1F510
:104C5000805F0CD0016A4A1C0262026809785160C8
:104C6000C18C491E0904090CC18410D019E0016AE5
:104C700002680988C1F308015160016919B1016A2C
:104C8000491C0162ECE7016A891C0162E8E70168DE
:104C9000CA6822F08002CA600068C16841F0400121
:104CA000C160002070472DE9F0410446069D88460A
:104CB00017461E462068006838EA000020D0002011
:104CC000B84227D1B5F1FF3F1CD025B1FDF7EEF872
:104CD000801BA84216D92068C16821F4D071C16038
:104CE0002068416921F001014161202084F83900E8
:104CF00084F83A00002084F838000320BDE8F081F1
:104D00000120DDE72068006838EA000005D00020B7
:104D1000B842D7D00020BDE8F0810120F8E70000BC
:104D20000148FEF74DB90000E00A002038B52D48D3
:104D300000680168890603D501684068009038BDA5
:104D400029490968C906FAD5016840680090274AD0
:104D500010680168264B09034FF0240420D4016831
:104D600021F00101016011684868C0F1240080B29F
:104D700018804C6011680B6843F400230B601168C5
:104D80000A6842F001020A601228D8D1194901F1DB
:104D9000160004F035FABDE83840002003F09EB953
:104DA000016821F00101016011684868C0F1240028
:104DB00080B218804C6010498B6A23F400238B6208
:104DC00011680A6842F001020A601228B7D1094945
:104DD00001F13A0004F014FABDE83840002003F075
:104DE0007DB90000200B002000480040A00B0020EF
:104DF000300000205C0F00200060024018B42648FC
:104E00000068C00646D525490868026840680090D9
:104E1000486B00680268224B12034FF400741CD4E4
:104E2000026822F001020260486B02685268C2F513
:104E30000072A3F8802400684460486B0068026830
:104E400042F400220260486B0068016841F00101F1
:104E50000160184618BCFFF779B9026822F0010218
:104E60000260486B02685268C2F50072A3F88024A1
:104E700000684460486B0068026822F40022026007
:104E8000486B0068016841F00101016018BC0548E9
:104E9000FFF75CB918BC704700140140600B00209C
:104EA000C4170020C4190020FEE730B505460C46A3
:104EB000002D01D0022C01D8002030BDFF22611E40
:104EC0002846FBF789FF291911F8011C814201D1FD
:104ED000012030BD002030BD10B503F0ADFA01490E
:104EE000486010BD58000020084880ED000AC0ED61
:104EF000010A80ED021AC0ED031A80ED042AC0ED0C
:104F0000052A01460622024804F0F4BD20100020C4
:104F1000E00A002003B401984100009850EAC12043
:104F200018BF04204A0D18BF40F0010040F2FF7284
:104F3000B2EB515F08BF40F00200012808BF052016
:104F400002B070474100080218BF04200A0E18BFC3
:104F500040F001004FF07F4232EA010108BF40F00B
:104F60000200012808BF05207047000010B54FF06F
:104F70000E402DED028BB0EE408A18EE104A00EB89
:104F80004400B0F1506F4AD84FF0FC40B0EB440FF2
:104F900022D2B0EEC80AF7EE000A30EEC00AF6EEF2
:104FA000000A60EE208A18EE900A04F0F1F901EE92
:104FB000100A14F0004F1DBFDFED2D0A9FED2D0AE2
:104FC000B1EE411ADFED2C0A08BF9FED2C0AF8EE76
:104FD000001A21EE218A05E0DFED290A68EE088A31
:104FE000B0EE600A9FED271ADFED271A30EE080AAF
:104FF00048EE811A9FED251A08EEA11ADFED241A5A
:1050000048EE811A9FED231A08EEA11A68EE281ABD
:10501000BDEC028B01EE810A30EE200A10BD4FF08C
:10502000E440B0EB440F0CD918EE100AFFF78AFFEA
:10503000042808BF01F04AFFB0EE480ABDEC028B1D
:1050400010BD4FF07F40B0EB440F07D2B0EE480ADE
:10505000BDEC028BBDE8104001F02ABF0120FBF738
:10506000E2FABDEC028BBDE8104001F027BF000062
:105070000000C9BF22AAFDB90000C93F22AAFD391C
:105080000000000024FE1C3DC78AD83C1E67383D46
:105090001B93993DAFAA2A3E70B59B482DED020B9C
:1050A0002DED068B079D25F00044A04218DC9748A3
:1050B000844202DC0AD1069840B19DED060BBDEC9E
:1050C000068B02B0BDE8704001F0AEBE002DCCBF33
:1050D0009FED8F0B9FED900BBDEC068B02B070BD6A
:1050E0008F48A04215DD8F48A042D8BF4FF0FF3453
:1050F00058DD9DED060B51EC100BFFF70BFF04285C
:1051000008BF01F0C5FE9DED060BBDEC068B02B09D
:1051100070BD9DED060B51EC100B03F0E4F8CDE9EA
:10512000060181489FED828BA0423CDD8248A0426F
:105130001FDD00249FED82AB9DED060B53EC1A2B77
:1051400051EC100B05F0F6FB9DED060B41EC190B35
:1051500053EC1A2B51EC100B05F0C2FF53EC182B3B
:1051600006F0BAFA53EC192B05F024FDCDE906013F
:1051700049E09DED060B012453EC182B51EC100B6C
:1051800005F0D8FB9DED060B41EC190B53EC182BE9
:1051900051EC100B06F0A0FA53EC192B05F00AFDA8
:1051A000CDE906012FE06848A0421FDD02249FEDF3
:1051B000689B9DED060B53EC192B51EC100B05F081
:1051C0008FFF53EC182B05F0B5FB9DED060B41EC62
:1051D000180B53EC192B51EC100B06F07DFA53EC25
:1051E000182B05F0E7FCCDE906010CE09DED060B60
:1051F000032453EC102B9FED580B51EC100B05F0D2
:10520000D9FCCDE906019DED060B53EC102B51ECBA
:10521000100B05F065FF41EC180B53EC182B05F053
:105220005FFF41EC190B4E480621B0EE490AF0EE43
:10523000690A784401F0CCFC53EC182B51EC100BAC
:1052400005F04EFF41EC180B4648B0EE490AF0EE6F
:10525000690A0521784401F0BBFC53EC192B51EC91
:10526000100B05F03DFF41EC100B51EC180B53EC0B
:10527000102B002C0EDA05F05DFB9DED061B53ECA8
:10528000112B05F02DFF9DED061B53EC112B06F0A5
:10529000F7F835E005F04EFB9DED061B53EC112BA6
:1052A00005F01EFF41EC100B2F48784400EBC400C2
:1052B00090ED001B51EC100B53EC112B06F00CFA87
:1052C0009DED061B53EC112B06F006FA41EC100B7A
:1052D0002648784400EBC40090ED001B51EC100B05
:1052E00053EC112B06F0CCF841EC100B002DA2BFB3
:1052F000BDEC068B02B070BD51EC100B05F0ACF9A3
:1053000041EC100B01E70000000010440000F07FAA
:10531000182D4454FB21F93F182D4454FB21F9BFAB
:105320000000DC3F0000203E0000F33F00000000D2
:10533000000000000000F03F0000E63F0000000019
:10534000000000000000004000800340000000005A
:10535000000000000000F83F000000000000F0BF67
:105360000A750000C07400004A7400000274000056
:1053700070B56B4E2DED040B2DED028B82B0DDF878
:105380001CC0DDE905235C422CF000411C4341EACE
:10539000D474049D22F00040B44205D86C422C43E2
:1053A00040EAD474B4420BD99DED061B9DED040B6D
:1053B00002B0BDEC028B04B0BDE8704001F03EBD10
:1053C000ACF14054A4F17F641C430BD0022404EAE6
:1053D000AC7444EAD27405439FED538B9FED542B7C
:1053E00007D015E09DED040B51EC100B01F076FD9C
:1053F00042E0002C11BF012C9DED040B02B0BDEC6E
:10540000028B04BF04B070BD022C38D0032C3BD0FB
:105410000B439FED491B9FED4A0B0AD0B14218D1B7
:10542000B04209D121F0804120F0804007910590E1
:105430000FE0002A15DA10E0434B7B44002C08BF34
:1054400093ED000B0DD0012C10D0022C17D0032CA3
:105450001AD0B0421DD1002A03DAB0EE410AF0EEB4
:10546000610A02B0BDEC028B04B070BD93ED000B7D
:1054700051EC100B05F0F0F841EC100BF1E7B0EE39
:10548000480AF0EE680AECE7B0EE420AF0EE620A73
:10549000E7E7401A00153C28C8BF8DED000B19DC6A
:1054A000BCF1000FBEBF10F13C0F9FED290B8DED3D
:1054B000000B0FDB9DED060B53EC102B9DED040B49
:1054C00051EC100B05F076FB02F00DFF01F006FD2C
:1054D000CDE90001002C08BF9DED000BC1D0012CCF
:1054E00010D0022C9FED1C0B53EC102B9DED000BEC
:1054F00051EC100B0DD006F0EFF853EC182B06F022
:10550000EBF8B9E7019880F0004001909DED000BA9
:10551000A7E706F0E1F853EC182B05F0B1FFABE775
:105520000000F07F00000000182D4454FB210940CA
:10553000182D4454FB2109C0182D4454FB21F9BFF8
:10554000182D4454FB21F93F627300000000000055
:105550000000000000000000075C143326A6A13CF8
:1055600010EE100A10B510EE901A4FF0684202EBE0
:1055700040032DED028BB3F1654F3CBF02EB4102BE
:10558000B2F1654F7CD200BFC0F3C753C1F3C7521D
:105590009A1A1B2A09DD10F0004F14BF9FED6E0A06
:1055A0009FED6E0ABDEC028B10BD12F11A0F1BDAD3
:1055B00011F0004F09D010F0004F0CBF9FED680AAA
:1055C0009FED680ABDEC028B10BD80EE208A18EEBC
:1055D000100AFFF7B7FC042808BF01F077FCB0EE13
:1055E000480ABDEC028B10BD4200B2EB410F37D927
:1055F00010F0004F19BFDFED5C1A9FED5C1ADFED74
:105600005C1A9FED5C1AB0EE602A0A46F1EE400A81
:1056100080F00041B0EE420A10460A1A5200B2F180
:10562000807F34D2484010F0004FDFED532A9FEDC9
:10563000533A1DBFBEEE002A71EEE21A31EE431A54
:10564000B6EE002A04BF71EEA21A31EE031AF0EE94
:10565000402A42EE602A40EE020A82EEA02A18E0BA
:1056600011F0004F04BF9FED461AF0EE411AD4D05E
:1056700010F0004F1CBFDFED431A9FED431A00E00E
:1056800026E004BFDFED411A9FED411AC5E780EE29
:10569000202A22EE020ADFED3F0ADFED3F2ABDECB1
:1056A000028B40EE202ADFED3D0A40EE220ADFEDBC
:1056B0003C2A40EE202ADFED3B0A40EE220A22EE91
:1056C000000A00EE201A31EE020A30EE210A10BD67
:1056D0004FF07F42B2EB400F28BFB2EB410F05D233
:1056E000BDEC028BBDE8104001F0E5BB40EA0103D0
:1056F0005B0008BF41F0FF410BD0B2EB400F08BF89
:10570000B2EB410F08D120F0804000EE100A21F0EA
:10571000804100EE901A37E7B2EB400F12BF5FEA0C
:10572000410240F0FF4001F000413FF42DAF4A003C
:1057300092EA40033FF528AF002AACBF9FED1A1A4A
:105740009FED1A1A20EE010A60EE810A10EE100A8F
:1057500010EE901A18E70000DB0FC9BFDB0FC93F3E
:10576000DB0F4940DB0F49C00000C9BF22AAFDB9C9
:105770000000C93F22AAFD390060ED3EC30ACE37C2
:1057800000000000000049C022AA7DBA0000494084
:1057900022AA7D3A2DAD65BD8FB8D53D0FB511BE9E
:1057A00061C84C3EA8AAAABE0000804F0000802F0E
:1057B00010B52F499FED2C1B2DED020B84B00598E1
:1057C00020F000408842D8BF9DED040B2DDD294913
:1057D000884209D1049840B94FF00100FAF723FF3D
:1057E00001F036FB06B010BD05DB9DED040B01F0AA
:1057F0001BFB06B010BD68469DED040B00F014FFC6
:1058000010F0030004BF9DED021B9DED000B0CD0BA
:1058100001280ED09DED021B9DED000B022817D034
:10582000012001F051FA06B010BD01F019F906B0DF
:1058300010BD9DED021B9DED000B012001F044FA0F
:1058400051EC100B04F008FF06B041EC100B10BD3A
:1058500001F006F951EC100B04F0FEFE06B041EC2D
:10586000100B10BD00000000000000000000000050
:10587000FB21E93F0000F07F2DED020B019820F0A5
:10588000004001909DED000B02B070470000000049
:105890002DE9F04D2DED040B2DED0E8B96B0DDE9CD
:1058A0002550279CDDF890A025F0004624F0004804
:1058B000BAF1000F14BF0121002101EB4502FC49A0
:1058C00053184A1093422AD3002814BF01230023FF
:1058D00003EB44030B44F7498B4220D358EA000101
:1058E0009FEDF59B76D0DFF8D8B35D4503D1BAF1D3
:1058F000000F05D188E0BAF1000F08BF002100D0E9
:10590000012101EB450111F5001F08D8002814BF43
:105910000121002101EB440111F5001F0BD99DED80
:10592000261B9DED240B16B0BDEC0E8B04B0BDE81C
:10593000F04D01F083BA0027002DBCBFE149884536
:1059400021DAE1498845A8BF02271CDAC3451ADCE1
:10595000DE4901EB2851142908DDC1F1340220FA97
:1059600002F101FA02F282420DD108E058B9C1F108
:10597000140228FA02F101FA02F2424503D101F0C1
:105980000101C1F1020756EA0A0124D1002C22DAF2
:10599000002D18BF022F01D0012F0AD00220FAF7E4
:1059A00042FE16B0BDEC0E8B04B0BDE8F04D01F028
:1059B00023BA0220FAF737FE01F01EFA51EC100B61
:1059C00004F04AFE41EC100B16B0BDEC0E8B04B097
:1059D000BDE8F08D18E09FEDBEAB9FEDBF8B0028BA
:1059E00071D1B848804522D105F1804010F5801072
:1059F00008BFBAF1000F07D0B3450ADC002CA8BFDE
:105A00009DED260BE0DA0DE0B0EE490AF0EE690AF2
:105A1000DAE7002C06DA9DED260B51EC100B04F0B2
:105A20001BFE6FE0AE48784490ED000BCCE7D84504
:105A30004DD1002C48DA2EB186423AD1BAF1000F8E
:105A400042D126E0BAF1000F13D00220FAF7EBFDA5
:105A500001F00EFA8DED020B9DED240B8DED000B88
:105A600010EE900A039961F31E0003909DED020B66
:105A7000AAE78DED02AB9DED240B1AEE901A10EE05
:105A8000900A8DED000B61F31E0003909DED020B5B
:105A90009AE78DED028B9DED240B18EE901A10EE17
:105AA000900A8DED000B61F31E0003909DED020B3B
:105AB0008AE709DA9DED240B51EC190B53EC102BFE
:105AC00005F078F81EE020E09DED240B7CE786428F
:105AD0001BDAB4F1804F0DD0A4F10050B0F1FF50AB
