:020000040800F2
:100000007893002029030008353E00086535000874
:10001000313E0008790A000875520008000000000F
:10002000000000000000000000000000690200085D
:10003000C30C000800000000C5020008AD4700081E
:100040004303000843030008430300084303000878
:100050004303000843030008430300084303000868
:100060004303000843030008430300084303000858
:10007000ED0B000843030008430300084303000896
:10008000430300084303000843030008B50A0008BF
:10009000950A0008A50A0008430300084303000866
:1000A0004303000843030008430300084303000818
:1000B0004303000843030008430300084303000808
:1000C00043030008430300084303000843030008F8
:1000D0004303000825510008430300083551000878
:1000E00043030008430300084303000843030008D8
:1000F00043030008430300084303000843030008C8
:100100004303000843030008F148000843030008C4
:1001100043030008430300080149000843030008A3
:100120004303000843030008F10B0008010C00081A
:10013000430300084303000843030008E50A0008DE
:10014000C50A0008D50A0008430300084303000855
:1001500043030008430300084303000865520008F6
:100160004303000843030008430300084303000857
:100170004303000843030008430300080000000095
:10018000430300084303000800F002F800F05CF8A5
:100190000AA090E8000C82448344AAF10107DA45E2
:1001A00001D100F051F8AFF2090EBAE80F0013F0D8
:1001B000010F18BFFB1A43F00103184734CB0000AE
:1001C00054CB00000A444FF0000C10F8013B13F030
:1001D000070408BF10F8014B1D1108BF10F8015BA0
:1001E000641E05D010F8016B641E01F8016BF9D193
:1001F00013F0080F1EBF10F8014BAD1C0C1B09D1EA
:100200006D1E58BF01F801CBFAD505E014F8016B5B
:1002100001F8016B6D1EF9D59142D6D370470000ED
:100220000023002400250026103A28BF78C1FBD8FF
:10023000520728BF30C148BF0B6070471FB50CF094
:10024000C9F91FBD10B510BD00F0D2F91146FFF776
:10025000F5FF08F0C3FF00F0F0F903B4FFF7F2FF79
:1002600003BC00F055FA00002C4B19680868B0E890
:10027000F04F80F30988BFF36F8F4FF0000080F3D9
:10028000118870470000000008480068006880F38B
:1002900008884FF0000080F3148862B661B6BFF39F
:1002A0004F8FBFF36F8F00DF00BF00BF08ED00E08E
:1002B000DFF80C00016841F470010160704700BF75
:1002C00088ED00E0EFF30980BFF36F8F134B1A68DE
:1002D0001EF0100F08BF20ED108A20E9F04F1060CB
:1002E00009B44FF0500080F31188BFF34F8FBFF374
:1002F0006F8F09F0A1FF4FF0000080F3118809BC57
:1003000019680868B0E8F04F1EF0100F08BFB0EC95
:10031000108A80F30988BFF36F8F70479C0100201B
:10032000EFF30580704700000948804709480047FF
:10033000FEE7FEE7FEE7FEE7FEE7FEE7FEE7FEE795
:10034000FEE7FEE704480549054A064B70470000F2
:100350008D48000889010008785300207893002018
:10036000787300207873002053EA020C00F0698053
:100370002DE9F04B4FF00006002B1FBFB3FA83F5B9
:1003800003FA05F424FA05F65E4012BF1643B2FAEA
:1003900082F502FA05F4C5F120051EBF22FA05FC1C
:1003A00044EA0C04203556EA044C4FEA144418BFC2
:1003B000641C4FF000084FF00009904271EB030CF1
:1003C00039D3002919BFB1FA81F701FA07F6B0FA5B
:1003D00080F700FA07F6C7F120071EBF20FA07FCD6
:1003E00046EA0C062037B6FBF4FCA7EB0507103FE6
:1003F00007F01F0BCBF120060CFA0BFB2CFA06F6CC
:1004000044BFB3460026202FA4BF5E464FF0000B2A
:100410005BEA060C08BF4FF0010B19EB0B09ABFBB5
:10042000027C48EB0608C01B06FB02CC0BFB03CC8E
:1004300071EB0C01C1E70B46024641464846BDE858
:10044000F08B13B54FF000004FF00001AFF30080C8
:10045000BDE81C407047032A40F2308010F0030CC6
:1004600000F0158011F8013BBCF1020F624498BF07
:1004700011F801CB00F8013B38BF11F8013BA2F1A4
:10048000040298BF00F801CB38BF00F8013B11F01F
:10049000030300F02580083AC0F0088051F8043BBF
:1004A000083A51F804CBA0E80810F5E7121D5CBF2C
:1004B00051F8043B40F8043BAFF30080D20724BF5F
:1004C00011F8013B11F801CB48BF11F8012B24BFF3
:1004D00000F8013B00F801CB48BF00F8012B704742
:1004E00010B5203AC0F00B80B1E81850203AA0E8CF
:1004F0001850B1E81850A0E81850BFF4F5AF5FEA03
:10050000027C24BFB1E81850A0E8185044BF18C9B5
:1005100018C0BDE810405FEA827C24BF51F8043B5C
:1005200040F8043B08BF7047D20728BF31F8023BB0
:1005300048BF11F8012B28BF20F8023B48BF00F844
:10054000012B70474FF0000200B5134694469646C3
:10055000203922BFA0E80C50A0E80C50B1F12001D6
:10056000BFF4F7AF090728BFA0E80C5048BF0CC084
:100570005DF804EB890028BF40F8042B08BF7047E2
:1005800048BF20F8022B11F0804F18BF00F8012B54
:10059000704770477047704710B500F009F8006861
:1005A00010BD10B5044600F003F8046010BD000053
:1005B00000487047185300201FB584B000200A9CE3
:1005C00006AB04AA02A90094AFF3008018B1DDE9DC
:1005D000020108B010BD0348204000F037F80020A9
:1005E0000146F6E70000207C0048704718530020C1
:1005F0007546FFF7F9FFAE4605006946534620F001
:100600000700854618B020B5FFF79CFEBDE82040E6
:100610004FF000064FF000074FF000084FF0000BBE
:1006200021F00701AC46ACE8C009ACE8C009ACE871
:10063000C009ACE8C0098D46704710B50446AFF359
:1006400000802046BDE81040FFF707BE10B500F05F
:1006500009F8BDE81040AFF30080002801D000F099
:1006600057B8704710B5022803D0410103D50DA13A
:1006700012E0002010BD010101D50FA10CE0C10066
:1006800001D511A108E0810001D512A104E04000CC
:1006900001D513A100E0002115A000F03FF80120D2
:1006A00010BD0000496E76616C6964204F70657200
:1006B0006174696F6E000000446976696465204268
:1006C00079205A65726F00004F766572666C6F779D
:1006D00000000000556E646572666C6F7700000064
:1006E000496E657861637420526573756C7400009F
:1006F0005349474650453A2041726974686D6574A4
:10070000696320657863657074696F6E3A200000D4
:1007100001491820ABBEFEE72600020070B5054671
:100720000C460A2000E06D1C00F011F835B1287865
:100730000028F8D102E0641C00F009F814B1207818
:100740000028F8D1BDE870400A20AFF3008008B55A
:1007500069468DF800000320ABBE08BD704700005D
:10076000B7EE000A80ED000A9FED060A80ED010A4F
:100770009FED040A80ED020A9FED020A80ED030A54
:100780007047000000000000B4EEE00AF1EE10FA3D
:1007900003DD30EE601AB0EE410AB5EEC00AF1EEAC
:1007A00010FA03D230EE201AB0EE410A7047000072
:1007B00010B501221021024801F09EFB10BD00007F
:1007C0000000024010B500221021024801F094FB05
:1007D00010BD0000000002407047000010B501226B
:1007E0001146024801F088FB10BD000000040240E1
:1007F00010B500220121024801F07EFB10BD00006F
:1008000000040240704710B5044603E04FF47A70CC
:1008100000F006F8201EA4F101018CB2F6D110BD43
:1008200070B5034600BF00BF0020002200BF4FF09C
:10083000E0267569A82603FB06F44FF0E026B169AF
:1008400010E04FF0E026B06988420BD0884202D217
:100850000E1A324402E02E1A0E4432440146A242DD
:1008600000D300E0EDE700BF70BD10B50024FFF736
:10087000B3FFFFF7C7FF06F051FD044306F0E2FDAA
:100880000443204610BD00002DE9FC4105460E46FC
:100890001746002000900190FFF794FF922000F08F
:1008A000D1F806226946122000F0ACF8FFF780FF6D
:1008B0009DF80100000200B29DF8001040EA01041A
:1008C00000EE104AB8EEC00A4C48D0ED000A20EE07
:1008D000200A86ED000A9DF80300000200B29DF890
:1008E000021040EA010400EE104AB8EEC00A434884
:1008F000D0ED000A20EE200A86ED010A9DF80500E1
:10090000000200B29DF8041040EA010400EE104A13
:10091000B8EEC00A3948D0ED000A20EE200A86ED74
:10092000020AFFF765FF08226946002000F06AF816
:10093000FFF754FF9DF800000F2838D19DF8030001
:10094000000200B29DF8021040EA010400EE104AD5
:10095000B8EEC00A2A48D0ED000A20EE200A85ED44
:10096000000A9DF80500000200B29DF8041040EA5C
:10097000010400EE104AB8EEC00A2148D0ED000A8A
:1009800020EE200A85ED010A9DF80700000200B262
:100990009DF8061040EA010400EE104AB8EEC00AC5
:1009A0001748D0ED000A20EE200A85ED020AFFF775
:1009B00009FFA22000F046F802226946222000F03A
:1009C00021F8FFF7F5FE9DF80000C0009DF801102A
:1009D00040EA6114B4F5806F02DBA4F5006004B254
:1009E00000EE104AF8EEC00AB4EE001AB3EE070AA1
:1009F00000EE810A87ED000ABDE8FC81500100206D
:100A00005401002070B506460C46154646F080009D
:100A100000F018F806E0552000F014F82070641C6F
:100A2000681EC5B2002DF6D170BD70B504460D46E6
:100A300044F0800000F006F8552000F003F828701C
:100A400070BD000001B582B04FF47A70012301AA95
:100A500002A90090024801F07BFF9DF804000EBD42
:100A60000809002070B505460C462846FFF7EAFF46
:100A70002046FFF7E7FF70BD00BFFEE710B5044852
:100A800002F0E2F80821024802F0EDFA10BD000081
:100A9000200A002010B5024800F049FB10BD0000FC
:100AA000B808002010B5024800F041FB10BD00005E
:100AB000B808002010B5024800F039FB10BD000056
:100AC000B808002010B5024800F031FB10BD00004E
:100AD000E008002010B5024800F029FB10BD00001E
:100AE000E008002010B5024800F021FB10BD000016
:100AF000E0080020F0B587B007460C4615461E46B4
:100B000040F2FF1000900020029003900820049013
:100B1000380A0A4908704F70200A8870CC70280A79
:100B200008714D71300A8871CE7106AB0A4669466C
:100B3000034800F02FF907B0F0BD0000440000208A
:100B4000E0080020F0B587B007460C4615461E4663
:100B50004FF4007000900820049000200390029051
:100B6000380A0A4908704F70200A8870CC70280A29
:100B700008714D71300A8871CE7106AB0A4669461C
:100B8000034800F007F907B0F0BD00003C0000206A
:100B9000B8080020144890ED030A00F5806080ED4D
:100BA0006E0A114890ED080A00F5B76080ED010A61
:100BB0000D4890ED0D0A00F5B76080ED020AA0F532
:100BC000DC7090ED610A00F5DC7080ED030A3438CA
:100BD00090ED010A343080ED040A343890ED020AB9
:100BE000343080ED050A7047E80E002070470000A1
:100BF00010B5024800F006FF10BD0000600900209B
:100C000010B5024800F0FEFE10BD0000C009002033
:100C100001680A4BCAB2103AA3FB02321209084B10
:100C20009B5CC365032A04D96FF30901091D816523
:100C300002E06FF309018165806D7047ABAAAAAA33
:100C400060CA0008014600208A6A8B69002B0FD019
:100C5000B3F5005F1DD08AB3012A30D0022A2ED00E
:100C6000032A04D1C96A11F0807F00D001207047A7
:100C70001AB1012A07D0022AF9D1C96A11F0807F7E
:100C8000F5D001207047C96AB1F1C07FFAD10120C7
:100C900070475AB1012A0BD0022A07D0032AF7D194
:100CA000C96AB1F1C07FF3D10120704701207047BC
:100CB000C96A11F0807FFAD001207047FFE7012058
:100CC0007047704772B600BFFEE7000010B52DED0B
:100CD000088B0446F0EE408A00EE104AB8EEC00AD7
:100CE00030EE680AB0EE408A18EE100A0BF0BCFB3A
:100CF00041EC1A0BB0EE4A0AF0EE6A0A04F0A0FFCB
:100D0000B0EE409AF0EE609A9FED150B53EC102B6D
:100D100051EC190B0AF049FF1DD218EE100A0BF026
:100D2000A3FB41EC1B0BB0EE4B0AF0EE6B0A04F098
:100D300087FFB0EE40AAF0EE60AA9FED0B0B53ECDC
:100D4000102B51EC1A0B0AF061FF41EC190B0AF061
:100D500055F808EE100AB0EE480ABDEC088B10BD3D
:100D60000000000000806640000000000080764027
:100D700090F82020012A07D0022A05D0416A41F4C8
:100D8000802141620120704700684269114341613E
:100D90000020704770B490F82040D0F800C0DCF814
:100DA00008C0012C08D0022C06D0416A41F48021F1
:100DB000416270BC012070470CF080640CF000654B
:100DC0002C4302D11CF0805F5FD0CCF3016CBCF1EE
:100DD000020F06D9416A41F40001416270BC012052
:100DE0007047012404FA0CF41C608B684FF4C07443
:100DF0009BB1CD6804EB0C162B434D6843EAC50349
:100E00000568AB514FF4C273066803EB0C130D6910
:100E1000F550097D012909D00DE00D88CB6804EB60
:100E20000C1643EA45530568AB51EBE70168CD5812
:100E300045F48075CD501179D379557941EA036134
:100E400093791B0443EA052319434FF4C6750368DD
:100E500005EB0C1559511178D37841EA0361937869
:100E600052781B0443EA022211434FF4C473026810
:100E700003EB0C13D150016804EB0C100A5842F03C
:100E800001020A5070BC00207047416A41F4001111
:100E9000416270BC0120704790F82020012A07D0E1
:100EA000022A05D0416A41F4802141620120704745
:100EB0004248D0F8002242F00102C0F80022D0F8E7
:100EC000002222F47C52C0F80022D0F800224B6AA3
:100ED00042EA0322C0F800220A7D012302F01F0229
:100EE00003FA02F2D0F81C329343C0F81C32CB69EB
:100EF000D3B9D0F80C329343C0F80C32B1F80CC01F
:100F00004B686CF31F43D1F814C000EBCC0CCCF849
:100F10004032B1F808C00B686CF31F43D1F814C01D
:100F200000EBCC0CCCF84432CB69012B1AD1D0F8B1
:100F30000C321343C0F80C32B1F800C04B686CF3AC
:100F40001F43D1F814C000EBCC0CCCF84032B1F800
:100F500008C0CB686CF31F43D1F814C000EBCC0C75
:100F6000CCF844328B697BB1D0F804321343C0F81B
:100F700004320B6973B1D0F814321343C0F8143241
:100F8000096A01290CD010E0D0F804329343C0F86C
:100F90000432EEE7D0F814329343C0F81432EFE78E
:100FA000D0F81C121143C0F81C12D0F8001221F026
:100FB0000101C0F8001200207047000000640040EA
:100FC000704710B490F820C0BCF1010F09D0BCF1FB
:100FD000020F06D0416A41F48021416210BC012019
:100FE000704739B1D0F800C0DCF810C01CF0030F16
:100FF0007DD006E0D0F800C0DCF80CC01CF0030F78
:101000007BD04FF4D87C04680CEB011C54F80C40E6
:1010100004F004049460002C7DD0046854F80C4063
:10102000E4085460046854F80CC0CCF3400CC2F8D7
:101030000CC04FF4DA7C04680CEB011C54F80C4033
:1010400004F00F041461046854F80C40C4F307243E
:101050009461046854F80CC04FEA1C4CC2F814C0E8
:101060004FF4DC72D0F800C002EB01125CF802C051
:1010700083F800C0D0F800C05CF802C04FEA1C2C16
:1010800083F801C0D0F800C05CF802C04FEA1C4CE5
:1010900083F802C0D0F800C05CF80220120EDA70AB
:1010A0004FF4DE72D0F800C002EB01125CF802C00F
:1010B00083F804C0D0F800C05CF802C04FEA1C2CD2
:1010C00083F805C0D0F800C05CF802C04FEA1C4CA1
:1010D00083F806C0D0F800C05CF80220120EDA7166
:1010E000F9B10068016941F02001016102E00BE003
:1010F00003E010E010BC00207047416A41F4001189
:10110000416210BC01207047416A41F40011416204
:1011100010BC01207047046854F80C40640D146042
:1011200080E70068C16841F02001C160DEE72DE979
:10113000F05F0546002428684669D0F80490876867
:10114000D0F80CA0D0F810B0D0F8188016F0010F2D
:1011500054D017F0010F17D00121816017F0020F52
:1011600003D0284600F036FC0EE017F0040F02D042
:101170004FF4006408E017F0080F02D04FF48054D9
:1011800002E0284600F025FC17F4807F19D029687A
:101190004FF48070886017F4007F03D0284600F079
:1011A0001BFC0EE017F4806F02D044F4005408E0FA
:1011B00017F4006F02D044F4804402E0284600F0A7
:1011C0000AFC17F4803F19D029684FF480308860FA
:1011D00017F4003F03D0284600F000FC0EE017F49F
:1011E000802F02D044F4004408E017F4002F02D00E
:1011F00044F4803402E0284600F0EFFB16F0080FBC
:1012000007D01AF0100F04D044F40074296810209D
:10121000C86016F0040F4FF0080707D01AF0080F47
:1012200004D02868C760284600F020FA16F0020FA4
:1012300007D02868C06810F0030F02D0284600F0DD
:1012400017FA16F0400F07D01BF0100F04D044F42B
:10125000806429681020086116F0200F07D01BF069
:10126000080F04D028680761284600F07DFB16F0BF
:10127000100F07D02868006910F0030F02D028462D
:1012800000F073FB16F4003F08D019F0100F05D0E2
:10129000296810204860284600F068FB16F4803F5B
:1012A00007D019F0080F04D028684760284600F0DE
:1012B00096FB16F4004F4AD019F0040F44D016F4F0
:1012C000807F04D018F0010F01D044F0010416F41F
:1012D000007F04D018F0020F01D044F0020416F48D
:1012E000806F04D018F0040F01D044F0040416F409
:1012F000006F29D018F0700F26D008F07000402839
:1013000015D006DC102809D020280AD0302816D1A4
:101310000AE050280ED0602811D10EE044F00804F5
:101320000DE044F010040AE044F0200407E044F02B
:10133000400404E044F0800401E044F48074286830
:10134000816921F070018161296804204860002CC6
:1013500005D0686A204368622846FFF731FEBDE881
:10136000F09F70B50446002C03D094F8200010B113
:1013700004E0012070BD204600F0A8F82068016854
:1013800021F00201016000F0BFFD054620684068C1
:101390004FF0050610F0020F11D000F0B5FD401B14
:1013A0000A2807D9606A40F40030606284F820603F
:1013B000012070BD2068406810F0020FEDD1206858
:1013C000016841F00101016000F09EFD05462068C2
:1013D000406810F0010F11D100F096FD401B0A2863
:1013E00007D9606A40F40030606284F82060012010
:1013F00070BD2068406810F0010FEDD0207E0128FC
:101400003FD02068016821F080010160607E0128E2
:101410003DD02068016821F040010160A07E0128D4
:101420003BD02068016821F020010160E07E0128A6
:1014300039D02068016841F010010160207F012847
:1014400037D02068016821F008010160607F012821
:1014500035D02068016821F004010160E168A068CE
:10146000626908432169114308436168491E0843C2
:101470002168C86100206062012084F820000020FB
:1014800070BD2068016841F080010160BEE72068FE
:10149000016841F040010160C0E72068016841F047
:1014A00020010160C2E72068016821F0100101609D
:1014B000C4E72068016841F008010160C6E72068C0
:1014C000016841F004010160C8E7000010B586B072
:1014D0000446142101A8FFF735F85E4920688842C8
:1014E00051D15D480068401C5B49086008460068AF
:1014F00001280FD100BF002000905848006840F03C
:101500000070564908600846006800F000700090BE
:1015100000BF00BF00BF0020009050481038006896
:1015200040F008004D49103908600846006800F096
:101530000800009000BF00BF03200190022002902D
:1015400000200390032004900920059001A944483D
:1015500000F0C4FB00220521132000F07BFD1320C6
:1015600000F06AFD00220521142000F073FD142014
:1015700000F062FD00220521152000F06BFD152012
:1015800000F05AFD64E037492068884260D100BF0E
:10159000002000903148006840F080602F490860CA
:1015A0000846006800F08060009000BF00BF2A4835
:1015B0000068401C284908600846006801280FD1CF
:1015C00000BF002000902548006840F000702349CB
:1015D00008600846006800F00070009000BF00BF7F
:1015E00000BF002000901D481038006840F0020045
:1015F0001A49103908600846006800F0020000909F
:1016000000BF00BF602001900220029000200390E4
:10161000032004900920059001A9134800F05EFB07
:10162000002205213F2000F015FD3F2000F004FDC1
:1016300000220521402000F00DFD402000F0FCFCC0
:1016400000220521412000F005FD412000F0F4FCBE
:1016500006B010BD00640040180000204038024071
:10166000000C024000680040000402407047000087
:1016700010B58EB00446B449206888427ED1B34B81
:1016800007AA0021B248FFF79CFC0798A0F20120AE
:1016900030B101282AD002284FD0032825D175E087
:1016A000AC48008800B2AB490881A8484078A749F7
:1016B000097840EA0120A7490880A448C078A349D6
:1016C000897840EA012000B2A24948809F484079C9
:1016D0009E49097940EA012000B29E4988809B48D2
:1016E00080798871012007F05FF977E09948408997
:1016F00001B298484182954840789449097840EA77
:101700000120944948819148C0789049897840EAFD
:10171000012001B28F4881818C4840798B49097939
:1017200040EA012001B28B48C1818848817989480B
:101730000174022007F038F950E08648808A01B22F
:1017400084488183814840788049097840EA0120B3
:10175000804988827D48C0787C49897840EA0120A8
:1017600001B27C48C182794840797849097940EAD8
:10177000012001B277480183744800E02FE08179AD
:1017800074488176032007F00FF927E07148C08B79
:1017900001B27048C1846D4840786C49097840EACC
:1017A00001206C49C8836948C0786849897840EA53
:1017B000012001B26748018464484079634909798E
:1017C00040EA012001B26348418460488179614860
:1017D00080F82410042007F0E7F800BFB1E05E496C
:1017E00020688842FAD15D4B6A4600215C48FFF7C9
:1017F000E8FB0098A0F2052030B101282AD0022889
:101800004FD0032825D173E05648008800B25549CF
:101810000881524840785149097840EA01205149ED
:1018200008804E48C0784D49897840EA012000B2CE
:101830004C494880494840794849097940EA0120A3
:1018400000B248498880454880798871052007F0B2
:10185000ABF875E04348408901B2424841823F48B5
:1018600040783E49097840EA01203E4948813B489A
:10187000C0783A49897840EA012001B2394881812B
:10188000364840793549097940EA012001B23548A6
:10189000C1813248817933480174062007F084F809
:1018A0004EE03048808A01B22E4881832B48407830
:1018B0002A49097840EA01202A4988822748C078C5
:1018C0002649897840EA012001B22648C18223488E
:1018D00040792249097940EA012001B22148018377
:1018E0001E4881791F488176072007F05DF827E0C0
:1018F0001C48C08B01B21B48C18418484078174966
:10190000097840EA01201749C8831448C078134970
:10191000897840EA012001B2124801840F484079D9
:101920000E49097940EA012001B20E4841840B4872
:1019300081790C4880F82410082007F035F800BFA2
:1019400000BF0EB010BD0000006400402E0000205B
:10195000B80800207E0E00200068004035000020FE
:10196000E0080020A60E002070477047704770B551
:10197000044694F82000012805D0606A40F4002055
:101980006062012070BD022084F820002068016898
:1019900021F00101016000F0B7FA054620684068B7
:1019A00010F0010F12D000F0AFFA401B0A2808D93E
:1019B000606A40F400306062052084F82000012055
:1019C00070BD2068406810F0010FECD1002060620B
:1019D00070BD7047704770477047704770477047D9
:1019E00090F83510022903D080214165012070470D
:1019F000052180F835100068016821F001010160BF
:101A0000002070472DE9F84304464FF00008CDF858
:101A1000008076484FF416510068B0FBF1F7A56DD1
:101A20002E6894F85C00082101FA00F0304211D0D1
:101A30002068026812F0040F0CD0026822F0040241
:101A4000026094F85C0001FA00F0A860606D40F05C
:101A50000100606594F85C004FF0010909FA00F09C
:101A6000304209D02168496911F0800F04D0A86084
:101A7000606D40F00200606594F85C1004208840BE
:101A8000304209D02168096811F0020F04D0A86023
:101A9000606D40F00400606594F85C101020884090
:101AA000304224D02168096811F0080F1FD0A860C7
:101AB0002068016811F4802F0DD0006810F4002F09
:101AC00004D0A16C99B12046884710E0216C71B117
:101AD000204688470BE0016811F4807F03D101683C
:101AE00021F008010160216C09B12046884794F873
:101AF0005C1020208840304251D02168096811F0E4
:101B0000100F4CD0A86094F8350005280DD020683F
:101B1000016811F4802F32D0006810F4002F29D012
:101B2000E16B59B32046884739E02068016821F00D
:101B3000160101602068416921F080014161206C3B
:101B400008B9A06C20B12068016821F0080101608B
:101B500094F85C003F2101FA00F0A86084F834801A
:101B600084F83590216D00293ED001B02046BDE8B3
:101B7000F0430847616C09B1204688470FE00168CF
:101B800011F4807F07D1016821F01001016084F811
:101B9000348084F83590E16B09B120468847606D48
:101BA000002821D0606D10F0010F15D0052084F8B9
:101BB00035002068016821F0010101600098401C97
:101BC0000090B84204D82068006810F0010FF5D1E9
:101BD00084F8348084F83590E16C002904D001B099
:101BE0002046BDE8F0430847BDE8F8831C0000200C
:101BF0002DE9F041044600F087F90546DCB10026E6
:101C000084F83460022084F835002068016821F0EF
:101C1000010101602068006810F0010F13D000F08E
:101C200073F9401B052809D920206065032084F83A
:101C30003500BDE8F0810120BDE8F0812068006832
:101C400010F0010FEBD121680868234A1040A36807
:101C50006268D4F810C01A43E36843EA0C031A43DD
:101C600063691A43A3691A43E3691A43236A1A434F
:101C70001043626A042A03D1236BE26A1A431043B9
:101C800008602068406920F00701606A40EA0105A9
:101C9000012704280ED1A06A0543E06A50B120460E
:101CA000FEF7D0FF30B14020606584F83570012028
:101CB000BDE8F081206845612046FEF7A9FF94F851
:101CC0005C103F2202FA01F18160666584F835708C
:101CD0000020BDE8F08100003F8010F02DE9F84FB2
:101CE0000022DFF80082DFF80092DFF800A24FF058
:101CF000030E0F27012303FA02F50B682B40AB42BA
:101D00007DD1D1F804C0BCF1020F02D0BCF1120F9A
:101D100012D14FEAD20C00EB8C0CDCF82060540797
:101D2000E40E07FA04FB26EA0B06D1F810B00BFA12
:101D300004F43443CCF8204006684FEA420C0EFA13
:101D40000CF4A64391F804B00BF0030B0BFA0CFB58
:101D50004BEA060606604E68012E05D0022E03D01F
:101D6000112E01D0122E11D18668A643D1F80CB0E5
:101D70000BFA0CFB4BEA06068660466826EA050568
:101D80000E79C6F30016964035434560C56825EACE
:101D900004048D6805FA0CFC4CEA040CC0F80CC075
:101DA000D1F804C01CF0805F7DD0D8F800C04CF49E
:101DB000804CC8F800C0D8F800C00CF4804CCDF8B6
:101DC00000C022F0030C0CF1804404F59834D4F8E0
:101DD00008C895072D0F07FA05F62CEA0606A0F1AC
:101DE000804CBCF5003C64D0A0F1804CBCF5013CBB
:101DF00062D0A0F1804CBCF5023C60D000E052E023
:101E0000A0F1804CBCF5033C5CD0A0F1804CBCF54B
:101E1000043C5AD0A0F1804CBCF5053C58D0A0F150
:101E2000804CBCF5063C56D0A0F1804CBCF5073C7C
:101E300054D04FF0080C0CFA05FC4CEA060CC4F820
:101E400008C8D9F800C02CEA030C4C6814F4803F91
:101E500001D04CEA030CC9F800C0254CD4F800C0EE
:101E60002CEA030C4D6815F4003F01D04CEA030C3A
:101E7000C4F800C0DAF800C02CEA030C4C6814F473
:101E8000801F01D04CEA030CCAF800C0194CD4F8EA
:101E900000C02CEA030C4D6815F4001F01D04CEA79
:101EA000030CC4F800C0521C102AFFF423AFBDE895
:101EB000F88F4FF0000CBEE74FF0010CBBE74FF07E
:101EC000020CB8E74FF0030CB5E74FF0040CB2E793
:101ED0004FF0050CAFE74FF0060CACE74FF0070CE6
:101EE000A9E7000044380240003C0140083C0140A2
:101EF000043C01400C3C0140002A01D08161704744
:101F00000904816170470000014880687047000043
:101F10009001002002488168027811448160704776
:101F20009001002010B50B48016841F40071016078
:101F3000016841F480610160016841F480710160D1
:101F4000032000F0BBF8002000F006F800F04AF88B
:101F5000002010BD003C024070B588B0044600254A
:101F6000002600222146362000F074F8362000F0CA
:101F700063F800BF002001901648006840F0100090
:101F8000144908600846006800F01000019000BF86
:101F900000BF02A903A800F05DF900F07FF9450039
:101FA0000D48B5FBF0F0461E0C480D49086040F2A4
:101FB000E7310B48C160466000210161816000F09B
:101FC000ECFD20B9064800F051FE08B070BD0120BC
:101FD000FBE700004038024040420F000010004084
:101FE000C00B002008B500BF002000901148006819
:101FF00040F480400F4908600846006800F48040C3
:10200000009000BF00BF00BF00200090081F0068C4
:1020100040F08050091F08600846006800F08050BA
:10202000009000BF00BF00220F21901E00F012F8A8
:1020300008BD00004438024000280ADB00F01F0100
:10204000012202FA01F14009800000F1E020C0F80D
:102050000011704710B4184B1B68C3F30223C3F17F
:10206000070CBCF1040F01D94FF0040C1C1D072C08
:1020700001D2002300E0DB1E012404FA0CFCACF1C9
:10208000010C0CEA0101994004FA03F35B1E1A40AB
:102090001143002806DB00F1E020090180F800145C
:1020A00010BC704700F00F0000F1E020090180F83B
:1020B000141D10BC704700000CED00E000F007009C
:1020C000064A11684FF6FF03194041EA002040F02C
:1020D000FD7040F080601060704700000CED00E083
:1020E0002DE9F04704460D46002C13D0DFF850913F
:1020F000D9F80000EFB200F00F00A8420DD289F825
:102100000070D9F8000000F00F00A84205D00120AF
:10211000BDE8F0870120BDE8F0872068494E10F047
:10212000020F14D010F0040F03D0306840F4E050D8
:102130003060207810F0080F03D0306840F4604021
:1021400030603068A16820F0F000084330602078EB
:1021500010F0010F3ED060683B49012808D00228EA
:102160000DD003280BD0096811F0020F28D00AE027
:10217000096811F4003F06D10120BDE8F087096825
:1021800011F0007F19D0316821F00301084330605D
:10219000FFF7BAFE80463068616800F00C00B0EBD3
:1021A000810F17D041F2883AFFF7AEFEA0EB08008E
:1021B000504508D90320BDE8F0870120BDE8F0872D
:1021C0000120BDE8F0873068616800F00C00B0EBDA
:1021D000810FE9D1D9F8000000F00F00A8420AD918
:1021E00089F80070D9F8000000F00F00A84202D072
:1021F0000120BDE8F087207810F0040F05D030688A
:10220000E16820F4E05008433060207810F0080FB7
:1022100006D03068216920F4604040EAC100306097
:1022200000F05CF83168094AC1F30311515CC84001
:10223000074908600020FFF78FFE0020BDE8F08707
:10224000003C02400838024000380240F8C900084B
:102250001C0000200F2202600B4A136803F00303E6
:102260004360136803F0F0038360136803F4E053E2
:10227000C360126802F46042D20802610348006839
:1022800000F00F000860704708380240003C024030
:1022900001480068704700001C00002000B5FFF7EF
:1022A000F7FF04490968044AC1F38221515CC84020
:1022B00000BD00000838024008CA000800B5FFF75A
:1022C000E7FF04490968044AC1F34231515CC84040
:1022D00000BD00000838024008CA000810B51748C1
:1022E000006810F00C01164816D0164B042912D0C5
:1022F000082911D1144C216801F03F02216811F422
:10230000800F0AD02068C0F38810A0FB03010023CF
:10231000FEF72AF809E0184610BD21680023C1F332
:102320008811A1FB0001FEF71FF82168C1F30141EC
:10233000491C4900B0FBF1F010BD00000838024014
:102340000024F400001BB700043802402DE9F84FC8
:102350000446002C10D02078FA4D10F0010F64D004
:10236000F948016801F00C0104290DD0006800F063
:102370000C00082803D011E00120BDE8F88FF348D5
:10238000006810F4800F09D0286810F4003F4CD08A
:102390006068002849D10120BDE8F88F6068B0F579
:1023A000803F14D0B0F5A02F16D0286820F48030DC
:1023B0002860286820F480202860606810B3FFF748
:1023C000A3FD0646286810F4003F0ED02DE02868D3
:1023D00040F480302860F0E7286840F480202860CE
:1023E000286840F480302860E7E7FFF78DFD801B08
:1023F000642802D90320BDE8F88F286810F4003F54
:10240000F3D012E0FFF780FD0646286810F4003F85
:102410000BD0FFF779FD801B642802D90320BDE8AB
:10242000F88F286810F4003FF3D12078C84F10F0DF
:10243000020F4FF0000856D0C348016811F00C0F8E
:1024400015D0006800F00C00082804D1BF480068CF
:1024500010F4800F0BD0E06878B301203860FFF7EC
:1024600053FD0646286810F0020F12D01DE02868C0
:1024700010F0020F05D0E068012802D00120BDE86D
:10248000F88F2868216920F0F80040EAC100286030
:1024900029E0FFF739FD801B022802D90320BDE89F
:1024A000F88F286810F0020FF3D02868216920F017
:1024B000F80040EAC100286015E0FFE7C7F8008097
:1024C000FFF722FD0646286810F0020F0BD0FFF739
:1024D0001BFD801B022802D90320BDE8F88F286865
:1024E00010F0020FF3D1207810F0080F33D0994884
:1024F000DFF864926169B9B101210160FFF704FD61
:102500000646D9F8000010F0020F24D1FFF7FCFCBA
:10251000801B022802D90320BDE8F88FD9F80000FB
:1025200010F0020FF2D016E0C0F80080FFF7ECFCCC
:102530000646D9F8000010F0020F0CD0FFF7E4FCBB
:10254000801B022802D90320BDE8F88FD9F80000CB
:1025500010F0020FF2D1207810F0040F73D04FF07A
:102560000009DFF8F8A1DAF8000010F0805F0CD164
:10257000DAF8000040F08050CAF80000DAF80000F5
:1025800000F0805000904FF00109DFF8D4B1DBF883
:10259000000010F4807F1AD1DBF8000040F4807056
:1025A000CBF80000FFF7B0FC0646DBF8000010F4A3
:1025B000807F0CD1FFF7A8FC801B022802D90320E2
:1025C000BDE8F88FDBF8000010F4807FF2D0A0683F
:1025D000DFF890B1012818D005281DD0DBF80000E5
:1025E00020F00100CBF80000DBF8000020F0040030
:1025F000CBF80000A06838B3FFF786FC0646DBF88E
:10260000000010F0020F14D03CE0DBF8000040F0B6
:102610000100CBF80000EDE7DBF8000040F004001B
:10262000CBF80000DBF8000040F00100CBF8000020
:10263000E0E7FFF769FC811B41F28830814204D951
:102640000320BDE8F88F26E005E0DBF8000010F07D
:10265000020FEED016E0FFF757FC0646DBF800004D
:1026600010F0020F0ED0FFF74FFC811B41F28830B3
:10267000814202D90320BDE8F88FDBF8000010F09A
:10268000020FF0D1B9F1010F05D1DAF8000020F006
:102690008050CAF80000A069E8B32B49096801F02E
:1026A0000C0108296BD0022810D0C7F86080FFF712
:1026B0002BFC0446286810F0007F5ED0FFF724FC56
:1026C000001B022855D90320BDE8F88FC7F86080A9
:1026D000FFF71AFC0646286810F0007F0BD0FFF7C2
:1026E00013FC801B022802D90320BDE8F88F28685C
:1026F00010F0007FF3D1216AE069A26A0843616AA1
:102700004FF0FF33890103EB520241EA02410843D3
:1027100094F82C1000E030E040EA01610B480160C1
:1027200001203866FFF7F0FB0446286810F0007FB0
:1027300023D1FFF7E9FB001B022815D90320BDE8D0
:10274000F88F1CE00038024008380240043802408C
:1027500000004742800E4742743802404038024031
:102760000070004070380240286810F0007FE0D010
:1027700003E0286810F0007FA0D10020DFE70120EF
:10278000DDE770B50446002C05D00025A56294F85D
:10279000510010B106E0012070BD84F85050204671
:1027A00000F030F8022084F851002068016821F020
:1027B00040010160A168606822690843E168114333
:1027C000084361690843218B01F400710843E16902
:1027D0000843216A0843A16A084321680860A06988
:1027E000042101EA1040616A0843216848602068BA
:1027F000C16921F40061C1616565012084F851005F
:10280000002070BD10B586B00446142101A8FDF764
:1028100099FE4849206888427ED100BF0020009080
:102820004548006840F48050434908600846006805
:1028300000F48050009000BF00BF00BF0020009057
:102840003D481438006840F002003B4914390860E4
:102850000846006800F00200009000BF00BF00BF03
:10286000002000900846006840F00100086008461B
:10287000006800F00100009000BF00BF1820019028
:10288000022002900120039003200490052005906F
:1028900001A92A48FFF722FA802001900220029025
:1028A00001200390032004900520059001A92448ED
:1028B000FFF714FA2348244908604FF0C0604860CD
:1028C000002121488160C1604FF4806101610021D5
:1028D00041618161C16101624162FFF789F908B11B
:1028E000FEF7F0F900BF1848E064846300BF1548A4
:1028F0001830164908604FF0C06048604021134806
:1029000081600021C1604FF480610161002141615B
:102910008161C161016200E00AE04162FFF768F98C
:1029200008B1FEF7CFF900BF0848A064846300BF78
:1029300006B010BD0030014044380240000402409F
:10294000000002404064024060090020C0090020ED
:102950002DE9F84F04460A9E8A4693461F460125F4
:102960004FF0000894F8500001280ED0012084F8A0
:102970005000FFF7C9FA814694F8510061680128B8
:102980000ED0B1F5827F07D102E00220BDE8F88FBA
:10299000A16809B9042803D04FF0020800F0CBB8B1
:1029A000BAF1000F1DD0BBF1000F1AD0380018D0BB
:1029B00094F85100042802D0052084F8510000202A
:1029C0006065C4F838B0E787A787C4F830A0E78609
:1029D000A786206460642068016811F0400F03D06E
:1029E00006E04FF00108A6E0016841F040010160F7
:1029F000E068B0F5006F05D06068002848D0012F6E
:102A000046D07EE0606808B1012F3AD1206B216882
:102A10000088C860206B801C2063E08E401EE0862A
:102A20002FE02068816811F0020F0DD0E18E59B1BE
:102A3000012D09D1216B0988C160206B801C2063A6
:102A4000E08E401EE08600252068816811F0010FAD
:102A50000BD0E18F49B1C068A16B0880A06B801CCE
:102A6000A063E08F401EE0870125FFF74DFAA0EB41
:102A70000900B04205D3B6F1FF3F02D04FF0030882
:102A800059E0E08E0028CCD1E08F0028C9D13EE08B
:102A9000206B216800780873206B401C2063E08E57
:102AA000401EE0862DE02068816811F0020F0DD0F5
:102AB000E18E59B1012D09D1216B09780173206B89
:102AC000401C2063E08E401EE0860025206881685F
:102AD00011F0010F0BD0E18F49B1C068A16B0870F4
:102AE000A06B401CA063E08F401EE0870125FFF72C
:102AF0000BFAA0EB0900B04202D3B6F1FF3F11D1AF
:102B000086B1E08E0028CED1E08F0028CBD14A4696
:102B10003146204601F0C4FD38B14FF001082020B5
:102B2000606508E04FF0030805E0A06818B9206868
:102B3000C16880680090012084F85100002084F86A
:102B400050004046BDE8F88F7047704730B490F8A9
:102B50003C20012A1ED0012480F83C40022280F84B
:102B60003D200268D2F804C093682CF0700C0D6808
:102B700045EA0C0C23F0800349681943C2F804C0ED
:102B80000268916080F83D40002180F83C1030BC24
:102B90000020704730BC0220704710B50446002C5E
:102BA00003D094F83D0010B107E0012010BD0020D3
:102BB00084F83C00204600F00DF8022084F83D0027
:102BC000211D206801F0A4FE012084F83D000020B2
:102BD00010BD000038B504461849206888420FD15E
:102BE00000BF002000901648006840F0040014491F
:102BF00008600846006800F00400009000BF1BE079
:102C000010492068884217D100BF002000900C486E
:102C1000006840F008000A4908600846006800F0B3
:102C20000800009000BF00BF002205213220FFF7FE
:102C300011FA3220FFF700FA38BD0000000800400A
:102C400040380240000C0040022180F83D1001682D
:102C50008A6802F00702062A03D00A6842F00102DD
:102C60000A60012180F83D10002070470168CA68A1
:102C700042F00102CA600068816801F0070106297C
:102C800003D0016841F0010101600020704770B578
:102C9000044694F83C00012818D0012584F83C50E3
:102CA000022084F83D002068826822F0770222F436
:102CB0007F4282600868502832D00EDC20284DD038
:102CC00006DC00284AD010284DD147E0022070BD14
:102CD000302843D0402846D136E060282AD07028DA
:102CE00006D0B0F5805F3ED0B0F5005F3BD10BE081
:102CF000CB684A688968206801F07FFE2068816897
:102D000041F0770181602EE0CB684A6889682068CD
:102D100001F073FE2068816841F48041816022E007
:102D2000CA684968206801F057FF5021206801F007
:102D30006FFE18E0CA684968206801F060FF6021F2
:102D4000206801F065FE0EE0CA684968206801F05D
:102D500043FF4021206801F05BFE04E02268014649
:102D6000104601F055FE84F83D50002084F83C00E8
:102D700070BD704770B50446206801694FF00005CA
:102D800011F0020F17D0C16811F0020F13D0E91E25
:102D90000161012020772068806910F0030F03D0C3
:102DA0002046FFF7E6FF05E0204600F0CFF820467A
:102DB00000F058F925772068016911F0040F18D048
:102DC000C16811F0040F14D06FF0040101610220FA
:102DD00020772068806910F4407F03D02046FFF7F9
:102DE000C8FF05E0204600F0B1F8204600F03AF9AF
:102DF00025772068016911F0080F18D0C16811F01B
:102E0000080F14D06FF008010161042020772068BA
:102E1000C06910F0030F03D02046FFF7AAFF05E0BA
:102E2000204600F093F8204600F01CF92577206832
:102E3000016911F0100F18D0C16811F0100F14D0F3
:102E40006FF010010161082020772068C06910F43C
:102E5000407F03D02046FFF78CFF05E0204600F0BE
:102E600075F8204600F0FEF825772068016911F01A
:102E7000010F09D0C16811F0010F05D06FF00101F9
:102E80000161204600F010F92068016911F0800FFF
:102E900009D0C16811F0800F05D06FF08001016189
:102EA0002046FFF751FE2068016911F0400F09D05C
:102EB000C16811F0400F05D06FF04001016120465C
:102EC00000F0FEF82068016911F0200F0BD0C168F6
:102ED00011F0200F07D06FF0200101612046BDE8FE
:102EE0007040FFF732BE70BD10B586B004461421A5
:102EF00001A8FDF727FB1249206888421DD100BFB9
:102F0000002000900F48006840F008000D4908605C
:102F10000846006800F00800009000BF00BF4FF4B2
:102F20008040019002200290002003900490022033
:102F3000059001A90448FEF7D1FE06B010BD0000BF
:102F40000008004030380240000C0240704770B565
:102F500004460D4694F83C0001280DD0012684F863
:102F60003C60022084F83D0042B1042A1AD0082AAD
:102F70002DD00C2A53D13EE0022070BD2946206896
:102F800001F04EFD2068816941F0080181612068EF
:102F9000816921F004018161206881692A691143F6
:102FA00081613CE02946206801F072FD206881695A
:102FB00041F4006181612068816921F4806181614F
:102FC000206881692A6941EA0221816127E0294656
:102FD000206801F099FD2068C16941F00801C161D4
:102FE0002068C16921F00401C1612068C1692A69B2
:102FF0001143C16113E02946206801F0C1FD20683A
:10300000C16941F40061C1612068C16921F4806136
:10301000C1612068C1692A6941EA0221C16184F85D
:103020003D60002084F83C0070BD10B50446002CC3
:1030300003D094F83D0010B107E0012010BD00203E
:1030400084F83C00204600F00CF8022084F83D0093
:10305000211D206801F05CFC012084F83D00002067
:1030600010BD7047704710B504460122206801F07A
:10307000B5FC2168A1F18040B0F5803004D0A1F109
:103080008040B0F5823003D1486C40F40040486481
:103090002068816801F00701062903D0016841F02A
:1030A00001010160002010BD10B5044603492068ED
:1030B000884201D1FEF72EFF10BD00000010004035
:1030C0007047704710B5044622681068D16852698D
:1030D00000F00F03002B0AD110F0200F07D011F0E1
:1030E000200F04D02046BDE8104001F0BDBD002BEC
:1030F0006BD002F0010301F4907C53EA0C0364D01E
:1031000010F0010F06D011F4807F03D0E36B43F081
:103110000103E36310F0040F06D012F0010F03D097
:10312000E36B43F00203E36310F0020F06D012F0EA
:10313000010F03D0E36B43F00403E36310F0080FC7
:1031400006D012F0010F03D0E26B42F00802E263F6
:10315000E26B002A2ED010F0200F05D011F0200FC6
:1031600002D0204601F080FD20684069C0F3801045
:10317000E16B11F0080F00D108B3204601F059FDB2
:103180002068416911F0400F15D0416921F04001DC
:103190004161606B58B118490165606BFEF720FC16
:1031A000002807D0606B016DBDE81040084720463D
:1031B000FFF787FF10BD2046FFF783FF10BD2046B5
:1031C000FFF77FFF0020E06310BD10F0800F07D0F5
:1031D00011F0800F04D02046BDE8104001F032BF4E
:1031E00010F0400FF0D011F0400FEDD02046BDE8B8
:1031F000104001F02CBD0000234C000870B50446BF
:10320000002C04D094F83900002510B106E001200C
:1032100070BD84F83850204600F022F8242084F84D
:1032200039002068C16821F40051C160204601F0D6
:1032300069FD2068016921F49041016120684169BC
:1032400021F02A0141612068C16841F40051C16048
:10325000E563202084F8390084F83A00002070BD2E
:1032600010B586B00446142101A8FDF76BF97B491F
:103270002068884256D100BF00200090784800683E
:1032800040F01000764908600846006800F0100021
:10329000009000BF00BF00BF0020009070481438AD
:1032A000006840F002006E49143908600846006862
:1032B00000F00200009000BF00BF00BF002000909F
:1032C0000846006840F0010008600846006800F009
:1032D0000100009000BF00BF8020019002200290FA
:1032E00001200390032004900720059001A95D4868
:1032F000FEF7F4FC4FF400700190022002900120D0
:103300000390032004900720059001A95648FEF77A
:10331000E5FC002205212520FEF79CFE2520FEF776
:103320008BFE99E051492068884258D100BF0020A7
:1033300000904B48001F006840F480204849091F56
:1033400008600846006800F48020009000BF00BFBD
:1033500000BF0020009042481438006840F004008C
:103360003F49143908600846006800F004000090E6
:1033700000BF00BF4FF44060019002200290012086
:103380000390032004900720059001A93848FEF718
:10339000A5FC3848384908604FF0006048600021BB
:1033A00035488160C1604FF4806101610021416155
:1033B0008161C16101624162FEF71AFC08B1FDF74B
:1033C00081FC00BF2C486063846300BF002205219C
:1033D0002720FEF73FFE2720FEF72EFE3CE0274980
:1033E0002068884238D100BF002000901C48006847
:1033F00040F020001A4908600846006800F02000EC
:10340000009000BF00BF00BF002000901448143897
:10341000006840F04000124914390860084600680E
:1034200000F04000009000BF00BF4FF484400190C6
:1034300002200290012003900320049008200590B0
:1034400001A90F48FEF74AFC002205214720FEF79C
:1034500001FE4720FEF7F0FD06B010BD0010014050
:10346000443802400004024000000240004800408E
:103470000008024028600240600B00200014014058
:103480000018024070472DE9F84304460D46914666
:103490001E4694F83900202802D00220BDE8F883A7
:1034A0004DB3B9F1000F26D094F83800012825D08B
:1034B000012084F838000027E763212084F83900D0
:1034C000FEF722FD8046A4F82490A4F82690E08C14
:1034D000A0B3E08C401EE084A068B0F5805F10D0FF
:1034E0004346002280212046009601F0DEFDF0B127
:1034F0000320BDE8F8830120BDE8F8830220BDE881
:10350000F8834346002280212046009601F0CDFD3D
:1035100010B10320BDE8F88328882168C0F30800B3
:103520004860206908B16D1C05E0AD1C03E021680E
:1035300015F8010B4860E08C0028CAD143460022F0
:1035400040212046009601F0B0FD10B10320BDE8F7
:10355000F883202084F8390084F838700020BDE812
:10356000F883704700BFFEE702E0642005F060FECC
:10357000FDF77BF90028F8D1344AA2F10C01101DA7
:10358000FDF782F9DFED320A9FED320A324A00215F
:10359000324801F005F83248FDF7E2F8314805F00D
:1035A0008BFD51E0294AA2F10C01101DFDF76CF9C9
:1035B0002C492648001D05F0D9FD2448103890ED0F
:1035C000033AF0EE432A90ED023AB0EE432A90ED32
:1035D000013AF0EE431A90ED073AB0EE431A90ED3F
:1035E000063AF0EE430A90ED053AB0EE430A1C4865
:1035F00000F0A0FA154B1C331A1F111F184805F0D4
:10360000CDFC002011E01149143101EB800191ED56
:10361000000ADFED150A20EE200A0C49143101EBF7
:10362000800181ED000A411CC8B20328EBDB07488A
:10363000103890ED0A0AFFEE000A20EE200A80ED15
:103640000A0A012005F0F4FDACE70000780D002027
:103650000080894500A08C4548CA0008980D0020CC
:10366000F80D0020140E0020E12E654210B50D4823
:103670000D4908600320486000210B488160C1604B
:103680004FF430210161002141610176417681765C
:10369000C17601774177FDF764FE08B1FDF712FBB3
:1036A00010BD000000640040B808002010B50D48AF
:1036B0000D4908600320486000210B488160C1600B
:1036C0004FF430210161002141610176417681761C
:1036D000C17601774177FDF744FE08B1FDF7F2FAB4
:1036E00010BD000000680040E008002008B500BFE1
:1036F000002000901A48006840F4800018490860D3
:103700000846006800F48000009000BF00BF00BFC2
:10371000002000900846006840F400100860084649
:10372000006800F40010009000BF00BF00220521D7
:103730000C20FEF78FFC0C20FEF77EFC00220521FA
:103740003A20FEF787FC3A20FEF776FC002205219E
:103750003B20FEF77FFC3B20FEF76EFC08BD00001F
:103760003038024000B5A3B006F0F2FD23490860EE
:103770000846006808B923B000BD2148FFF776FA73
:103780001C2220491CA8FCF7ABFE00211CA805F058
:103790005CFD1D4908601C221A491C3115A8FCF764
:1037A0009FFE002115A805F050FD184908601C2255
:1037B000144938310EA8FCF793FE00210EA805F03D
:1037C00044FD134908601C220E49543107A8FCF738
:1037D00087FE002107A805F038FD0E4908601C226D
:1037E000084970316846FCF77BFE0021684605F009
:1037F0002CFD0949086000BFBDE700000000002063
:10380000600A00206CC900080400002008000020A5
:103810000C000020100000201400002000B587B02C
:10382000142102A8FCF78EFE00BF002001903D4845
:10383000006840F002003B4908600846006800F05C
:103840000200019000BF00BF00BF002001900846A9
:10385000006840F0400008600846006800F0400042
:10386000019000BF00BF00BF002001900846006823
:1038700040F0010008600846006800F00100019077
:1038800000BF00BF00BF002001900846006840F064
:10389000080008600846006800F00800019000BFBA
:1038A00000BF00BF002001900846006840F00400FF
:1038B00008600846006800F00400019000BF00BFE7
:1038C00000BF002001900846006840F080000860BA
:1038D0000846006800F08000019000BF00BF012290
:1038E00010211148FEF708FB012211460F48FEF790
:1038F00003FB10200290012003900020049002207E
:10390000059002A90848FEF7E9F90120029003900A
:10391000002004900220059002A90448FEF7DEF979
:1039200007B000BD303802400000024000040240F1
:1039300010B50F480F4908604FF4827048600021AD
:103940000C488160C160022101610121416149028D
:1039500081613821C16100210162416281620A21D5
:10396000C162FEF70EFF08B1FDF7ACF910BD000013
:10397000003001400809002000B58DB000200990FA
:103980000A900B900C90079008901C216846FCF759
:10399000D9FD2048204908600020486000211E48C9
:1039A000816045F20721C160002101618161FFF75B
:1039B000F4F808B1FDF786F94FF48050099009A991
:1039C0001548FFF764F908B1FDF77CF91248FFF7D5
:1039D0002CFB08B1FDF776F900200790089007A9A5
:1039E0000D48FFF7B3F808B1FDF76CF960200090BF
:1039F0000020019002900490082269460648FFF7D3
:103A0000A6FA08B1FDF75EF90348FFF76DFA0DB0AD
:103A100000BD000000080040200A002000B587B06B
:103A200000200390049005900690019002901548A4
:103A30001549086042F2D0004860002112488160B8
:103A400040F28111C1600021016180218161FFF795
:103A5000A4F808B1FDF736F94FF48050039003A99C
:103A60000948FFF714F908B1FDF72CF9002001907F
:103A7000029001A90448FFF769F808B1FDF722F99F
:103A800007B000BD000C0040600A002010B50B48D4
:103A90000B4908604FF4E13048600021084881601C
:103AA000C16001610C21416100218161C161FFF7A9
:103AB000A5FB08B1FDF706F910BD0000001001409C
:103AC000A00A002010B50A480A4908600A48486060
:103AD000002108488160C16001610C214161002121
:103AE0008161C161FFF78AFB08B1FDF7EBF810BDFA
:103AF00000480040E00A0020A086010010B50B48F5
:103B00000B4908604FF4E1304860002108488160AB
:103B1000C16001610C21416100218161C161FFF738
:103B20006DFB08B1FDF7CEF810BD00000014014098
:103B3000200B002000B52DED068B0246B0EE403A7A
:103B4000F0EE603AB0EE414AF0EE615AF0EE424AD1
:103B5000B0EE625AF5EEC05AF1EE10FA09D1F5EE68
:103B6000C04AF1EE10FA04D1B5EEC05AF1EE10FAE7
:103B70007ED065EEA50A44EEA40A45EE050AB0EE35
:103B8000600A05F00DFBF0EE402A25EEA20AF0EEE9
:103B9000405A24EEA20AF0EE404A25EE220AB0EE88
:103BA000405A92ED010AD2ED030A20EE200AD2ED2E
:103BB000000A92ED021AF0EE408A40EEC18A92EDC0
:103BC000000AD2ED010A20EE200AD2ED020A92ED9F
:103BD000031AF0EE409A40EE819AD2ED000A92ED7F
:103BE000001AB6EE000A10EE810AD2ED030A92ED39
:103BF000031AB0EE409A00EE819A24EE890AF0EEA4
:103C0000407A45EE697A25EE280AB0EE40AA05EE24
:103C1000C9AA25EEA90AB0EE408A04EEE88A7C48DB
:103C200090ED000AB5EEC00AF1EE10FA40DD90ED1D
:103C3000000A60EE270A774890ED000A9FED761A99
:103C400000EE810A80ED000A714890ED000A60EEF6
:103C50000A0A724890ED000A9FED6F1A00EE810A81
:103C600080ED000A6A4890ED000A60EE080A00E064
:103C700046E06B4890ED000A9FED671A00EE810A5E
:103C800080ED000A634890ED000A33EE000AB0EEC2
:103C9000403A624890ED000A33EE800AF0EE403A76
:103CA0005F4890ED000A34EE000AB0EE404A0EE0A4
:103CB0009FED5C0A574880ED000A9FED5A0A57486D
:103CC00080ED000A9FED570A554880ED000A5648DE
:103CD000D0ED000AB0EE430A00EEA70AB0EE403A7B
:103CE000D0ED000AB0EE630A00EE8A0AF0EE403A28
:103CF000D0ED000AB0EE440A00EE880AB0EE404A69
:103D00009FED4A0A23EE000AB0EE403A9FED470AC3
:103D100023EE800AF0EE403A9FED440A24EE000ABA
:103D2000B0EE404A92ED006AD2ED016A92ED027A5D
:103D3000B1EE660A20EE030A07EE630AD2ED030A2B
:103D400000EEC40AD2ED000A30EE200A82ED000A2D
:103D500026EE030A07EE040AD2ED030A00EEE30A98
:103D6000D2ED010A30EE200A82ED010A26EE230A86
:103D700006EEC40AD2ED030A00EE830AD2ED020A6F
:103D800030EE200A82ED020A26EE040A06EEA30AAD
:103D900007EE430AD2ED030A30EE200A82ED030A51
:103DA000D2ED000A60EEA00A92ED011AD2ED011ADE
:103DB00041EE210A92ED021AD2ED021A41EE210AD9
:103DC00092ED031AD2ED031A41EE210AB0EE600A19
:103DD00005F0E6F9F0EE402A92ED000A20EE220A04
:103DE00082ED000A92ED010A20EE220A82ED010A1C
:103DF00092ED020A20EE220A82ED020A92ED030AF7
:103E000020EE220A82ED030ABDEC068B00BD000005
:103E100080010020840100206F12833A8801002075
:103E20008C010020000000007C0100206F12033A8A
:103E300000BFFEE700BFFEE770B52DED028B044624
:103E4000B0EE408AF0EE608A0D4624B99FEDAD0ACF
:103E5000BDEC028B70BDD4F83E00C4F84200D4F82B
:103E60003A00C4F83E0018EE900AC4F8160018EEA6
:103E7000100AC4F81A00BCEEC80A10EE102A91B25B
:103E8000BCEEE80A10EE102A90B22A4605F010F8AF
:103E900010EE100AC4F83A00207800287ED154F8B9
:103EA000020F00EE100AA06B00EE900A20EE200A2E
:103EB00010EE100A2062606A00EE100A606800EEE0
:103EC000900AA06B01EE100A00EE810A10EE100AB3
:103ED0006062A41ED4F83200C4F83600D4F82E0074
:103EE000C4F83200D4F83A0000EE100AD4F83E00CC
:103EF00000EE900A30EE600A10EE100A0A3460629A
:103F0000206800EE100A606A00EE900A20EE200A97
:103F100010EE100A2062E06900EE100AA0680A3C68
:103F200000EE900AB4EEE00AF1EE10FA04DDD4F8E7
:103F30001200C4F8260018E0D4F8260000EE100A9B
:103F4000D4F8120000EE900AF1EE600AB4EEE00A36
:103F5000F1EE10FA09D2D4F8120000EE100AB1EE18
:103F6000400A10EE100AC4F826000E34606900EE14
:103F7000100AA06900EE900A70EE200AE06900EED7
:103F8000100A30EE800A10EE100A2061206900EE5F
:103F9000100A54F80E0900EE900A00E023E0B4EE97
:103FA000E00AF1EE10FA04DDD4F80E00C4F81E00A9
:103FB000A3E0D4F81E0000EE100AD4F80E0000EEC4
:103FC000900AF1EE600AB4EEE00AF1EE10FA09D2BE
:103FD000D4F80E0000EE100AB1EE400A10EE100AFE
:103FE000C4F81E0089E0207801286CD1D4F83A008A
:103FF00000EE100AD4F83E0000EE900A70EE600A5F
:1040000054F8020F00EE100A20EE800A10EE100A9B
:104010002062606800EE100AA06B00EE900A20EEAD
:10402000200A10EE100A6062A41ED4F83200C4F810
:104030003600D4F82E00C4F83200D4F83A0000EE6E
:10404000100AD4F83E0000EE900AB0EE001A01EE1D
:10405000600AD4F8420000EE900A30EE200A10EE1A
:10406000100A0A346062206800EE100A606A00EEEE
:10407000900A20EE200A10EE100A2062A06900EEDD
:10408000100AE06900EE900A70EE200A206A00EE45
:10409000100A70EE800A606900EE100A30EE800AA5
:1040A00010EE100A6061606900EE100A60680A3C58
:1040B00000EE900AB4EEE00AF1EE10FA04DDD4F856
:1040C0000E00C4F81E0018E0D4F81E0000EE100A1E
:1040D000D4F80E0000EE900AF1EE600AB4EEE00AA9
:1040E000F1EE10FA09D2D4F80E0000EE100AB1EE8B
:1040F000400A10EE100AC4F81E00D4F81E0000EEAC
:10410000100AA5E600000000B0EE401A002110B928
:104110009FEDFE0A704742786ABBD0F83A2000EE65
:10412000102ADFEDFB1AB4EEE10AF1EE10FA0BDD16
:10413000D0F83A2000EE102ADFEDF61A30EE610AD0
:1041400010EE102AC0F83A20D0F83A2000EE102ADB
:10415000DFEDF11AB4EEE10AF1EE10FA0BD2D0F86D
:104160003A2000EE102ADFEDEB1A30EE210A10EEB5
:10417000102AC0F83A20D0F83E20C0F84220D0F8EB
:104180003A20C0F83E2010EE902AC0F8162011EE1A
:10419000102AC0F81A20C1F1010200EE102AB8EE70
:1041A000C00A70EEC11A20EE212AD0F83E2001EE9E
:1041B000902A00EE101AF8EE402AB0EE420A02EE03
:1041C000A10A10EE102AC0F83A200278002A7CD109
:1041D00050F8022F00EE102A826B01EE902A20EE9A
:1041E000210A10EE102A0262426A00EE102A42688A
:1041F00001EE902A826B02EE102A01EE820A10EE86
:10420000102A4262801ED0F83220C0F83620D0F842
:104210002E20C0F83220D0F83A2000EE102AD0F834
:104220003E2001EE902A30EE610A10EE102A0A308C
:104230004262026800EE102A426A01EE902A20EEE5
:10424000210A10EE102A0262C26900EE102A82686A
:104250000A3801EE902AB4EEE10AF1EE10FA04DD1C
:10426000D0F81220C0F8262018E0D0F8262000EE62
:10427000102AD0F8122001EE902AF1EE611AB4EE65
:10428000E10AF1EE10FA09D2D0F8122000EE102A5D
:10429000B1EE400A10EE102AC0F826200E30426916
:1042A00000EE102A826901EE902A70EE211AC2698E
:1042B00000EE102A31EE800A10EE102A0261026927
:1042C00000EE102A50F80E2900E025E001EE902AB9
:1042D000B4EEE10AF1EE10FA04DDD0F80E20C0F8D9
:1042E0001E2058E1D0F81E2000EE102AD0F80E2033
:1042F00001EE902AF1EE611AB4EEE10AF1EE10FA45
:10430000EFD2D0F80E2000EE102AB1EE400A10EEE7
:10431000102AC0F81E203EE10278012A7DD1D0F893
:104320003A2000EE102AD0F83E2001EE902A70EEDE
:10433000611A50F8022F00EE102A21EE800A10EECA
:10434000102A0262426800EE102A826B01EE902A67
:1043500020EE210A10EE102A4262801ED0F8322090
:10436000C0F83620D0F82E20C0F83220D0F83A20FD
:1043700000EE102AD0F83E2001EE902AB0EE002A7E
:1043800002EE610AD0F8422001EE902A30EE210AB6
:1043900010EE102A0A304262026800EE102A426AC9
:1043A00001EE902A20EE210A10EE102A02628269A4
:1043B00000EE102AC26901EE902A70EE211A026AFC
:1043C00000EE102A71EE801A426900EE102A31EEDA
:1043D000800A10EE102A4261426900EE102A4268FB
:1043E0000A3801EE902AB4EEE10AF1EE10FA04DD8B
:1043F000D0F80E20C0F81E20CDE0D0F81E2000EE30
:10440000102AD0F80E2001EE902AF1EE611AB4EED7
:10441000E10AF1EE10FA0BD200E00AE0D0F80E202B
:1044200000EE102AB1EE400A10EE102AC0F81E204D
:10443000B1E00278022A68D1D0F83A2000EE102AC2
:10444000D0F83E2001EE902A70EE611A50F8022F4B
:1044500000EE102A21EE800A10EE102A0262426855
:1044600000EE102A826B01EE902A20EE210A10EE57
:10447000102A4262801ED0F83220C0F83620D0F8D0
:104480002E20C0F83220D0F83A2000EE102AD0F8C2
:104490003E2001EE902A30EE610A10EE102A0A301A
:1044A0004262026800EE102A426A01EE902A20EE73
:1044B000210A10EE102A0262C26900EE102A8268F8
:1044C0000A3801EE902AB4EEE10AF1EE10FA04DDAA
:1044D000D0F81220C0F8262022E0D0F8262000EEE6
:1044E000102AD0F8122001EE902AF1EE611AB4EEF3
:1044F000E10AF1EE10FA13D2D0F8122000EE102AE1
:10450000B1EE400A10EE102A08E044E0000000007E
:10451000000034430000B443000034C3C0F8262038
:104520000E30426900EE102A826901EE902A70EE88
:10453000211AC26900EE102A31EE800A10EE102A0C
:104540000261026900EE102A50F80E2901EE902A4D
:10455000B4EEE10AF1EE10FA04DDD0F80E20C0F856
:104560001E2018E0D0F81E2000EE102AD0F80E20F1
:1045700001EE902AF1EE611AB4EEE10AF1EE10FAC2
:1045800009D2D0F80E2000EE102AB1EE400A10EE4B
:10459000102AC0F81E20D0F81E2000EE102AB9E51F
:1045A00010B500B102B910BD801C00F8021C1368E0
:1045B0000360536843609368836010EE103AC360F1
:1045C00010EE903A0361801E9FED0D1A11EE103A25
:1045D000C0F83630C0F832301E3003619FED081A43
:1045E00011EE103A0360C360836043601E38C0F868
:1045F0004230C0F83E30C0F83A3000BFD3E7000088
:104600000000000010B5234B1B685B6943F04003BA
:10461000204C246863611F4B1B68DB6843F0100368
:104620001C4C2468E3601C4B1B681B6823F00103CF
:10463000194C2468236007E0174B1B681B6823F0A4
:104640000103154C24682360134B1B681B6803F09F
:104650000103002BF0D1114B0F4C2468A3600E4BCB
:104660001B68D8600C4B1B6819610B4B1B685A60A8
:10467000094B1B681B6843F48023074C24682360A4
:10468000054B1B681B6843F00103034C246823603F
:1046900010BD0000E00A0020600B0020044800402C
:1046A00010B582B004461548DFF854C00068B0FB6E
:1046B000FCF04FF47A7C00FB0CF001906068B0F5E0
:1046C000827F0ED10B46009200228021204600F00E
:1046D00019F880B1606D40F02000606502B00320E1
:1046E00010BD019838B10198401E01902068806883
:1046F00010F0800FF5D102B0002010BD1C0000208A
:1047000000366E012DE9F0410446069E88461746A4
:104710001D462068806838EA000016D00020B842A4
:1047200010D0B5F1FF3F05D0FDF7EEFB801BA8428E
:104730000DD265B12068806838EA000033D00020CF
:10474000B842EED10020BDE8F0810120E7E7206803
:10475000416821F0E00141606068B0F5827F0BD1D3
:10476000A068B0F5004F02D0B0F5806F04D120688A
:10477000016821F040010160A06AB0F5005F09D135
:104780002068016821F4005101602068016841F44B
:1047900000510160012084F85100002084F850008D
:1047A0000320BDE8F0810120CAE7000010B55020C9
:1047B00080F31188BFF34F8FBFF36F8F06F04CF972
:1047C00018B104494FF080500860002080F3118830
:1047D00010BD000004ED00E000B593B0302107A843
:1047E000FBF7B0FE142102A8FBF7ACFE00BF0020CF
:1047F00001902448006840F0805022490860084633
:10480000006800F08050019000BF00BF00BF002092
:1048100001901D48006840F480401B49086008462C
:10482000006800F48040019000BF00BF01200790A5
:104830000004089002200D9041050E9106210F9171
:10484000A8211091022111910721129107A8FDF7CB
:104850007DFD08B1FCF736FA0F200290022003908C
:10486000002004904FF4A05005904FF48050069023
:10487000052102A8FDF734FC08B1FCF723FA13B0B8
:1048800000BD00004038024000700040144800683D
:1048900040F47000124908601248006840F00100BE
:1048A0001049086000200F49083108600D48006871
:1048B0000D4908400B4908600C48091D0860081F95
:1048C000006820F48020091F0860002005490C3191
:1048D00008604FF0006002498039086070470000AE
:1048E00088ED00E000380240FFFFF6FE10300024A3
:1048F00010B50248FEF73EFA10BD0000600A002025
:1049000010B50248FEF736FA10BD0000C00B0020BB
:10491000F0B402682C4B2D4C2D4D2E4EDFF8B8C054
:1049200098420AD0B0F1804F07D0A04205D0A842EB
:1049300003D0B04201D0604503D122F070024F682D
:104940003A43984228D0B0F1804F25D0A04223D0DE
:10495000A84221D0B0421FD060451DD0A0F18044B4
:10496000B4F5A03418D0A0F18044B4F5A23413D02B
:10497000A0F18044B4F5A4340ED0A0F18044B4F585
:10498000C05409D0A0F18044B4F5E05404D0A0F1A3
:104990008044B4F5005403D122F44072CC68224321
:1049A0004C6922F08002224302608A68C2620A686F
:1049B0008262984201D0604501D1096901630121F9
:1049C0004161F0BC7047000000000140000400405D
:1049D00000080040000C00400004014001F01F01ED
:1049E00001238B40D0F820C02CEA03030362036A42
:1049F00002FA01F1194301627047D0F808C02CF4A3
:104A00007F4C42EA0322114341EA0C018160704766
:104A1000826822F07002114341F007018160704703
:104A200070B4026A22F001020262036A4268D0F89E
:104A300018C02CF0700C2CF0030C0C6844EA0C0C21
:104A400023F002038C6823430F4C104DA04201D089
:104A5000A84205D123F00803CE68334323F00403B2
:104A6000A04201D0A84207D122F4807222F4007241
:104A70004C6922438C6922434260C0F818C04968DF
:104A80004163036270BC70470000014000040140B4
:104A900070B4026A22F010020262036A4268D0F81F
:104AA00018C02CF4E04C2CF4407C0C684CEA042C2C
:104AB00023F020038C6843EA0413114C114DA042EB
:104AC00001D0A84206D123F08003CE6843EA061342
:104AD00023F04003A04201D0A84209D122F4806211
:104AE00022F400624C6942EA84028C6942EA840240
:104AF0004260C0F818C049688163036270BC7047A7
:104B0000000001400004014070B4026A22F4807287
:104B10000262036A4268D0F81CC02CF0700C2CF0C2
:104B2000030C0C6844EA0C0C23F400738C6843EA11
:104B30000423114C114DA04201D0A84206D123F408
:104B40000063CE6843EA062323F48063A04201D0C9
:104B5000A84209D122F4805222F400524C6942EA60
:104B600004128C6942EA04124260C0F81CC0496811
:104B7000C163036270BC7047000001400004014043
:104B800010B4026A22F480520262D0F820C0426857
:104B9000C36923F4E04323F440730C6843EA04231D
:104BA0002CF4005C8C684CEA043CA0F18044B4F521
:104BB000803404D0A0F18044B4F5823404D122F4CE
:104BC00080424C6942EA84124260C36149680164D0
:104BD000C0F820C010BC7047036AD0F820C02CF089
:104BE000010CC0F820C0D0F818C02CF0F00C4CEA32
:104BF000021223F00A031943826101627047036ABB
:104C000023F010030362D0F818C0036A2CF4704C30
:104C10004CEA023223F0A00343EA011182610162EF
:104C2000704710B5806B0021C185C184FEF749FA39
:104C300010BD0168CA6822F49072CA6001684A69AE
:104C400022F001024A61202180F83A10704710B525
:104C50000168CA6822F04002CA60202180F8391039
:104C6000FEF77FFC002010BD10B590F83A10222905
:104C700001D0022010BD8168B1F5805F11D00169BB
:104C800019B30168496801F07F02816A4B1C836295
:104C90000A70C18D491E0904090CC1851CD0002071
:104CA00010BD816A02693AB102685268D2B20A80C4
:104CB000816A491C8162ECE702685268C2F308020B
:104CC0000A80816A891C8162E3E701684A68816A17
:104CD0004B1C83620A70DCE70168CA6822F020027C
:104CE000CA600168CA6822F48072CA6001684A69B1
:104CF00022F001024A61202180F83A10FEF7C2FB3F
:104D0000002010BD2DE9F041044620680169E268E9
:104D100021F44051114301612169A068E26908430F
:104D20006169114301432068C26822F4037222F4CE
:104D300014421143C16020684169A26921F44071A5
:104D400011434161E069BC4ABC49BD4D3226B0F512
:104D5000004F5ED02068884202D0904240F012811D
:104D6000FDF7ACFA00EBC00101EB001061688900AF
:104D7000B0FBF1F7FDF7A2FA00EBC00101EB001068
:104D800061688900B0FBF1F0A5FB001040096FF0ED
:104D90001801484307EB800006EB0010A5FB00104C
:104DA000400900F0F007FDF789FA00EBC00101EBC4
:104DB000001061688900B0FBF1F0A5FB001040090C
:104DC00007EB0017FDF77AFA00EBC00101EB0010CA
:104DD00061688900B0FBF1F8FDF770FA00EBC001E3
:104DE00001EB001061688900B0FBF1F0A5FB001039
:104DF00040096FF01801484308EB800006EB0010F3
:104E0000A5FB00102168C0F3431038448860BDE85A
:104E1000F0812068884201D0904259D1FDF74EFAC6
:104E200000EBC00101EB001061684900B0FBF1F03C
:104E3000A5FB001040090701FDF740FA00EBC00197
:104E400001EB001061684900B0FBF1F8FDF736FA9C
:104E500000EBC00101EB001061684900B0FBF1F00C
:104E6000A5FB001040096FF01801484308EB8000D3
:104E700006EBC000A5FB0010400900F0F80007EBAE
:104E80004007FDF71BFA00EBC00101EB0010616861
:104E90004900B0FBF1F8FDF711FA00EBC00101EB9E
:104EA000001061684900B0FBF1F0A5FB001040095B
:104EB0006FF01801484308EB800006EBC000A5FB2B
:104EC00000102168C0F3421038448860BDE8F081CA
:104ED000FDF7E4F900EBC00101EB00106168490047
:104EE000B0FBF1F0A5FB001040090701FDF7D6F972
:104EF00000EBC00101EB001061684900B0FBF1F864
:104F0000FDF7CCF900EBC00101EB0010616849002E
:104F1000B0FBF1F0A5FB001040096FF01801484309
:104F200008EB800006EBC000A5FB0010400900F074
:104F3000F80007EB4007FDF7B1F900EBC00101EB0A
:104F4000001061684900B0FBF1F8FDF7A7F900EB2C
:104F5000C00101EB001061684900B0FBF1F0A5FB56
:104F6000001040096FF01801484308EB800006EB81
:104F7000C000A5FB00102168C0F3421038448860CF
:104F8000BDE8F081FDF78AF900EBC00101EB0010EC
:104F900061688900B0FBF1F7FDF780F900EBC00113
:104FA00001EB001061688900B0FBF1F0A5FB001077
:104FB00040096FF01801484307EB800006EB001032
:104FC000A5FB0010400900F0F007FDF767F900EBC2
:104FD000C00101EB001061688900B0FBF1F0A5FB96
:104FE0000010400907EB0017FDF758F900EBC0016E
:104FF00001EB001061688900B0FBF1F8FDF74EF994
:1050000000EBC00101EB001061688900B0FBF1F01A
:10501000A5FB001040096FF01801484308EB800021
:1050200006EB0010A5FB00102168C0F343103844C4
:105030008860BDE8F08100000014014000100140CC
:105040001F85EB5190F83910212901D002207047BB
:105050008168B1F5805F0CD0016A4A1C0262026867
:1050600009785160C18C491E0904090CC18410D013
:1050700019E0016A02680988C1F3080151600169F9
:1050800019B1016A491C0162ECE7016A891C0162DD
:10509000E8E70168CA6822F08002CA600068C16857
:1050A00041F04001C160002070472DE9F041044605
:1050B000069D884617461E462068006838EA0000AC
:1050C00020D00020B84227D1B5F1FF3F1CD025B138
:1050D000FCF71AFF801BA84216D92068C16821F48A
:1050E000D071C1602068416921F001014161202037
:1050F00084F8390084F83A00002084F8380003204E
:10510000BDE8F0810120DDE72068006838EA000092
:1051100005D00020B842D7D00020BDE8F0810120A2
:10512000F8E7000010B50248FDF7CCFF10BD000005
:10513000A00A002008B544480068006800F020007C
:1051400060B100BF002000903F48006800680090F8
:105150003D4800684068009000BF74E03B4800682C
:1051600000F0100000286ED000BF002000903648EC
:10517000006800680090344800684068009000BFF4
:1051800000BF33480068006800F4002070BB30485E
:105190000068006820F001002D49096808602C486B
:1051A00000684068C0F124002A490880242028496A
:1051B0000968486026480068006840F400202449D7
:1051C0000968086022480068006840F00100204932
:1051D000096808601F480088122834D11E491F48FA
:1051E00004F0E6FC002003F0DFFB2CE01848006828
:1051F000006820F00100164909680860144800683A
:105200004068C0F12400134908802420104909682F
:1052100048601348806A20F40020114988620C48D5
:105220000068006840F00100094909680860094801
:105230000088122807D108490848243004F0B8FC37
:10524000002003F0B1FB08BDE00A00200048004048
:10525000600B002026000020200E0020360E0020CB
:105260000060024010B50248FDF72CFF10BD0000A1
:10527000200B002000BFFEE710B503F0FDFE014942
:10528000086010BD5000002010B52DED068BF0EE2B
:1052900040AAB0EE608AF0EE418AB0EE619AF0EE7C
:1052A000429AB0EE62AA0A48C0ED00AA80ED018AD7
:1052B000C0ED028A80ED039AC0ED049A80ED05AA44
:1052C00006220146034804F0E7FFBDEC068B10BD43
:1052D000D00E0020A00A002003B4019841000098DD
:1052E00050EAC12018BF04204A0D18BF40F0010049
:1052F00040F2FF72B2EB515F08BF40F0020001289C
:1053000008BF052002B070474100080218BF042002
:105310000A0E18BF40F001004FF07F4232EA01014F
:1053200008BF40F00200012808BF052070470000B8
:1053300010B54FF00E402DED028BB0EE408A18EE06
:10534000104A00EB4400B0F1506F4AD84FF0FC40D7
:10535000B0EB440F22D2B0EEC80AF7EE000A30EEEE
:10536000C00AF6EE000A60EE208A18EE900A04F0F9
:10537000C3FC01EE100A14F0004F1DBFDFED2D0A33
:105380009FED2D0AB1EE411ADFED2C0A08BF9FED0B
:105390002C0AF8EE001A21EE218A05E0DFED290A39
:1053A00068EE088AB0EE600A9FED271ADFED271A33
:1053B00030EE080A48EE811A9FED251A08EEA11A70
:1053C000DFED241A48EE811A9FED231A08EEA11A88
:1053D00068EE281ABDEC028B01EE810A30EE200A3D
:1053E00010BD4FF0E440B0EB440F0CD918EE100A9A
:1053F000FFF78AFF042808BF01F04CFFB0EE480A0F
:10540000BDEC028B10BD4FF07F40B0EB440F07D2D4
:10541000B0EE480ABDEC028BBDE8104001F02CBF95
:105420000120FBF7BEF8BDEC028BBDE8104001F097
:1054300029BF00000000C9BF22AAFDB90000C93F72
:1054400022AAFD390000000024FE1C3DC78AD83C7A
:105450001E67383D1B93993DAFAA2A3E000000000D
:1054600070B59B482DED020B2DED068B079D25F0A9
:105470000044A04218DC9748844202DC0AD1069816
:1054800040B19DED060BBDEC068B02B0BDE870404F
:1054900001F0AEBE002DCCBF9FED8F0B9FED900BAA
:1054A000BDEC068B02B070BD8F48A04215DD8F4861
:1054B000A042D8BF4FF0FF3458DD9DED060B51ECF4
:1054C000100BFFF709FF042808BF01F0C5FE9DED92
:1054D000060BBDEC068B02B070BD9DED060B51ECCA
:1054E000100B03F0F9FCCDE9060181489FED828B9A
:1054F000A0423CDD8248A0421FDD00249FED82AB2C
:105500009DED060B53EC1A2B51EC100B05F0D8FD5A
:105510009DED060B41EC190B53EC1A2B51EC100BC3
:1055200006F0A4F953EC182B06F09CFC53EC192B55
:1055300005F006FFCDE9060149E09DED060B0124CB
:1055400053EC182B51EC100B05F0BAFD9DED060B3A
:1055500041EC190B53EC182B51EC100B06F082FCAC
:1055600053EC192B05F0ECFECDE906012FE068485D
:10557000A0421FDD02249FED689B9DED060B53ECBE
:10558000192B51EC100B06F071F953EC182B05F0A8
:1055900097FD9DED060B41EC180B53EC192B51ECCC
:1055A000100B06F05FFC53EC182B05F0C9FECDE99B
:1055B00006010CE09DED060B032453EC102B9FED30
:1055C000580B51EC100B05F0BBFECDE906019DED2B
:1055D000060B53EC102B51EC100B06F047F941EC85
:1055E000180B53EC182B06F041F941EC190B4E48FF
:1055F0000621B0EE490AF0EE690A784401F0CCFCCD
:1056000053EC182B51EC100B06F030F941EC180B51
:105610004648B0EE490AF0EE690A0521784401F0E7
:10562000BBFC53EC192B51EC100B06F01FF941ECAD
:10563000100B51EC180B53EC102B002C0EDA05F06C
:105640003FFD9DED061B53EC112B06F00FF99DED70
:10565000061B53EC112B06F0D9FA35E005F030FDAE
:105660009DED061B53EC112B06F000F941EC100BDD
:105670002F48784400EBC40090ED001B51EC100B58
:1056800053EC112B06F0EEFB9DED061B53EC112B9A
:1056900006F0E8FB41EC100B2648784400EBC40010
:1056A00090ED001B51EC100B53EC112B06F0AEFAF1
:1056B00041EC100B002DA2BFBDEC068B02B070BDFB
:1056C00051EC100B05F08EFB41EC100B01E70000D4
:1056D000000010440000F07F182D4454FB21F93FD6
:1056E000182D4454FB21F9BF0000DC3F0000203E90
:1056F0000000F33F00000000000000000000F03F49
:105700000000E63F00000000000000000000004034
:105710000080034000000000000000000000F83F8F
:10572000000000000000F0BF5A7500001075000076
:105730009A7400005274000070B56B4E2DED040B8E
:105740002DED028B82B0DDF81CC0DDE905235C4243
:105750002CF000411C4341EAD474049D22F0004027
:10576000B44205D86C422C4340EAD474B4420BD9FD
:105770009DED061B9DED040B02B0BDEC028B04B049
:10578000BDE8704001F03EBDACF14054A4F17F642F
:105790001C430BD0022404EAAC7444EAD2740543DF
:1057A0009FED538B9FED542B07D015E09DED040B1F
:1057B00051EC100B01F0AAFD42E0002C11BF012CAE
:1057C0009DED040B02B0BDEC028B04BF04B070BDB4
:1057D000022C38D0032C3BD00B439FED491B9FED8F
:1057E0004A0B0AD0B14218D1B04209D121F0804110
:1057F00020F08040079105900FE0002A15DA10E0B4
:10580000434B7B44002C08BF93ED000B0DD0012CC3
:1058100010D0022C17D0032C1AD0B0421DD1002A70
:1058200003DAB0EE410AF0EE610A02B0BDEC028B81
:1058300004B070BD93ED000B51EC100B05F0D2FAE3
:1058400041EC100BF1E7B0EE480AF0EE680AECE725
:10585000B0EE420AF0EE620AE7E7401A00153C2873
:10586000C8BF8DED000B19DCBCF1000FBEBF10F1FD
:105870003C0F9FED290B8DED000B0FDB9DED060B13
:1058800053EC102B9DED040B51EC100B05F058FD63
:1058900003F022FB01F03AFDCDE90001002C08BF26
:1058A0009DED000BC1D0012C10D0022C9FED1C0BE4
:1058B00053EC102B9DED000B51EC100B0DD006F0AE
:1058C000D1FA53EC182B06F0CDFAB9E7019880F025
:1058D000004001909DED000BA7E706F0C3FA53ECE2
:1058E000182B06F093F9ABE70000F07F00000000F2
:1058F000182D4454FB210940182D4454FB2109C0A4
:10590000182D4454FB21F9BF182D4454FB21F93FB5
:10591000B273000000000000000000000000000062
:10592000075C143326A6A13C10EE100A10B510EE49
:10593000901A4FF0684202EB40032DED028BB3F159
:10594000654F3CBF02EB4102B2F1654F7CD200BF14
:10595000C0F3C753C1F3C7529A1A1B2A09DD10F0CE
:10596000004F14BF9FED6E0A9FED6E0ABDEC028BD7
:1059700010BD12F11A0F1BDA11F0004F09D010F010
:10598000004F0CBF9FED680A9FED680ABDEC028BCB
:1059900010BD80EE208A18EE100AFFF7B5FC04282F
:1059A00008BF01F077FCB0EE480ABDEC028B10BDD9
:1059B0004200B2EB410F37D910F0004F19BFDFEDB5
:1059C0005C1A9FED5C1ADFED5C1A9FED5C1AB0EE7D
:1059D000602A0A46F1EE400A80F00041B0EE420A29
:1059E00010460A1A5200B2F1807F34D2484010F0BB
:1059F000004FDFED532A9FED533A1DBFBEEE002A44
:105A000071EEE21A31EE431AB6EE002A04BF71EECF
:105A1000A21A31EE031AF0EE402A42EE602A40EE5E
:105A2000020A82EEA02A18E011F0004F04BF9FED99
:105A3000461AF0EE411AD4D010F0004F1CBFDFED33
:105A4000431A9FED431A00E026E004BFDFED411A40
:105A50009FED411AC5E780EE202A22EE020ADFED13
:105A60003F0ADFED3F2ABDEC028B40EE202ADFED3E
:105A70003D0A40EE220ADFED3C2A40EE202ADFED0F
:105A80003B0A40EE220A22EE000A00EE201A31EE16
:105A9000020A30EE210A10BD4FF07F42B2EB400FF8
:105AA00028BFB2EB410F05D2BDEC028BBDE8104020
:105AB00001F0E5BB40EA01035B0008BF41F0FF4194
:105AC0000BD0B2EB400F08BFB2EB410F08D120F072
:105AD000804000EE100A21F0804100EE901A37E776
