:020000040800F2
:100000004064002029030008CF3C00089D3400080C
:10001000CD3C0008930B0008054B000800000000D1
:10002000000000000000000000000000690200085D
:10003000590E000800000000C5020008194300081E
:100040004303000843030008430300084303000878
:100050004303000843030008430300084303000868
:100060004303000843030008430300084303000858
:10007000A10D0008430300084303000843030008E0
:10008000430300084303000843030008C50B0008AE
:10009000AD0B0008B90B0008430300084303000838
:1000A0004303000843030008430300084303000818
:1000B0004303000843030008430300084303000808
:1000C00043030008430300084303000843030008F8
:1000D00043030008AD49000843030008B94900087C
:1000E00043030008430300084303000843030008D8
:1000F00043030008430300084303000843030008C8
:1001000043030008430300084303000843030008B7
:1001100043030008430300082D440008430300087C
:1001200043030008AD0D0008B90D0008C50D000817
:100130004303000843030008430300084303000887
:10014000D10B0008DD0B000843030008430300083F
:1001500043030008D10D000843030008754A000856
:100160004303000843030008430300084303000857
:100170004303000843030008430300080000000095
:10018000430300084303000800F002F800F05CF8A5
:100190000AA090E8000C82448344AAF10107DA45E2
:1001A00001D100F051F8AFF2090EBAE80F0013F0D8
:1001B000010F18BFFB1A43F001031847B4D0000029
:1001C000D4D000000A444FF0000C10F8013B13F0AB
:1001D000070408BF10F8014B1D1108BF10F8015BA0
:1001E000641E05D010F8016B641E01F8016BF9D193
:1001F00013F0080F1EBF10F8014BAD1C0C1B09D1EA
:100200006D1E58BF01F801CBFAD505E014F8016B5B
:1002100001F8016B6D1EF9D59142D6D370470000ED
:100220000023002400250026103A28BF78C1FBD8FF
:10023000520728BF30C148BF0B6070471FB50CF094
:1002400029F91FBD10B510BD00F095FA1146FFF752
:10025000F5FF08F02DFE00F0B3FA03B4FFF7F2FF4C
:1002600003BC00F0C3FA00002C4B19680868B0E822
:10027000F04F80F30988BFF36F8F4FF0000080F3D9
:10028000118870470000000008480068006880F38B
:1002900008884FF0000080F3148862B661B6BFF39F
:1002A0004F8FBFF36F8F00DF00BF00BF08ED00E08E
:1002B000DFF80C00016841F470010160704700BF75
:1002C00088ED00E0EFF30980BFF36F8F134B1A68DE
:1002D0001EF0100F08BF20ED108A20E9F04F1060CB
:1002E00009B44FF0500080F31188BFF34F8FBFF374
:1002F0006F8F09F077FF4FF0000080F3118809BC81
:1003000019680868B0E8F04F1EF0100F08BFB0EC95
:10031000108A80F30988BFF36F8F70473800002080
:10032000EFF30580704700000948804709480047FF
:10033000FEE7FEE7FEE7FEE7FEE7FEE7FEE7FEE795
:10034000FEE7FEE704480549054A064B70470000F2
:10035000D943000889010008405E00204064002065
:10036000406000204060002053EA020C00F06980E9
:100370002DE9F04B4FF00006002B1FBFB3FA83F5B9
:1003800003FA05F424FA05F65E4012BF1643B2FAEA
:1003900082F502FA05F4C5F120051EBF22FA05FC1C
:1003A00044EA0C04203556EA044C4FEA144418BFC2
:1003B000641C4FF000084FF00009904271EB030CF1
:1003C00039D3002919BFB1FA81F701FA07F6B0FA5B
:1003D00080F700FA07F6C7F120071EBF20FA07FCD6
:1003E00046EA0C062037B6FBF4FCA7EB0507103FE6
:1003F00007F01F0BCBF120060CFA0BFB2CFA06F6CC
:1004000044BFB3460026202FA4BF5E464FF0000B2A
:100410005BEA060C08BF4FF0010B19EB0B09ABFBB5
:10042000027C48EB0608C01B06FB02CC0BFB03CC8E
:1004300071EB0C01C1E70B46024641464846BDE858
:10044000F08B13B54FF000004FF00001AFF30080C8
:10045000BDE81C40704740EA0103024630B59B07E7
:1004600010D14FF0013400E008C208C91D1B9D43A4
:1004700015EAC41FF8D013F0FF0102F8011B0DD0DC
:100480001B0AF8E711F8013B002B02F8013B05D0ED
:1004900011F8013B002B02F8013BF3D130BD10B540
:1004A000431C02E010F8011B71B18107FAD14FF033
:1004B000013202C88C1A8C4314EAC211F9D0C01A56
:1004C0000A0603D0C01E10BDC01A10BD0A0401D018
:1004D000801E10BD0902FCD0401E10BD032A40F250
:1004E000308010F0030C00F0158011F8013BBCF1D6
:1004F000020F624498BF11F801CB00F8013B38BFEE
:1005000011F8013BA2F1040298BF00F801CB38BFFB
:1005100000F8013B11F0030300F06780083AC0F0D7
:10052000088051F8043B083A51F804CBA0E80810C1
:10053000F5E7121D5CBF51F8043B40F8043BAFF3F4
:100540000080D20724BF11F8013B11F801CB48BF4E
:1005500011F8012B24BF00F8013B00F801CB48BF84
:1005600000F8012B7047431A28BF9A427FF6B6AFB6
:10057000032A1044114440F2268010F0030F1EBFDE
:1005800011F8013D521E00F8013D10F0030F7FF4F9
:10059000F6AF11F0030300F0A280083AC0F00B8020
:1005A00051F8043D083A51F804CD40F8043D40F8B4
:1005B00004CDFFF7F3BF121D5CBF51F8043D40F8B6
:1005C000043DAFF30080D20724BF11F8013D11F8BC
:1005D00001CD48BF11F8012C24BF00F8013D00F8FF
:1005E00001CD48BF00F8012C704710B5203AC0F08B
:1005F0000B80B1E81850203AA0E81850B1E8185024
:10060000A0E81850BFF4F5AF5FEA027C24BFB1E860
:100610001850A0E8185044BF18C918C0BDE81040D1
:100620005FEA827C24BF51F8043B40F8043B08BFDA
:100630007047D20728BF31F8023B48BF11F8012BA1
:1006400028BF20F8023B48BF00F8012B70474FF04D
:10065000000200B5134694469646203922BFA0E812
:100660000C50A0E80C50B1F12001BFF4F7AF09071E
:1006700028BFA0E80C5048BF0CC05DF804EB89000F
:1006800028BF40F8042B08BF704748BF20F8022B52
:1006900011F0804F18BF00F8012B7047704770476A
:1006A000704710B500F04AF8006810BD10B5044658
:1006B00000F044F8046010BD431A28BF9A427FF648
:1006C00094AF104410F0030F11441EBF11F8013D08
:1006D000521E00F8013D10F0030F7FF4F6AF103A00
:1006E000C0F00A8010B531E91850103A20E91850CE
:1006F000BFF4F9AFBDE81040530724BF31E908103B
:1007000020E9081044BF51F8043D40F8043D12F0C0
:10071000030F08BF7047D20728BF31F8023D48BF1A
:1007200011F8012C28BF20F8023D48BF00F8012C29
:100730007047000000487047E05D002000487047A7
:10074000E05D00201FB584B000200A9C06AB04AA1F
:1007500002A90094AFF3008018B1DDE9020108B0EE
:1007600010BD0348204000F039F800200146F6E7AC
:100770000000207C70477546FFF7DCFFAE460500A1
:100780006946534620F00700854618B020B5FFF7AC
:10079000D9FDBDE820404FF000064FF000074FF0B4
:1007A00000084FF0000B21F00701AC46ACE8C0098F
:1007B000ACE8C009ACE8C009ACE8C0098D46704798
:1007C00010B50446AFF300802046BDE81040FFF7A7
:1007D00044BD002801D000F009B8704710B500F002
:1007E00025F8BDE81040FFF7F4BF000001491820CC
:1007F000ABBEFEE72600020070B505460C460A2097
:1008000000E06D1C00F068F835B128780028F8D1B8
:1008100002E0641C00F060F814B120780028F8D1E0
:10082000BDE870400A2000F057B8000010B502285B
:1008300003D0410103D50DA112E0002010BD01013C
:1008400001D50FA10CE0C10001D511A108E0810084
:1008500001D512A104E0400001D513A100E0002160
:1008600015A0FFF7C9FF012010BD0000496E766199
:100870006C6964204F7065726174696F6E0000006E
:10088000446976696465204279205A65726F000078
:100890004F766572666C6F7700000000556E646578
:1008A00072666C6F77000000496E65786163742032
:1008B000526573756C7400005349474650453A20A1
:1008C00041726974686D65746963206578636570E9
:1008D00074696F6E3A20000008B569468DF8000013
:1008E0000320ABBE08BD0000B7EE000A80ED000A91
:1008F0009FED040A80ED010A80ED020A80ED030AF3
:100900007047000000000000B4EEE00AF1EE10FABB
:1009100001DD30EE600AB5EEC00AF1EE10FA01D248
:1009200030EE200A7047000001221021014801F03A
:1009300031BA00000000024000221021014801F0FD
:1009400029BA000000000240704700000122114651
:10095000014801F01FBA00000004024000220121FA
:10096000014801F017BA000000040240704730B59A
:1009700004464FF47A7502E0284600F004F8641E3D
:10098000A4B2F9D230BD70B54FF0E0240022656901
:10099000A8214843A169A3698B42FCD002D2A1EBF4
:1009A000030102E0A5EB030631440A4419468242E2
:1009B000F1D370BD10B5FFF7C7FFFFF7D7FF06F003
:1009C00071FA044606F0F6FA204310BD2DE9FC4109
:1009D0000746002016460D4600900190FFF7ACFF39
:1009E000922000F0BDF806226946122000F09AF825
:1009F000FFF79AFF9DF801009DF80010000200B279
:100A0000084300EE100A464CB8EEC00AD4ED000AC6
:100A100020EE200A85ED000A9DF803009DF80210E3
:100A2000000200B2084300EE100AD4ED000AB8EE4E
:100A3000C00A20EE200A85ED010A9DF805009DF808
:100A40000410000200B2084300EE100AB8EEC00A1B
:100A500020EE200A85ED020AFFF780FF0822694692
:100A6000002000F05FF8FFF771FF9DF800000F28ED
:100A700030D19DF803009DF80210000200B2084337
:100A800000EE100AD4ED010AB8EEC00A20EE200AEA
:100A900087ED000A9DF805009DF80410000200B2E1
:100AA000084300EE100AD4ED010AB8EEC00A20EEA9
:100AB000200A87ED010A9DF807009DF80610000244
:100AC00000B2084300EE100AB8EEC00A20EE200A79
:100AD00087ED020AFFF730FFA22000F041F8022262
:100AE0006946222000F01EF8FFF71EFF9DF8000067
:100AF0009DF80110C00040EA5110B0F5806F01DB95
:100B0000A0F5006000EE100AB4EE001AF8EEC00A7C
:100B1000B3EE070A00EE810A86ED000ABDE8FC810B
:100B20002C02002070B514460D4640F0800000F005
:100B300017F806E0552000F013F8641E05F8010BC5
:100B4000E4B2002CF6D170BD10B50C4640F0800028
:100B500000F006F8552000F003F8207010BD0000EA
:100B600001B582B04FF47A700090012301AA02A966
:100B7000024801F083FD9DF804000EBD80090020AD
:100B800010B50C46FFF7ECFF2046BDE81040FFF71C
:100B9000E7BFFEE710B5044801F0FAFEBDE81040DB
:100BA0000821014802F052B9980A0020014800F0DB
:100BB0001CBB000030090020014800F016BB0000FB
:100BC00030090020014800F010BB0000300900206F
:100BD000014800F00ABB000058090020014800F05D
:100BE00004BB00005809002030B587B04FF4FF74F3
:100BF0000094002402940394082404940A4C050AE7
:100C000025706070080AA070E170100A207162718E
:100C1000180AA071E37106AB22466946034800F04A
:100C200085F907B030BD00001402002058090020EB
:100C300030B587B04FF40074009408240494002465
:100C4000039402940A4C050A25706070080AA0708B
:100C5000E170100A20716271180AA071E37106AB8D
:100C600022466946034800F061F907B030BD000034
:100C70000C0200203009002000B589B04FF400714B
:100C8000009100210291039102210491010A8DF843
:100C900018108DF8190007AB06AA6946024800F043
:100CA00045F909B000BD00005809002010B5134CEB
:100CB00020786070124890F83817124800680F309A
:100CC00021B1012907D006290AD00EE00EA1FFF7B5
:100CD000C2FB002008E010A1FFF7BDFB012003E0EC
:100CE00011A1FFF7B8FB02202070207861788842BC
:100CF00003D0BDE8104006F091B810BD06020020F8
:100D0000284C00206C020020434841535349533A79
:100D10004E4F524D414C0000434841535349533AC2
:100D2000524F544154450000434841535349533AAC
:100D3000464C59494E47000017494868B0F902002F
:100D400000EE100A1548B8EEC00A80ED1F0A8A6945
:100D5000B2F9022000EE102AB8EEC00A80ED200A97
:100D6000CA6AB2F9022000EE102AB8EEC00A80ED7D
:100D7000210A096CB1F9021000EE101AB8EEC00A8F
:100D800080ED220A90ED190A80ED230A90ED180AF1
:100D900080ED240A70470000284C0020744B00208E
:100DA000014800F0C5BD0000F40B0020014800F030
:100DB000BFBD0000540C0020014800F0B9BD000088
:100DC000D8090020014800F0B3BD0000380A002017
:100DD000014800F0ADBD0000B40C002001681823EC
:100DE000CAB2103AB2FBF3F2054B6FF30901032AC2
:100DF0009B5CC36500D9091D8165084670470000EA
:100E000028C9000810B5014600208B698A6A4FF096
:100E1000C07453B1B3F5005F15D072B1012A0CD084
:100E2000022A0AD0032A09D104E01AB1012A06D005
:100E3000022A03D1C96AC90100D5012010BDC96ABF
:100E4000A142FAD010BD002AF7D0012AF2D0022A1E
:100E5000F3D0032AF3D010BD704772B6FEE700004E
:100E600000EE900A0749F8EEE00A30EEC00AF0EE14
:100E7000C00A10EE900A884203DD9FED030A30EEAF
:100E8000600A7047000034430000B44310B50E4CB4
:100E9000A078E0700D48817E0D4800680F3021B1C8
:100EA0000CA1FFF7D8FA002003E00DA1FFF7D3FA59
:100EB0000120A070E178C0B2884203D0BDE81040A4
:100EC00005F0C0BF10BD000006020020B053002096
:100ED00078020020465249433A4F4E20000000005D
:100EE000465249433A4F46460000000010B5054CB3
:100EF00004E000BF10F8013B5340E25C491EF9D208
:100F0000104610BDB4C9000890F82020012A07D06F
:100F1000022A05D0416A41F48021416201207047D4
:100F2000006842690A43426100207047F0B590F8BA
:100F300020500468A468012D05D0022D03D0416A19
:100F400041F4802153E014F0406F01D1E5004BD50E
:100F5000C4F30164022C03D9416A41F4000146E064
:100F60000125A5401D608D684FF4C0739DB1CE680A
:100F700035434E6845EAC605066803EB0417F5518C
:100F80004FF4C275076805EB04150E697E51097DA3
:100F9000012905D009E00E88CD6845EA4655EBE702
:100FA00001684E5946F480764E511179D2F80550B9
:100FB0004FF4C67641EA0525016806EB04168D510B
:100FC0001178D2F801204FF4C47541EA0221026879
:100FD00005EB04155151006803EB0411425842F02F
:100FE000010242500020F0BD416A41F4001141620B
:100FF0000120F0BD10B590F82020012A07D0022A68
:1010000005D0416A41F480214162012010BD3B4876
:10101000D0F8002242F00102C0F80022D0F80022ED
:1010200022F47C52C0F80022D0F800224B6A42EA37
:101030000322C0F800220A7D02F01F0301229A4019
:10104000D0F81C329343C0F81C32CB69B3B9D0F846
:101050000C329343C0F80C328C894B6864F31F4305
:101060004C6900EBC404C4F840320C890B6864F38B
:101070001F434C6900EBC404C4F84432CB69012B14
:1010800016D1D0F80C321343C0F80C320C884B68E0
:1010900064F31F434C6900EBC404C4F840320C896C
:1010A000CB6864F31F434C6900EBC404C4F84432BA
:1010B0008B69002BD0F804320ED01343C0F80432F1
:1010C0000B69002BD0F8143208D01343C0F8143247
:1010D000096A012904D008E09343EFE79343F5E759
:1010E000D0F81C121143C0F81C12D0F8001221F0E5
:1010F0000101C0F80012002010BD00000064004093
:10110000704730B590F82040012C05D0022C03D058
:10111000416A41F480215DE00468002955D02469CA
:10112000A40754D04FF4D874056804EB01142D596A
:1011300015F00405956005682D594ED0ED085560F1
:1011400005682C5904F00204D4604FF4DA74056881
:1011500004EB01142D5905F00F05156105682D5993
:10116000C5F30725956105682C59240C54614FF48B
:10117000DC72046802EB0112A4581C700468A458C5
:10118000240A5C700468A458240C9C700468A2585B
:10119000120EDA704FF4DE72046802EB0112A458EA
:1011A0001C710468A458240A5C710468A458240CB7
:1011B0009C710468A258120EDA71006881B101694D
:1011C00041F020010161002030BDE468A8E7416AD8
:1011D00041F400114162012030BD6D0D1560AFE793
:1011E000C16841F02001C160EDE72DE9F05F0546DF
:1011F000006800244669D0F804908768D0F80CB0E5
:10120000D0F810A0D0F81880F10748D0F90714D012
:1012100001218160B80703D5284600F028FB0CE0C7
:10122000780702D54FF4006407E0380702D54FF481
:10123000805402E0284600F019FBF80516D529680D
:101240004FF480708860B80503D5284600F011FB84
:101250000CE0780502D544F4005407E0380502D5C7
:1012600044F4804402E0284600F002FBF80316D55F
:1012700029684FF480308860B80303D5284600F011
:10128000FAFA0CE0780302D544F4004407E038038E
:1012900002D544F4803402E0284600F0EBFA30072F
:1012A00007D55FEACB6004D52968102044F40074A8
:1012B000C86070074FF0080707D55FEA0B7004D5C8
:1012C0002868C760284600F0B1F9B00706D528683D
:1012D000C068800702D0284600F0AAF9700607D53A
:1012E0005FEACA6004D52968102044F4806408616C
:1012F000B00607D55FEA0A7004D52868076128465A
:1013000000F084FAF00606D528680069800702D04C
:10131000284600F07CFAB00308D55FEAC96005D51D
:10132000296810204860284600F072FAF00307D5BB
:101330005FEA097004D528684760284600F09CFAE7
:10134000300446D55FEA497040D5F00504D55FEA20
:10135000C87001D044F00104B00504D55FEA88707C
:1013600001D544F00204700504D55FEA487001D548
:1013700044F00404300529D518F0700F26D008F089
:101380007000402815D006DC102809D020280AD08B
:10139000302816D10AE050280ED0602811D10EE076
:1013A00044F008040DE044F010040AE044F0200486
:1013B00007E044F0400404E044F0800401E044F419
:1013C00080742868816921F0700181612968042096
:1013D0004860002C05D0686A204368622846FFF701
:1013E0008FFEBDE8F09F70B5040003D094F8200094
:1013F00010B104E0012070BD204600F081F82068A3
:10140000016841F00101016000F0CAFC05460526B3
:1014100004E000F0C5FC401B0A2811D82068406891
:10142000C007F6D02068016821F00201016000F0D9
:10143000B7FC05460BE000F0B3FC401B0A2806D9B8
:10144000606A40F40030606284F82060D2E720686F
:1014500040688007EFD4207E0128206801683DD0D5
:1014600021F080010160607E01282068016838D089
:1014700021F040010160A07E01282068016833D07E
:1014800021F020010160E07E0128206801682ED053
:1014900041F010010160207F01282068016829D0F7
:1014A00021F008010160607F01282068016824D0D4
:1014B00021F004010160D4E902010843D4E90412D7
:1014C000114308436168491E08432168C861002030
:1014D0006062012084F82000002070BD41F080018E
:1014E000C0E741F04001C5E741F02001CAE721F023
:1014F0001001CFE741F00801D4E741F00401D9E73A
:10150000F0B587B0044614216846FFF7A0F8424BB7
:101510004248DFF800E11968D4F800C03F4A0325CB
:101520000226092710300024491CF44532D11960E5
:10153000012907D1016841F000710160006800F0E5
:1015400000700590106840F0080010601068CDE948
:10155000005600F00800CDE9047069463048CDE936
:10156000024500F01FFB00220521132000F0B6FC0D
:10157000132000F0A5FC00220521142000F0AEFC91
:10158000142000F09DFC00220521152000F0A6FC8F
:1015900015203AE0DFF88CE0F44538D1D0F800C0EF
:1015A0004CF0806CC0F800C0D0F800C001290CF0ED
:1015B000806CCDF814C0196007D1016841F000714A
:1015C0000160006800F000700590106840F00200B3
:1015D0001060106802AB00F0020005906020CDE9B9
:1015E000000683E8B00069460F4800F0DBFA0022ED
:1015F0000521402000F072FC402000F061FC002238
:101600000521412000F06AFC412000F059FC07B0A0
:10161000F0BD00000064004024000020303802408B
:10162000000C0240006800400004024070470000C7
:1016300010B500686E498EB0884271D16D4B6A4614
:1016400000216D48FFF75DFD009A40F203246949CF
:101650006A48A2F20323A2423DD019DCA2F58072AF
:10166000113A57D0F02A27D0F12A0FD1428942826D
:101670000A8852BA42814A8852BA82818A8852BA0A
:10168000C28189790174022007F050F90EB010BDB3
:10169000012B2FD0062BF9D158485A3002880281ED
:1016A0000A8852BA02804A8852BA42808A8852BA5C
:1016B000828089798171E9E7028802810A8852BAB9
:1016C00002804A8852BA42808A8852BA82808979D6
:1016D00081710120D8E7828A82830A8852BA828285
:1016E0004A8852BAC2828A8852BA0283897981763C
:1016F0000320C9E7C28BC2840A8852BAC2834A88CF
:1017000052BA02848A8852BA4284897980F82410B5
:101710000420B9E737493A4807F0DAFAB6E7FFE7B5
:1017200038498842B2D1334B07AA083300213648E2
:10173000FFF7E7FC2F483149079A08302831A2F219
:101740000122082AA2D2DFE802F0420404040514B0
:1017500023329BE70A880A81028852BA0A804288AB
:1017600052BA4A80828852BA8A808079887105206C
:101770008AE74A894A82028852BA4A81428852BA22
:101780008A81828852BACA818079087406207BE7F0
:101790008A8A8A83028852BA8A82428852BACA8264
:1017A000828852BA0A838079887607206CE7CA8BD0
:1017B000CA84028852BACA83428852BA0A8482888A
:1017C00052BA4A84807981F8240008205CE70B49EA
:1017D00050310A880A81028852BA0A80428852BA75
:1017E0004A80828852BA8A808079887109204BE7C2
:1017F000006400401C02002030090020985C00209A
:10180000B05300200068004058090020704770471E
:101810007047000070B5044690F82000012804D0FD
:10182000606A40F40020606218E0022084F8200022
:101830002068016821F00101016000F0B1FA05465D
:101840000EE000BF00F0ACFA401B0A2808D9606A1D
:1018500040F400306062052084F82000012070BD53
:1018600020684068C007EDD1606270BD7047704766
:10187000704770477047704770472DE9F041044644
:10188000876D00F08DFA064694F835000025022891
:1018900006D08020606584F834500120BDE8F081D6
:1018A0002068016821F0160101602068416921F07B
:1018B00080014161206C08B9A06C20B120680168EA
:1018C00021F0080101602068016821F00101016038
:1018D0000CE000F065FA801B052807D92020606520
:1018E000032084F8350084F83450D7E72068006876
:1018F000C007EED194F85C103F208840B86001200A
:1019000084F8350084F834500020C7E790F835108B
:10191000022903D08021416501207047052180F80C
:1019200035100068016821F0010101600020704756
:101930002DE9F84304464FF00009CDF800906348C4
:101940004FF41651A56D0068B0FBF1F72E6894F8BE
:101950005C10082000FA01F131420FD021680A68BA
:1019600052070BD50A6822F004020A6094F85C1052
:101970008840A860606D40F00100606594F85C10DC
:101980004FF0010808FA01F0304208D02168496997
:10199000090604D5A860606D40F00200606594F807
:1019A0005C1004208840304208D02168096889070B
:1019B00004D5A860606D40F00400606594F85C1088
:1019C00010208840304218D021680968090714D5D2
:1019D000A86020680168490304D50068000308D5A1
:1019E000A16C07E00168C90503D4016821F0080172
:1019F0000160216C09B12046884794F85C102020D2
:101A00008840304231D021680968C9062DD5A860C8
:101A100094F8350005282068016806D0490347D5A9
:101A2000006800031DD4616C1CE021F01601016008
:101A30002068416921F080014161206C08B9A06CE7
:101A400020B12068016821F00801016094F85C1061
:101A50003F208840A86084F8358084F83490216D58
:101A60001FE0E16B09B120468847606D00282BD04C
:101A7000606DC00714D0052084F835002068016827
:101A800021F0010101600098401C0090B84203D889
:101A900020680068C007F6D184F8358084F8349057
:101AA000E16C002910D001B02046BDE8F0430847A2
:101AB0000168C905D5D4016821F01001016084F8DE
:101AC000358084F83490CCE7BDE8F88334000020FA
:101AD0002DE9F041044600F063F906465CB10220AE
:101AE00084F83500002584F834502068016821F01E
:101AF000010101600DE00120BDE8F08100F050F926
:101B0000801B052805D920206065032084F8350056
:101B1000F2E720680068C007F0D122681168204809
:101B20000140D4E901031843D4E903363343184391
:101B300063691843A3691843E3691843236A184388
:101B40000843616A042903D1D4E90B1319430843FC
:101B5000106020684069666A20F0070130460E4335
:101B6000012704280CD1A06A0643E06A40B1204650
:101B7000FFF748F920B14020606584F83570BAE776
:101B8000206846612046FFF729F994F85C203F2140
:101B900091408160656584F835700020ACE70000F5
:101BA0003F8010F02DE9F84FDFF8BCA1002201259D
:101BB00003264FF00F090AF1040BAAF1040E00BF2F
:101BC0000B6805FA02F42340A34270D10F7907F0A5
:101BD0000307012F01D0022F16D187684FEA420870
:101BE00006FA08FC27EA0C07D1F80CC00CFA08FC2E
:101BF0004CEA070CC0F808C04768A7430C79C4F347
:101C0000001494403C4344600C79E443A4070AD098
:101C1000C4684FEA420C06FA0CF7BC438F6807FA17
:101C20000CF72743C7600C7904F00304022C12D18F
:101C3000D40800EB840CDCF820405707FF0E09FAAB
:101C400007F824EA0804D1F8108008FA07F848EAEF
:101C50000408CCF8208004684FEA420C06FA0CF71E
:101C6000BC430F7907F0030707FA0CF72743076017
:101C70004C6814F4403F70D03C4C276847F48047D0
:101C80002760246822F0030704F480440094384C51
:101C900007EB040CDCF8084897074FEA177809FAB5
:101CA00008F7BC43334FB84202D1002724E054E088
:101CB000314FB84201D101271EE0304FB84201D167
:101CC000022719E02E4FB84201D1032714E02D4F0F
:101CD000B84201D104270FE02B4FB84201D10527AC
:101CE0000AE02A4FB84201D1062705E0284FB84242
:101CF00001D1072700E0082707FA08F72743CCF8A7
:101D00000878DAF800405746D1F804C09C435FEAEF
:101D1000CC2C00D51C433C60DBF800405F46D1F87A
:101D200004C09C435FEA8C2C00D51C433C60DEF869
:101D300000407746D1F804C09C435FEA8C3C00D554
:101D40001C433C60084F083F3C68D1F804C09C43EA
:101D50005FEACC3C00D51C433C60521C102AFFF4C7
:101D60002FAFBDE8F88F0000083C01404438024026
:101D70000030014000000240000402400008024020
:101D8000000C024000100240001402400018024003
:101D9000001C02400AB1816170470904FBE70000A2
:101DA00001488068704700002800002002488168D0
:101DB0000278114481607047280000200B4810B55C
:101DC000016841F400710160016841F480610160C3
:101DD000016841F480710160032000F09FF80F203A
:101DE00000F006F800F050F8002010BD003C024062
:101DF00030B505461F4887B00024016841F0100146
:101E00000160006806A900F01000009001A800F031
:101E100031F90498A8B100F04DF940001649174A6D
:101E2000B0FBF1F11648491E026040F2E732C0E90A
:101E30000324C0E90114846100F05CFD040003D0B8
:101E400015E000F037F9E9E70D4800F0DDFD04008A
:101E50000DD1362000F034F8102D07D2002229468B
:101E6000362000F03BF80748056000E0012407B089
:101E7000204630BD4038024040420F000010004074
:101E8000140D00202C0000200C4882B0016841F4A1
:101E900080410160006800F4804000900748001F06
:101EA000016841F0805101600068002200F080501C
:101EB00000900F21901E02B000F010B8443802408C
:101EC000002809DB00F01F02012191404009800039
:101ED00000F1E020C0F8001170470000F0B40E4B94
:101EE0001B680C46C3F30223C3F10705042D00D978
:101EF0000425191D072901D2002300E0DB1E01265D
:101F000006FA05F1491E214099409E40761E164072
:101F10003143F0BC02F04DBE0CED00E0064900F08C
:101F2000070208684FF6FF03184040EA0220034A00
:101F300010430860704700000CED00E00000FA0557
:101F40002DE9F0470E46050065D0DFF81481D8F87A
:101F50000000F7B200F00700B04207D288F8007026
:101F6000D8F8000000F00700B04254D128683D4C7A
:101F7000810712D5400703D5206840F4E050206067
:101F80002878000703D5206840F46040206020686E
:101F9000A96820F0F000084320602878C0072DD001
:101FA000304968680839012812D0022813D0032864
:101FB00011D00968890700292DDA216821F0030171
:101FC00001432160FFF7ECFE814641F2883A0EE0C2
:101FD00009688903EFE709688901ECE7FFF7E0FE8C
:101FE000A0EB0901514502D90320BDE8F087206824
:101FF000696800F00C00B0EB810FEFD1D8F8001049
:10200000404601F00701B14207D90770006800F0AF
:102010000700B04201D00120E7E72878400705D546
:102020002068E96820F4E050084320602878000721
:1020300006D52068296920F4604040EAC10020608C
:1020400000F058F82168084AC1F30311515CC840F8
:102050000649086006480068FFF7CAFE0020C4E78A
:10206000003C02400838024030C90008340000201B
:102070002C0000200F2202600C4A136803F00303B7
:102080004360136803F0F0038360136803F4E053C4
:10209000C36012684FF4E05303EAD20202610448BD
:1020A000006800F007000860704700000838024030
:1020B000003C02400448054900680968044AC1F32D
:1020C0008221515CC840704734000020083802402B
:1020D00040C900080448054900680968044AC1F37A
:1020E0004231515CC840704734000020083802403B
:1020F00040C90008154810B5006810F00C021448DB
:1021000013D01449042A0FD0082A0ED10F4C241FD3
:102110002268236802F03F025B0207D52068C0F303
:102120008810A0FB010106E0084610BD2168C1F33C
:102130008811A1FB00010023FEF716F92168C1F305
:102140000141491C4900B0FBF1F010BD08380240C4
:102150000024F400001BB7002DE9F84F04006ED0F6
:102160002078DFF84C93C007A9F104054AD009F1A3
:1021700004000168C1F38101012908D00068C0F39F
:10218000810002280AD1D9F80000400206D528684B
:10219000800337D560680028E1D033E06068B0F58F
:1021A000803F10D0B0F5A02F286810D020F48030E8
:1021B0002860286820F4802028606068A8B1FFF7B4
:1021C000EFFD06460DE0286840F48030F4E740F467
:1021D00080202860F7E700BFFFF7E2FD801B64283E
:1021E00073D828688003F7D50CE0FFF7D9FD0646C1
:1021F00005E000BFFFF7D4FD801B6428F0D82868F5
:102200008003F7D42078DFF8AC8280074FF0000A13
:102210003ED5A748001D016811F00C0F08D00068DA
:10222000C0F3810002280BD1D9F80000400207D486
:102230002868800716D5E068012800D112E033E154
:10224000E068B8B10120C8F80000FFF7A9FD064614
:1022500005E000BFFFF7A4FD801B0228C0D8286856
:102260008007F7D52868216920F0F80040EAC1000E
:1022700028600DE0C8F800A0FFF792FD064604E0D4
:10228000FFF78EFD801B02281FD828688007F7D42F
:102290002078000722D5864F87486169703771B171
:1022A00001210160FFF77CFD064604E0FFF778FDA1
:1022B000801B022809D838688007F7D50EE0C0F8DF
:1022C00000A0FFF76DFD064605E082E0FFF768FD20
:1022D000801B02287DD838688007F7D42078400713
:1022E00068D5DFF8CCB100270BF13C0BDBF8000020
:1022F000C0000BD4DBF8001041F08051CBF8001087
:10230000DBF80000012700F0805000906B4E306831
:10231000C00510D4306840F480703060FFF740FD95
:10232000009005E0FFF73CFD0099401A022850D8C4
:102330003068C005F6D55E4EA0686C3601280FD017
:102340000528306810D020F001003060306820F09F
:1023500004003060A068B8B1FFF722FD00900FE0E4
:10236000306840F00100F4E740F004003060F7E727
:10237000FFF716FD0099411A41F28830814266D874
:1023800030688007F4D50EE0FFF70AFD009007E003
:10239000FFF706FD0099411A41F28830814256D874
:1023A00030688007F4D42FB1DBF8001021F08051A1
:1023B000CBF80010A069C8B33D49091D0968C1F3F5
:1023C000810102294AD00228504607D0C8F860008F
:1023D00000E03CE0FFF7E4FC04463BE04746C8F879
:1023E0006000FFF7DDFC064605E000BFFFF7D8FC04
:1023F000801B02282BD828688001F7D4D4E9070174
:102400000843A16A2E4A490802EB0141626A41EA87
:102410008211084394F82C1040EA0161C9F80010B9
:1024200001203866FFF7BCFC044606E03EE000BF32
:10243000FFF7B6FC001B022809D828688001F7D5F1
:1024400034E000BFFFF7ACFC001B022802D90320D8
:10245000BDE8F88F28688001F4D427E00128F7D080
:10246000D9F80000E26900F4800191421CD1226A8F
:1024700000F03F01914217D147F6C071626A0140F6
:10248000B1EB821F10D1A26A4FF0FF3300F440314C
:1024900003EB5202B1EB024F06D194F82C1000F07E
:1024A0007060B0EB016F01D00120D1E70020CFE7D1
:1024B0000438024000004742800E4742007000404E
:1024C0000000FFFF70B5040009D0606A002540B12C
:1024D00025616561A56294F8510040B10CE00120CE
:1024E00070BD6068B0F5827FF4D0E561F2E784F8F2
:1024F0005050204600F044F8022084F85100206833
:10250000016821F040010160A088218900F48270F7
:1025100001F404410843A18901F400610843217CCE
:1025200001F002010843217D01F001010843218BE4
:1025300001F400710843217F01F03801084394F849
:10254000201001F080010843218D01F4005108435F
:1025500021680860A069042101EA104094F8241061
:1025600001F010010843216848602068C16921F426
:102570000061C1616565012084F85100002070BDD3
:102580002DE9F04186B0064614216846FEF75FF853
:1025900034493068884262D133480024016841F4EC
:1025A00080510160006800F4805005902E48143876
:1025B000016841F002010160016801F0020105912A
:1025C000016841F0010101600068022500F001008E
:1025D00005901820CDE9000502AA03274FF0050851
:1025E00082E8900169462148FFF7DCFA8020CDE9B6
:1025F000000502AA694682E890011D48FFF7D2FA59
:102600001D4D1C487F062860C5E901744FF48068A1
:10261000C5E903486C61AC61EC612C6228466C62D0
:10262000FFF756FA08B1FEF718FCF564AE63124DD9
:10263000104860351830E5E802074020A5E8110190
:102640000D4845F814496030AC61EC612C626C6255
:10265000FFF73EFA08B1FEF700FCB564AE6306B0C2
:10266000BDE8F081003001404438024000040240DF
:102670000000024040640240D80900202DE9F84FD4
:10268000044690F8500000270A9E1D4692468B464D
:102690004FF0010901280ED0012084F85000FFF707
:1026A0007FFB804694F85100616801280CD0B1F599
:1026B000827F07D102E00220BDE8F88FA16809B946
:1026C000042801D00227C2E0BBF1000F27D0BAF1E5
:1026D000000F24D01DB394F85100042802D0052027
:1026E00084F8510000206065C4F838A0E587A5870C
:1026F000C4F830B0E586A58620646064206801686F
:10270000490603D4016841F040010160E068B0F57A
:10271000006F606805D0E8B3012D46D07FE0012747
:1027200095E008B1012D39D1206B21680088C8607F
:10273000206B801C2063E08E401EE0862EE0206827
:10274000816889070FD5E18E69B1B9F1010F0AD10E
:10275000216B0988C160206B801C2063E08E401EC5
:10276000E0864FF0000920688168C9070CD0E18F2E
:1027700051B1C068A16B0880A06B801CA063E08F82
:10278000401EE0874FF00109FFF70AFBA0EB0800AD
:10279000B04200E009E001D3701C50D1E08E002867
:1027A000CDD1E08F0028CAD13FE0206B21680078AE
:1027B0000873206B401C2063E08E401EE0862EE0F4
:1027C0002068816889070FD5E18E69B1B9F1010FE1
:1027D0000AD1216B09780173206B401C2063E08EC5
:1027E000401EE0864FF0000920688168C9070CD0C0
:1027F000E18F51B1C068A16B0870A06B401CA06351
:10280000E08F401EE0874FF00109FFF7C9FAA0EB07
:102810000800B04202D3701C01D010E07EB1E08EFF
:102820000028CDD1E08F0028CAD14246314620464B
:1028300001F0BAFC28B101272020606507E00327DA
:1028400005E0A06818B92068C16880680090012080
:1028500084F85100002084F8500038462CE7704777
:102860007047000070B590F83C20012A32D0012456
:1028700080F83C40022280F83D2003685A689D6839
:1028800022F070060A6832435A60134B02689A427B
:1028900014D0B2F1804F11D0104B9A420ED0104B91
:1028A0009A420BD00F4B9A4208D00F4B9A4205D058
:1028B0000E4B9A4202D00E4B9A4204D1496825F041
:1028C00080031943916080F83D40002180F83C105E
:1028D000084670BD022070BD0000014000040040A9
:1028E00000080040000C004000040140004001408E
:1028F0000018004010B5040003D094F83D0010B15A
:1029000007E0012010BD002084F83C00204600F0C4
:102910001FF8022084F83D00211D206801F08CFD85
:10292000012084F8460084F83E0084F83F0084F8D3
:10293000400084F8410084F8420084F8430084F8A1
:10294000440084F8450084F83D00002010BD0000DC
:1029500008B50C4A01680C48914207D1016841F062
:1029600004010160006800F0040009E0074A914298
:1029700007D1016841F008010160006800F008001B
:10298000009008BD0008004040380240000C0040A4
:1029900090F83D10012901D001207047022180F8F4
:1029A0003D1000681149884214D0B0F1804F11D019
:1029B0000F4988420ED00F4988420BD00E498842F9
:1029C00008D00E49884205D00D49884202D00D49F1
:1029D000884204D1816801F00701062903D001680B
:1029E00041F001010160002070470000000001403B
:1029F0000004004000080040000C004000040140BA
:102A0000004001400018004090F83D10012901D01D
:102A100001207047022180F83D100168CA6842F029
:102A20000102CA6000681149884214D0B0F1804F99
:102A300011D00F4988420ED00E4988420BD00E4962
:102A4000884208D00D49884205D00D49884202D0FD
:102A50000C49884204D1816801F00701062903D09E
:102A6000016841F001010160002070470000014051
:102A70000004004000080040000C00400004014039
:102A8000004001400018004070B5044690F83C003A
:102A90000025012817D0012684F83C60022084F824
:102AA0003D002068826822F0770222F47F42826033
:102AB0000868502838D00DDC20284FD005DC90B3B2
:102AC000102811D14AE0022070BD302846D040289D
:102AD0000AD13BE060282FD070280DD0B0F5805F80
:102AE00003D0B0F5005F12D0012584F83D600020CE
:102AF00084F83C00284670BDCB68D1E901212068EC
:102B000001F00BFD2068816841F0770109E0CB6896
:102B1000D1E90121206801F000FD2068816841F4BD
:102B200080418160E1E719E0CA684968206801F0E6
:102B3000C9FD5021206806E0CA684968206801F094
:102B4000D2FD6021206801F0F2FCCEE7CA68496836
:102B5000206801F0B7FD40212068F4E722680146B3
:102B60001046F0E7704770B50446006801694FF001
:102B70000005C943890715D4C168C943890711D421
:102B8000E91E0161012020772068806980072046C6
:102B900002D0FFF7E7FF04E000F0C2F8204600F0A3
:102BA00054F9257720680169C943490717D4C168DA
:102BB000C943490713D46FF0040101610220207753
:102BC0002068806910F4407F204602D0FFF7CAFFDA
:102BD00004E000F0A5F8204600F037F925772068DA
:102BE0000169C943090716D4C168C943090712D44A
:102BF0006FF008010161042020772068C069800718
:102C0000204602D0FFF7AEFF04E000F089F820462E
:102C100000F01BF9257720680169C943C90617D45C
:102C2000C168C943C90613D46FF0100101610820BF
:102C300020772068C06910F4407F204602D0FFF75B
:102C400091FF04E000F06CF8204600F0FEF82577D4
:102C500020680169C943C90708D1C168C943C907C8
:102C600004D1891E0161204600F054F920680169F1
:102C7000C943090609D4C168C943090605D46FF0E0
:102C8000800101612046FFF7EAFD20680169C94320
:102C9000490609D4C168C943490605D46FF040010B
:102CA0000161204600F040F920680169C9438906A6
:102CB0000BD4C168C943890607D46FF020010161B4
:102CC0002046BDE87040FFF7CBBD70BD10B586B0A3
:102CD000044614216846FDF7BAFC0E492068884274
:102CE00015D10D480021026842F008020260006818
:102CF00000F0080005904FF4804000900220CDE9DC
:102D00000101CDE9031069460448FEF74BFF06B008
:102D100010BD00000008004030380240000C0240A6
:102D2000704770B5044690F83C0000260D46012817
:102D30000FD0012084F83C006AB1042A1DD0082A73
:102D40002FD00C2A3FD00126002084F83C003046CA
:102D500070BD022070BD206801F0F2FB206881691F
:102D600041F0080181612068816921F004018161DD
:102D7000206881692A69114311E0206801F010FC84
:102D80002068816941F4006181612068816921F4D2
:102D900080618161206881692A6941EA022181613B
:102DA000D2E7206801F032FC2068C16941F00801D7
:102DB000C1612068C16921F00401C1612068C16955
:102DC0002A69114311E0206801F054FC2068C169B0
:102DD00041F40061C1612068C16921F48061C16171
:102DE0002068C1692A6941EA0221C161ACE710B5D6
:102DF000040003D094F83D0010B107E0012010BD9D
:102E0000002084F83C00204600F01EF8022084F8E0
:102E10003D00211D206801F00FFB012084F84600D1
:102E200084F83E0084F83F0084F8400084F84100B4
:102E300084F8420084F8430084F8440084F8450094
:102E400084F83D00002010BD7047704710B504465F
:102E5000022249B104290ED0082913D094F8410068
:102E6000012816D0012010BD94F83E000128F9D1A8
:102E700084F83E200FE094F83F000128F2D184F856
:102E80003F2008E094F840000128EBD184F840206E
:102E900001E084F841200122206801F031FB16494D
:102EA0002068164A884201D0904203D1436C43F413
:102EB000004343642068884213D0B0F1804F10D0A3
:102EC0000F4988420DD00F4988420AD00E498842E6
:102ED00007D0904205D00D49884202D00C49884263
:102EE00004D1816801F00701062903D0016841F08F
:102EF00001010160002010BD0000014000040140FC
:102F00000004004000080040000C00400040014068
:102F10000018004000680349884201D1FEF746BF0F
:102F20007047000000100040704770477047000075
:102F3000F8B5016804460868CA684B6910F00F0FBD
:102F40004FF0000559D003F0010602F490773743A3
:102F500065D0C10705D0D10503D5216C41F0010131
:102F60002164410705D5D90703D0216C41F0020146
:102F70002164810705D5D90703D0216C41F00401F4
:102F80002164010707D502F02001314303D0216CF1
:102F900041F008012164216C00293AD0800604D553
:102FA000900602D5204601F0DFFB20684069216CC5
:102FB000C0F38010090700D460B3204601F0ADFBD8
:102FC00020684069400621D52068143050E8001F71
:102FD00021F0400140E80012002AF5D1A06BA8B111
:102FE0006C490165A06BFEF791FC002811D0A06B25
:102FF000016D01B0BDE8F040084783060FD5930688
:103000000DD52046BDE8F84001F0AEBB2046FFF7E5
:103010008DFFF8BD2046FFF789FF2564F8BD266BBC
:103020002023012E79D1C60677D5D60675D5086836
:10303000486800904869400640D5A16B0868406820
:103040000004000CEAD0A28D8242E7D9E085C8696D
:10305000B0F5807F2DD020680C3050E8001F21F49F
:10306000807140E80012002AF5D12068143050E841
:10307000001F21F0010140E80012002AF5D120686C
:10308000143050E8001F21F0400140E80012002AEF
:10309000F5D184F83E30256320680C3050E8001FDD
:1030A00021F0100140E80012002AF5D1A06BFEF7D4
:1030B000E4FBA08DE18D401A81B229E0A08DE18D65
:1030C000401A81B2E08D0028A8D00029A6D020683F
:1030D0000C3050E8002F22F4907240E80026002EB9
:1030E000F5D12068143050E8002F22F0010240E8AA
:1030F0000026002EF5D184F83E30256320680C3080
:1031000050E8002F22F0100240E80023002BF5D1F8
:103110002046FFF70AFFF8BDFFE705062BD5150689
:1031200029D594F83D002128F5D1A068B0F5805F3D
:1031300001D12069B0B1206A411C21622168007868
:103140004860E08C401E0004000CE084E3D120685D
:10315000C16821F08001C1602068C16841F0400170
:10316000C160D8E7206A0088C0F308004860206A80
:10317000801C2062E5E74006CDD55006CBD5CA6855
:10318000204622F04002CA6084F83D3000F085F904
:10319000C1E700000B47000870B5040004D094F8A4
:1031A0003D00002510B106E0012070BD84F83C50C0
:1031B000204600F023F8242084F83D002068C168F0
:1031C00021F40051C160204601F02EFB2068016906
:1031D00021F4904101612068416921F02A01416197
:1031E0002068C16841F40051C1602564202084F842
:1031F0003D0084F83E00002070BD00002DE9F04342
:1032000087B0064614216846FDF721FA6B486A4BE1
:1032100032686A491438022500244FF003084FF041
:1032200007099A4232D10A6842F010020A6009681E
:1032300001F010010591016841F00201016001688F
:1032400001F002010591016841F00101016000688F
:1032500002AA00F0010005908020CDE9000582E877
:10326000100369465648FEF79DFC2802CDE900058B
:1032700002AA694682E810035248FEF793FC002236
:1032800005212520FEF72AFE25203BE04E4B1F1589
:103290009A423CD14949091F0A6842F480220A60D7
:1032A000096801F480210591016841F00401016081
:1032B000006802AA00F0040005904FF44060CDE9D8
:1032C000000582E8100369464048FEF76BFC414D5B
:1032D0003F4828607804C5E90104C5E903476C61EB
:1032E000AC61EC612C6228466C62FEF7F1FB08B120
:1032F000FDF7B3FDB563002205212720AE63FEF77D
:10330000EDFD2720FEF7DCFD07B0BDE8F083324B72
:103310009A42F9D10A6842F020020A60096801F075
:1033200020010591016841F04001016000680294AC
:1033300000F0400005904FF48440CDE900050820DE
:10334000CDE9038069462548FEF72CFC214D244831
:1033500060354FF020682860C5E90184C5E903475E
:103360006C61AC61EC612C6228466C62FEF7B0FBCC
:1033700008B1FDF772FDB563AE63164D1848C03550
:103380007830E5E80208402091C5124845F8144914
:10339000C030AC61EC612C626C62FEF799FB08B145
:1033A000FDF75BFD7563002205214720AE63FEF744
:1033B00095FD4720A6E70000001001404438024078
:1033C00000040240000002400048004000080240A3
:1033D00028600240F40B0020001401400018024055
:1033E00028640240704700002DE9F843044690F835
:1033F0003D001F4616460D4620284CD1C5B1BEB132
:1034000094F83C00012846D0012084F83C004FF09D
:103410000008C4F84080212084F83D00FEF7C0FC7D
:10342000A6848146E684A068B0F5805F03D004E0FE
:103430000120BDE8F883206928B12E465FF0000521
:1034400084F83C800EE00026FAE78021204601F057
:1034500071FAA0B9AEB116F8010B21684860E08C92
:10346000401EE084E08C4B464FF00002009700289D
:10347000EBD14FF04001204601F05CFA30B103205F
:10348000D7E735F8020BC0F30800E6E7202084F800
:103490003D000020CDE70220CBE77047FEE70000AB
:1034A0002DED028B002006F0B9FD02E0642005F04E
:1034B0002AFDFDF77FFA0028F8D12A4AA2F110046C
:1034C000101D9146211D8046FDF780FA0023DFED97
:1034D000260A9FED260A264A012104F1300000F059
:1034E00047FDA4F11000FDF7FFF904F1A80005F075
:1034F0002DFC04F12C073E1F9FED1E8A351F4A4606
:10350000211D4046FDF762FA16494046983105F004
:1035100075FC04F11401134891EC030A211D2038B5
:10352000D1EC031A00F0D8FA0E483B463246294641
:10353000203805F049FB002004EB8001401C91ED90
:10354000090AC0B2032820EE080A81ED090AF3D364
:1035500094ED0A0A0120B1EE400A84ED0A0A05F052
:10356000D2FCCCE7F05300200080894500A08C45B8
:1035700054C90008E12E654210B531483149408AEE
:103580000A88088020EA02042F49142201F114005D
:10359000FCF7A4FF012100222B48402C03D08271AC
:1035A000802C06D000E08171C271B4F5807F06D016
:1035B00000E0C1710272B4F5007F06D000E0017234
:1035C0004272B4F5806F06D000E041728272B4F5A9
:1035D000006F06D000E08172C272B4F5805F06D041
:1035E00000E0C1720273B4F5005F06D000E0017321
:1035F0004273B4F5804F06D000E041738273B4F596
:10360000004F05D000E08173C273102C05D000E09C
:10361000C1730271202C10D000E001714271417918
:10362000427A01EA02030374C37B19404174C17AF0
:103630000A4082741940C17410BD4171EFE7000067
:10364000B053002004020020705C00200F4810B529
:103650000D4901600321416000214FF41022816077
:10366000C0E903124FF4001242610176417681767F
:10367000C17601774177FDF7B6FE002803D0BDE89B
:103680001040FDF7EABB10BD006400403009002087
:103690000E4810B50C4901600321416000214FF430
:1036A00030228160C0E90312416101764176817662
:1036B000C17601774177FDF796FE002803D0BDE87B
:1036C0001040FDF7CABB10BD00680040580900203B
:1036D0001D4808B5016841F480010160016801F4EA
:1036E00080010091016841F400110160006800222E
:1036F00000F40010009005210C20FEF7EFFB0C20D9
:10370000FEF7DEFB002205213920FEF7E7FB39201A
:10371000FEF7D6FB002205213A20FEF7DFFB3A2018
:10372000FEF7CEFB002205213B20FEF7D7FB3B2016
:10373000FEF7C6FB002205214520FEF7CFFBBDE8C2
:1037400008404520FEF7BCBB3038024010B5C0B081
:103750001C2232496846FCF748FF0021684605F004
:10376000DEFB2F4C2D491C2220601C3107A8FCF7E2
:103770003CFF002107A805F0D2FB284960601C220D
:1037800038310EA8FCF731FF00210EA805F0C7FB69
:103790002249A0601C22543115A8FCF726FF002105
:1037A00015A805F0BCFB1D49E0601C2270311CA867
:1037B000FCF71BFF00211CA805F0B1FB1749206195
:1037C0001C228C3123A8FCF710FF002123A805F050
:1037D000A6FB124960611C22A8312AA8FCF705FF4C
:1037E00000212AA805F09BFB0C49A0611C22C431D2
:1037F00031A8FCF7FAFE002131A805F090FB07493B
:10380000E0611C22E03138A8FCF7EFFE002138A867
:1038100005F085FB206240B010BD00002CC80008F8
:10382000000000202DE9F04186B014216846FCF725
:103830000EFF29480025016841F00201016001687E
:1038400001F002010591016841F040010160016849
:1038500001F040010591016841F00101016001683A
:1038600001F001010591016841F008010160016862
:1038700001F008010591016841F00401016001684F
:1038800001F004010591016841F0800101600068C8
:10389000124F00F080000590012210213846FEF7FB
:1038A00079FADFF83C80012211464046FEF772FAB1
:1038B0001020012402268DE8710069463846FEF783
:1038C00071F901AA009482E8700069464046FEF74B
:1038D00069F906B0BDE8F0813038024000000240CE
:1038E00000040240104810B50E4901604FF4827187
:1038F0004160002102228160C0E90312012242617D
:10390000520282613822C0E90721416281620A21A4
:10391000C162FEF7D7FD002803D0BDE81040FDF7D7
:103920009CBA10BD003001408009002010B58EB057
:1039300000240794089409940A940B941C21684667
:103940000C94FCF784FE1E481C49C0E9001445F2A3
:103950000721C0E9024104618461FEF7CBFF08B191
:10396000FDF77BFA4FF48050079007A91448FFF742
:103970008BF808B1FDF771FA1148FFF738FA08B172
:10398000FDF76BFA0B940BA90D480C94FEF76AFF38
:1039900008B1FDF762FA6020CDE900040294082224
:1039A000694607480494FFF7BCF908B1FDF755FADA
:1039B0000348FFF78BF90EB010BD0000000800406F
:1039C000980A002010B586B000241748009401948E
:1039D00002940394049413490594016042F2D001C7
:1039E000C0E9011440F28111C0E903148461FEF7BB
:1039F00081FF08B1FDF731FA4FF48050009069461D
:103A00000948FFF741F808B1FDF727FA049404A923
:103A100005480594FEF726FF002801D0FDF71DFAA2
:103A200006B010BD000C0040E00A00200C4810B5A4
:103A30000A4901604FF4E1314160002181600C22AC
:103A4000C160C0E904128161C161FFF7A5FB0028D4
:103A500003D0BDE81040FDF700BA10BD00100140D2
:103A6000280B00200C4810B50A4901600B49416041
:103A7000002181600C22C160C0E904128161C16132
:103A8000FFF78AFB002803D0BDE81040FDF7E5B939
:103A900010BD0000004800406C0B0020A086010013
:103AA0000C4810B50A4901604FF4E1314160002132
:103AB00081600C22C160C0E904128161C161FFF71D
:103AC0006BFB002803D0BDE81040FDF7C6B910BD60
:103AD00000140140B00B0020F5EEC01AB0EE413AE0
:103AE000F0EE603AB0EE404AF1EE10FA00B5024650
:103AF00009D1B5EEC02AF1EE10FA04D1F5EEC02AD4
:103B0000F1EE10FA78D021EEA10A02EE020A02EEDE
:103B1000A20A05F08DF921EE805A62EE004A92ED7C
:103B2000011AD2ED030A22EE800AD2ED002A21EE1C
:103B3000202AD2ED021A22EE811A5C4802EEE12A16
:103B400001EEA01AF6EE001A52EEA21A40EEA01AEA
:103B500060EE020A64EEA12A45EE610A40EE412AB7
:103B600025EE010A90ED011A04EEC20AB5EEC01A64
:103B7000F1EE10FA2CDD90ED011AD0ED021A21EED3
:103B8000222A9FED4B1A42EE011AC0ED021AD0ED27
:103B9000011A21EEA02AD0ED031A42EE011AC0ED5F
:103BA000031AD0ED011A21EE802AD0ED041A42EE5C
:103BB000011AC0ED041A90ED021A34EE014A90ED9C
:103BC000031A73EE813A90ED041A33EE013A07E0DE
:103BD0009FED381A80ED021A80ED031A80ED041A69
:103BE00090ED001A01EE224A90ED001A41EE203AC3
:103BF000D0ED000A00EE803A9FED2F0AD2ED021AB6
:103C000024EE002A63EE802A23EE001A92EC020AC8
:103C100092ED033A60EEC23A41EEE23A43EE413AA7
:103C200073EE804A60EE023AC2ED004A41EE813AFC
:103C300043EE623A33EEA04A60EE223A20EE010AE9
:103C400082ED014A40EEC13A00EEA20A43EE023A8A
:103C500001EEC20A73EEA13A70EE030A24EEA40A42
:103C6000C2ED023AC2ED030A04EE040A03EEA30A0F
:103C700000EEA00A05F0DCF8D2ED000A60EE800A42
:103C8000C2ED000AD2ED010A60EE800AC2ED010A1F
:103C9000D2ED020A60EE800AC2ED020AD2ED030AFA
:103CA00020EE800A82ED030A00BD000058020020C9
:103CB0006F12833A000000006F12033AB5EEC00A9B
:103CC000F1EE10FA01DCB1EE400A7047FEE7FEE7C4
:103CD000E8B390ED101A80ED111A90ED0F1A80EDF7
:103CE000101AC0ED060AFCEEE00A80ED070ABCEEF1
:103CF000C00A10EE902A93B210EE102A92B29A1ACD
:103D00004B089A4200DD521A5B429A4200DA0A449A
:103D100000EE102AB8EEC00A80ED0F0AD0ED010ABD
:103D200060EE801AC0ED091AD0ED0A0A90ED022A61
:103D300042EE000A30EE410AC0ED0A0A90ED0D2A6B
:103D400080ED0E2A90ED0C2A80ED0D2A00E018E09F
:103D500080ED0C0A90ED031A21EE001A80ED0B1A8B
:103D600090ED050AF4EEC00AF1EE10FA0CDCB1EEAB
:103D7000400AF4EEC00AF1EE10FA05D390ED0A0AFB
:103D800004E09FED0F0A704780ED0A0A31EE800AC9
:103D900030EE010A80ED080AD0ED040AB4EEE00A24
:103DA000F1EE10FA06DCF1EE600AB4EEE00AF1EE94
:103DB00010FA01D2C0ED080A90ED080A7047000021
:103DC0000000000070B504002DED048BF0EE608A59
:103DD000B0EE409A9FED608A29D094F860004FF0D1
:103DE000010500063FD594ED080AD4ED040A9FEDC5
:103DF0005B1A60EE810AB4EEE00AF1EE10FA2AD303
:103E000094ED060AD4ED070A30EE600AFFF756FF7C
:103E100094ED061A5249C0EE010A10EE900A88424B
:103E20000ADDD4E91A01401C41F1000106E0B0EEC0
:103E3000480ABDEC048B70BD00200146C4E91A019C
:103E4000D4E91A124FF4FA630020591A904102D2B1
:103E500084F8705002E094F8700020B1B0EE480A87
:103E600084ED080AE5E794ED100A78EEC90A84EDBE
:103E7000110AB7EE000A94ED0F1A20EE200A84ED25
:103E8000101AC4ED068A84ED079A08EE010A84ED43
:103E90000F0A207898B910EE100A3249DFED320A85
:103EA000884203DD30EE600A84ED0F0A10EE100A3E
:103EB0002E49884203D930EE200A84ED0F0A94ED92
:103EC000010AD4ED0F0A60EE201AC4ED091A94ED30
:103ED0000A0A94ED022A02EE200A70EEC10A84ED6D
:103EE0000A0A94ED0D2A84ED0E2A94ED0C2A84ED35
:103EF0000D2AC4ED0C0A94ED031A21EE201A84ED6C
:103F00000B1AD4ED050AB4EEE00AF1EE10FA06DC65
:103F1000F1EE600AB4EEE00AF1EE10FA01D2C4ED5F
:103F20000A0A94ED0A0A31EE800A30EE010A84EDA5
:103F3000080AD4ED040AB4EEE00AF1EE10FA06DC49
:103F4000F1EE600AB4EEE00AF1EE10FA01D2C4ED2F
:103F5000080A94ED080A6CE700000000CDCCCC3DC7
:103F60006666663F000034430000B443000034C37B
:103F700000282AD0002A28D0017092ED001A80ED86
:103F8000011A92ED011A80ED021A92ED021A80EDEB
:103F9000031A80ED040AC0ED050A9FED0C0A80F8B3
:103FA000603080ED0E0A80ED0D0A80ED0C0A80ED88
:103FB000080A80ED0B0A80ED0A0A80ED090A80EDFF
:103FC000110A80ED100A80ED0F0A70470000000012
:103FD00030B5144B1C68656945F0400565611B6888
:103FE000DC6844F01004DC600F4B1C68256825F089
:103FF000010525601C682568ED07F7D11D680B4C8D
:10400000AC601C68E060186801611868426018685C
:10401000016841F4802101601868016841F00101E4
:10402000016030BD6C0B0020F40B00200448004000
:1040300070B5154A13681C6824F001041C601368ED
:104040001C68E407F7D1114E4FF40014B34202D9B3
:104050000E4D4C3D04E00E4DAB4203D90B4D503D8F
:104060002C6008E00A4E0A4D603EB83DB34201D9CB
:10407000EC6000E0AC60D8601068416010680168D6
:1040800041F00101016070BDB40C00205864024091
:10409000B860024010B5134CC4F88204B4F8800430
:1040A00000281DD0D4F882040178A52918D1052153
:1040B00000F029FD012813D1D4F88204C01D00F0BE
:1040C00013F8D4F88204B4F88014B0F80120891AE7
:1040D0000939A4F88014B0F8011008440930DBE76E
:1040E00010BD000068560020264930B4D1F8822463
:1040F00040F20224B2F80520A2F20223A2422AD002
:104100000EDC012A18D0032A1BD0B2F5817F1DD006
:10411000A2F50072013A0DD101460D221A482DE098
:10412000042B1DD0052B20D0072B23D0FF2B01D132
:10413000C1F8860430BC7047014613480B223B3857
:104140001CE0014610482022203817E001460E48A6
:104150000422123012E001460B48102230380DE0E4
:10416000014609480122113008E0014606480722AD
:10417000163003E00146044804220D3030BCFCF741
:10418000F2B90000685600202D5B002008B58020A1
:10419000044B8200A3F500710090A1F5007005F0BA
:1041A00029FB08BD685A002038B504461248134B55
:1041B0000068B0FBF3F04FF47A73584300906068E6
:1041C000B0F5827F0DD10B4600920022802120465F
:1041D00000F016F870B1606D40F0200060650320BB
:1041E00038BD009830B1401E009020688068C04300
:1041F0000006F6D5002038BD3400002000366E01E0
:104200002DE9F8431E46914688460446089DFDF771
:10421000C7FD401B351AFDF7C3FD0746254800685A
:10422000C0F3CB30684338E0701C37D0FDF7B8FDE1
:10423000C01BA84203D215B1009860B32CE02068DF
:10424000416821F0E00141606068B0F5827F0BD1E8
:10425000A068B0F5004F02D0B0F5806F04D120689F
:10426000016821F040010160A06AB0F5005F09D14A
:104270002068016821F4005101602068016841F460
:1042800000510160012084F85100002084F85000A2
:104290000320BDE8F8830025401E00902068816857
:1042A00038EA010004D000214945BDD10020F0E7E3
:1042B0000121F9E73400002010B50E4C207960711F
:1042C0000D4801780D4800680F3061B10CA1FCF772
:1042D000C2F8012020716179C0B2884208D0BDE8DF
:1042E000104002F0C3BD09A1FCF7B5F80020F1E7CA
:1042F00010BD000006020020B60000207C02002055
:104300004341503A434C4F53450000004341503A1B
:104310004F50454E2000000010B5502080F311880A
:10432000BFF34F8FBFF36F8F06F00EFB18B1044938
:104330004FF080500860002080F3118810BD00000D
:1043400004ED00E030B593B030216846FCF77FF90A
:1043500014210CA8FCF77BF91D480025016841F0E9
:1043600080510160006800F0805011901948016888
:1043700041F4804101600068022400F48040119003
:1043800001200090000401908001CDE90640062044
:104390000890A820CDE9090404200B906846FDF799
:1043A000DBFE08B172B6FEE70CA90F2081E83100F0
:1043B0004FF4A0500F904FF48050109005210CA89E
:1043C000FDF7BEFD002801D072B6FEE713B030BD88
:1043D00040380240007000401048016841F470010C
:1043E00001600F48016841F0010101600C4A0021A1
:1043F0000832116002680B4B1A400260031D0A4A22
:104400001A60026822F48022026005480C300160C4
:1044100002495806803908607047000088ED00E0C6
:1044200000380240FFFFF6FE103000240148FEF77E
:104430009ABB0000140D0020F0B50268254C264DF3
:10444000264E274F274B4FF0804CA04209D06045A5
:1044500007D0A84205D0B04203D0B84201D098425C
:1044600004D122F0700E4A6842EA0E02A0421BD02C
:10447000604519D0A84217D0B04215D0B84213D029
:10448000984211D0184DA8420ED0184DA8420BD01A
:10449000174DA84208D0174DA84205D0164DA84286
:1044A00002D0164DA84203D122F44075CA682A43AF
:1044B0004D6922F080022A4302608A68C2620A685B
:1044C0008262A04201D0984201D1096901630121B1
:1044D0004161F0BD000001400004004000080040C0
:1044E000000C004000040140004001400044014035
:1044F0000048014000180040001C0040002000401F
:1045000010B501F01F030121046A99408C43046235
:10451000016A9A401143016210BD10B5846842EAF5
:10452000032224F47F440A432243826010BD826840
:1045300022F070020A4342F00701816070470000D8
:10454000F0B5026A22F001020262036A42688469DD
:10455000124E24F073050C682C4323F002058B687F
:104560002B430D4DA84201D0B04205D123F00807DE
:10457000CB683B4323F00403A84201D0B04205D1ED
:104580004D6922F4407215438A692A43426084616E
:10459000496841630362F0BD00000140000401402E
:1045A000F0B5026A22F010020262026A436884696E
:1045B0000D6824F4E64444EA05248D6822F02002C4
:1045C00042EA05120F4D104EA84201D0B04206D16A
:1045D000CF6822F0800242EA071222F04002A8428D
:1045E00001D0B04207D14D6923F4406343EA85030B
:1045F0008D6943EA8503436084614968816302628F
:10460000F0BD00000000014000040140F0B5026A66
:1046100022F480720262026A4368C46922F4007262
:1046200024F073050C68124E2C438D6842EA052273
:104630000E4DA84201D0B04206D1CF6822F40062EC
:1046400042EA072222F48062A84201D0B04207D198
:104650004D6923F4405343EA05138D6943EA05137A
:104660004360C4614968C1630262F0BD000001405B
:104670000004014030B5026A22F480520262046AEA
:104680004268C3690D6823F4E64343EA05238D6855
:1046900024F4005444EA0534084DA84202D0084DE1
:1046A000A84204D14D6922F4804242EA8512426058
:1046B000C36149680164046230BD0000000001402C
:1046C0000004014010B5036A046A24F00104046286
:1046D000846924F0F00444EA021423F00A020A4335
:1046E0008461026210BD10B5036A23F010030362F7
:1046F0008369046A23F4704343EA023224F0A0037E
:1047000043EA01118261016210BD10B5806B002186
:10471000C185C184FEF70AFC10BD01680C3151E867
:10472000002F22F4907241E80023002BF5D101689C
:10473000143151E8002F22F0010241E80023002B40
:10474000F5D1016B012909D101680C3151E8002F25
:1047500022F0100241E80023002BF5D1202180F83F
:104760003E1000210163704708B590F83E102229E1
:1047700001D0022008BD82684FF480539A4201D1D3
:10478000016921B1816A9A421BD04AB10AE00268EC
:10479000816A5268C2F308020A80816A891C08E0B3
:1047A000026972B10268526802F07F020A70816A7F
:1047B000491C8162C18D491E0904090CC18503D0C1
:1047C00019E002685268F1E70168CA6822F0200225
:1047D000CA600168CA6822F48072CA6001684A69C6
:1047E00022F001024A61202180F83E10016B01296C
:1047F00003D0FEF7F7FD002008BD0021016301682A
:104800000C3151E8002F22F0100241E80023002B68
:10481000F5D101680A68D20602D50A684968009194
:10482000818DFEF782FBE6E770B5044600680169FA
:10483000E26821F44051114301612169A068E269F5
:1048400008436169114308432168CA6849F20C634F
:104850009A430243CA6020684169A26921F4407109
:104860001143416131492068884202D03049884271
:1048700002D1FDF72FFC01E0FDF71CFCE2690023EB
:10488000192164253226B2F5004F626828D0A0FBBA
:104890000101930F9200FBF767FD0146B0FBF5F0B5
:1048A0006FF01802504301EB800006EB0010B0FBE4
:1048B000F5F000F0F002B1FBF5F002EB0012B1FBF5
:1048C000F5F06FF01803584301EB800006EB001081
:1048D000B0FBF5F000F00F0021681044886070BD57
:1048E000A0FB010192185B41FBF73EFD0146B0FBC6
:1048F000F5F00201B1FBF5F06FF01803584301EB3E
:10490000800006EBC000B0FBF5F000F0F80002EB11
:104910004002B1FBF5F0584301EB800006EBC0000C
:10492000B0FBF5F000F00700D6E7000000100140F2
:10493000001401402DE9F041984617460E46044602
:10494000069D27E0681C25D02DB1FDF729FAA0EBC4
:104950000800A8421ED920680C3050E8001F21F43E
:10496000D07140E80012002AF5D12068143050E8D8
:10497000001F21F0010140E80012002AF5D120209B
:1049800084F83D0084F83E00002084F83C000320B9
:10499000BDE8F0812068006836EA000004D00020FD
:1049A000B842CFD00020F3E70120F9E70148FEF735
:1049B000BFBA0000280B002038B5284800680168FD
:1049C000890603D501684068009038BD244909680C
:1049D000C906FAD501684068224A0090106801684B
:1049E0004FF024030C032049046824F00104046000
:1049F00016D410684468C4F12404A4B20C80436047
:104A00001068016841F4002101601068016841F0FC
:104A100001010160122CD8D1144901F1160015E0F2
:104A200014686068C0F1240080B208806360104997
:104A30008B6A23F400238B6211680A6842F001023A
:104A40000A601228C1D1094901F13A0004F04EFF71
:104A5000BDE83840002003F069BF00006C0B002067
:104A600000480040F40B0020F8010020F85B002013
:104A70000060024038B51F480068C00638D51E489F
:104A800001680A6849680091816B09680A684FF4F7
:104A900000731403194A0C6824F001040C60816B44
:104AA0000C686468C4F50074A2F8804409684B601F
:104AB000816B09680A680AD442F400220A60806B9C
:104AC0000068016841F0010101600C4809E022F42E
:104AD00000220A60806B0068016841F001010160FA
:104AE0000748FFF7D7FABDE838400A2003F01EBF99
:104AF00038BD000000140140B00B002068560020B3
:104B000068580020FEE730B50C4605000CD0022C9A
:104B10000AD9FF22611EFCF7E9F9291911F8011CD5
:104B2000814201D1012030BD002030BD10B504F01C
:104B3000A3F8034C206004F0B7F8606010BD0000DB
:104B4000FC01002003480622014680EC060A0248C8
:104B500005F076BB585C0020280B002003B40198B8
:104B60004100009850EAC12018BF04204A0D18BF28
:104B700040F0010040F2FF72B2EB515F08BF40F01D
:104B80000200012808BF052002B07047410008025A
:104B900018BF04200A0E18BF40F001004FF07F42FA
:104BA00032EA010108BF40F00200012808BF0520D9
:104BB00070470907090E002804DB00F1E02080F8A7
:104BC0000014704700F00F0000F1E02080F8141D81
:104BD0007047000010B54FF00E402DED028BB0EE87
:104BE000408A18EE104A00EB4400B0F1506F4AD8EA
:104BF0004FF0FC40B0EB440F22D2B0EEC80AF7EE03
:104C0000000A30EEC00AF6EE000A60EE208A18EEC6
:104C1000900A04F0FCFE01EE100A14F0004F1DBFD4
:104C2000DFED2D0A9FED2D0AB1EE411ADFED2C0AC2
:104C300008BF9FED2C0AF8EE001A21EE218A05E04C
:104C4000DFED290A68EE088AB0EE600A9FED271AA8
:104C5000DFED271A30EE080A48EE811A9FED251A7B
:104C600008EEA11ADFED241A48EE811A9FED231AEF
:104C700008EEA11A68EE281ABDEC028B01EE810A3B
:104C800030EE200A10BD4FF0E440B0EB440F0CD9D9
:104C900018EE100AFFF77AFF042808BF01F03EFF64
:104CA000B0EE480ABDEC028B10BD4FF07F40B0EB78
:104CB000440F07D2B0EE480ABDEC028BBDE81040AD
:104CC00001F01EBF0120FBF7F1FCBDEC028BBDE83B
:104CD000104001F01BBF00000000C9BF22AAFDB9AF
:104CE0000000C93F22AAFD390000000024FE1C3D3F
:104CF000C78AD83C1E67383D1B93993DAFAA2A3E10
:104D000070B59B482DED020B2DED068B079D25F010
:104D10000044A04218DC9748844202DC0AD106987D
:104D200040B19DED060BBDEC068B02B0BDE87040B6
:104D300001F0A2BE002DCCBF9FED8F0B9FED900B1D
:104D4000BDEC068B02B070BD8F48A04215DD8F48C8
:104D5000A042D8BF4FF0FF3458DD9DED060B51EC5B
:104D6000100BFFF7FBFE042808BF01F0B9FE9DED14
:104D7000060BBDEC068B02B070BD9DED060B51EC31
:104D8000100B03F0D1FECDE9060181489FED828B27
:104D9000A0423CDD8248A0421FDD00249FED82AB93
:104DA0009DED060B53EC1A2B51EC100B06F0E8F8B6
:104DB0009DED060B41EC190B53EC1A2B51EC100B2B
:104DC00006F0B4FC53EC182B06F0ACFF53EC192B97
:104DD00006F016FACDE9060149E09DED060B012427
:104DE00053EC182B51EC100B06F0CAF89DED060B96
:104DF00041EC190B53EC182B51EC100B06F092FF01
:104E000053EC192B06F0FCF9CDE906012FE06848B8
:104E1000A0421FDD02249FED689B9DED060B53EC25
:104E2000192B51EC100B06F081FC53EC182B06F0FB
:104E3000A7F89DED060B41EC180B53EC192B51EC28
:104E4000100B06F06FFF53EC182B06F0D9F9CDE9E3
:104E500006010CE09DED060B032453EC102B9FED97
:104E6000580B51EC100B06F0CBF9CDE906019DED86
:104E7000060B53EC102B51EC100B06F057FC41ECD9
:104E8000180B53EC182B06F051FC41EC190B4E4853
:104E90000621B0EE490AF0EE690A784401F0C0FC40
:104EA00053EC182B51EC100B06F040FC41EC180BA6
:104EB0004648B0EE490AF0EE690A0521784401F04F
:104EC000AFFC53EC192B51EC100B06F02FFC41EC0E
:104ED000100B51EC180B53EC102B002C0EDA06F0D3
:104EE0004FF89DED061B53EC112B06F01FFC9DEDBA
:104EF000061B53EC112B06F0E9FD35E006F040F8F7
:104F00009DED061B53EC112B06F010FC41EC100B31
:104F10002F48784400EBC40090ED001B51EC100BBF
:104F200053EC112B06F0FEFE9DED061B53EC112BEE
:104F300006F0F8FE41EC100B2648784400EBC40064
:104F400090ED001B51EC100B53EC112B06F0BEFD45
:104F500041EC100B002DA2BFBDEC068B02B070BD62
:104F600051EC100B05F09EFE41EC100B01E7000028
:104F7000000010440000F07F182D4454FB21F93F3D
:104F8000182D4454FB21F9BF0000DC3F0000203EF7
:104F90000000F33F00000000000000000000F03FB0
:104FA0000000E63F0000000000000000000000409C
:104FB0000080034000000000000000000000F83FF7
:104FC000000000000000F0BF0A820000C081000065
:104FD0004A8100000281000070B56B4E2DED040B7C
:104FE0002DED028B82B0DDF81CC0DDE905235C42AB
:104FF0002CF000411C4341EAD474049D22F000408F
:10500000B44205D86C422C4340EAD474B4420BD964
:105010009DED061B9DED040B02B0BDEC028B04B0B0
:10502000BDE8704001F032BDACF14054A4F17F64A2
:105030001C430BD0022404EAAC7444EAD274054346
:105040009FED538B9FED542B07D015E09DED040B86
:1050500051EC100B01F01EFF42E0002C11BF012C9F
:105060009DED040B02B0BDEC028B04BF04B070BD1B
:10507000022C38D0032C3BD00B439FED491B9FEDF6
:105080004A0B0AD0B14218D1B04209D121F0804177
:1050900020F08040079105900FE0002A15DA10E01B
:1050A000434B7B44002C08BF93ED000B0DD0012C2B
:1050B00010D0022C17D0032C1AD0B0421DD1002AD8
:1050C00003DAB0EE410AF0EE610A02B0BDEC028BE9
:1050D00004B070BD93ED000B51EC100B05F0E2FD38
:1050E00041EC100BF1E7B0EE480AF0EE680AECE78D
:1050F000B0EE420AF0EE620AE7E7401A00153C28DB
:10510000C8BF8DED000B19DCBCF1000FBEBF10F164
:105110003C0F9FED290B8DED000B0FDB9DED060B7A
:1051200053EC102B9DED040B51EC100B06F068F8BE
:1051300003F0FAFC01F0AEFECDE90001002C08BF3F
:105140009DED000BC1D0012C10D0022C9FED1C0B4B
:1051500053EC102B9DED000B51EC100B0DD006F015
:10516000E1FD53EC182B06F0DDFDB9E7019880F066
:10517000004001909DED000BA7E706F0D3FD53EC36
:10518000182B06F0A3FCABE70000F07F0000000046
:10519000182D4454FB210940182D4454FB2109C00B
:1051A000182D4454FB21F9BF182D4454FB21F93F1D
:1051B000628000000000000000000000000000000D
:1051C000075C143326A6A13C10EE100A10B510EEB1
:1051D000901A4FF0684202EB40032DED028BB3F1C1
:1051E000654F3CBF02EB4102B2F1654F7CD200BF7C
:1051F000C0F3C753C1F3C7529A1A1B2A09DD10F036
:10520000004F14BF9FED6E0A9FED6E0ABDEC028B3E
:1052100010BD12F11A0F1BDA11F0004F09D010F077
:10522000004F0CBF9FED680A9FED680ABDEC028B32
:1052300010BD80EE208A18EE100AFFF7A7FC0428A4
:1052400008BF01F06BFCB0EE480ABDEC028B10BD4C
:105250004200B2EB410F37D910F0004F19BFDFED1C
:105260005C1A9FED5C1ADFED5C1A9FED5C1AB0EEE4
:10527000602A0A46F1EE400A80F00041B0EE420A90
:1052800010460A1A5200B2F1807F34D2484010F022
:10529000004FDFED532A9FED533A1DBFBEEE002AAB
:1052A00071EEE21A31EE431AB6EE002A04BF71EE37
:1052B000A21A31EE031AF0EE402A42EE602A40EEC6
:1052C000020A82EEA02A18E011F0004F04BF9FED01
:1052D000461AF0EE411AD4D010F0004F1CBFDFED9B
:1052E000431A9FED431A00E026E004BFDFED411AA8
:1052F0009FED411AC5E780EE202A22EE020ADFED7B
:105300003F0ADFED3F2ABDEC028B40EE202ADFEDA5
:105310003D0A40EE220ADFED3C2A40EE202ADFED76
:105320003B0A40EE220A22EE000A00EE201A31EE7D
:10533000020A30EE210A10BD4FF07F42B2EB400F5F
:1053400028BFB2EB410F05D2BDEC028BBDE8104087
:1053500001F0D9BB40EA01035B0008BF41F0FF4107
:105360000BD0B2EB400F08BFB2EB410F08D120F0D9
:10537000804000EE100A21F0804100EE901A37E7DD
:10538000B2EB400F12BF5FEA410240F0FF4001F074
:1053900000413FF42DAF4A0092EA40033FF528AFA9
:1053A000002AACBF9FED1A1A9FED1A1A20EE010ACF
:1053B00060EE810A10EE100A10EE901A18E7000055
:1053C000DB0FC9BFDB0FC93FDB0F4940DB0F49C013
:1053D0000000C9BF22AAFDB90000C93F22AAFD39B9
:1053E0000060ED3EC30ACE3700000000000049C057
:1053F00022AA7DBA0000494022AA7D3A2DAD65BDA2
:105400008FB8D53D0FB511BE61C84C3EA8AAAABE43
:105410000000804F0000802F10B52F499FED2C1BFE
:105420002DED020B84B0059820F000408842D8BFD3
:105430009DED040B2DDD2949884209D1049840B91E
:105440004FF00100FBF732F901F02AFB06B010BD66
:1054500005DB9DED040B01F00FFB06B010BD6846A7
:105460009DED040B00F008FF10F0030004BF9DED5C
:10547000021B9DED000B0CD001280ED09DED021BF0
:105480009DED000B022817D0012001F045FA06B06F
:1054900010BD01F00DF906B010BD9DED021B9DED94
:1054A000000B012001F038FA51EC100B05F0FAFB6B
:1054B00006B041EC100B10BD01F0FAF851EC100BE6
:1054C00005F0F0FB06B041EC100B10BD0000000031
:1054D0000000000000000000FB21E93F0000F07F19
:1054E0002DE9F04D2DED040B2DED0E8B96B0DDE981
:1054F0002550279CDDF890A025F0004624F00048B8
:10550000BAF1000F14BF0121002101EB4502FC4953
:1055100053184A1093422AD3002814BF01230023B2
:1055200003EB44030B44F7498B4220D358EA0001B4
:105530009FEDF59B76D0DFF8D8B35D4503D1BAF186
:10554000000F05D188E0BAF1000F08BF002100D09C
:10555000012101EB450111F5001F08D8002814BFF7
:105560000121002101EB440111F5001F0BD99DED34
:10557000261B9DED240B16B0BDEC0E8B04B0BDE8D0
:10558000F04D01F083BA0027002DBCBFE1498845EA
:1055900021DAE1498845A8BF02271CDAC3451ADC95
:1055A000DE4901EB2851142908DDC1F1340220FA4B
:1055B00002F101FA02F282420DD108E058B9C1F1BC
:1055C000140228FA02F101FA02F2424503D101F075
:1055D0000101C1F1020756EA0A0124D1002C22DAA6
:1055E000002D18BF022F01D0012F0AD00220FBF797
:1055F0005DF816B0BDEC0E8B04B0BDE8F04D01F0C7
:1056000023BA0220FBF752F801F01EFA51EC100BFE
:1056100005F048FB41EC100B16B0BDEC0E8B04B04E
:10562000BDE8F08D18E09FEDBEAB9FEDBF8B00286D
:1056300071D1B848804522D105F1804010F5801025
:1056400008BFBAF1000F07D0B3450ADC002CA8BF91
:105650009DED260BE0DA0DE0B0EE490AF0EE690AA6
:10566000DAE7002C06DA9DED260B51EC100B05F065
:1056700019FB6FE0AE48784490ED000BCCE7D845BD
:105680004DD1002C48DA2EB186423AD1BAF1000F42
:1056900042D126E0BAF1000F13D00220FBF706F842
:1056A00001F00EFA8DED020B9DED240B8DED000B3C
:1056B00010EE900A039961F31E0003909DED020B1A
:1056C000AAE78DED02AB9DED240B1AEE901A10EEB9
:1056D000900A8DED000B61F31E0003909DED020B0F
:1056E0009AE78DED028B9DED240B18EE901A10EECB
:1056F000900A8DED000B61F31E0003909DED020BEF
:105700008AE709DA9DED240B51EC190B53EC102BB1
:1057100005F076FD1EE020E09DED240B7CE786423F
:105720001BDAB4F1804F0DD0A4F10050B0F1FF505E
:1057300013D1002D11DB9DED240B51EC100B04F067
:105740002FF907E09DED240B53EC102B51EC100BBF
:1057500000F0C2BC41EC100B5EE79DED240B51EC58
:10576000100B03F0E1F9BAF1000FCDE90E0142D1BF
:105770009FED710B46B3A6F1E040B0F17F600CD015
:105780005E4538D1002D00DAA7B3022F0CBF0120EF
:105790004FF0FF3005F056FFDCE7002D01DD002C57
:1057A0000DDA002D01DD002C1FDB002D16DA002C98
:1057B00014DB012F08BF9FED620B3FF42DAFB0EE5D
:1057C0004A0AF0EE6A0A27E7022F18BF002D0CD014
:1057D000012F0AD1002DFFF61FAF06E0002DB8BF44
:1057E000002C08DA012F3FF417AFB0EE480AF0EEB4
:1057F000680A11E71BE0012000EBE57050EA0701A1
:1058000015D0791EB0EE498AF0EE698A084308BFC8
:105810009FED4D8B4E480025804570DD4D494E482B
:10582000884514DDB0420DDB002C19DB2FE0012090
:10583000FAF73CFF16B0BDEC0E8B04B0BDE8F04D9E
:1058400001F02EB9B34502DC002C09DC1FE08642D2
:1058500002DA002C1BDA03E05E452BDD002C16DD9E
:105860000220FAF723FF01F02BF98DED020B53EC28
:105870001A2B51EC180B05F059FFCDE900010399E3
:10588000019861F31E0003909DED020BC4E6022017
:10589000FAF70CFF01F024F910EE901A18EE900AB6
:1058A0008DED020B8DED008B61F31E0003909DEDDD
:1058B000020BB1E69DED0E0B53EC192B51EC100BC6
:1058C00006F030FA9FED260BCDE9080153EC102BC2
:1058D0009DED080B51EC100B05F028FF9FED221BEE
:1058E00053EC112B06F0F2F89DED081B53EC112B35
:1058F00005F01CFF9FED1E1B53EC112B3CE08CE0D0
:10590000FFFF1F00FFFF0F00000000000000F03F3E
:105910000000F03F0000F07F0000404301FCFFFF6B
:10592000000000000000F07F000000000000000008
:105930008E7A0000000000000000000000000080DF
:10594000000000000000F0FF000000000000F0BFB9
:105950000000E0410000F043FFFFEF3F00000000C7
:10596000000000000000D03F555555555555D53F16
:10597000000000000000E03F06F0A8F89DED080BD5
:1059800041EC1A0B53EC102B51EC100B05F0CEFE32
:1059900053EC1A2B05F0CAFE41EC1A0B9FEDFE0BDF
:1059A00053EC102B9DED080B51EC100B05F0BEFED7
:1059B00041EC1B0B9FEDFA0B51EC1A0B53EC102B27
:1059C00005F0B4FE41EC1A0B9FEDF70B53EC102BD6
:1059D0009DED080B51EC100B05F0A8FE53EC1A2BB3
:1059E00006F0A0F941EC1A0B51EC1B0B53EC1A2BEF
:1059F00005F0C6FA0690CDE906519DED060B53EC75
:105A00001B2B51EC100B06F08DF953EC1A2B06F002
:105A10005DF841EC100B00F0A1B90020B6F5801F35
:105A20000EDA9FEDE30B53EC102B9DED0E0B51ECBA
:105A3000100B05F07BFECDE90E016FF034000E4631
:105A400000EB2650A0F2FF37C6F31300DA4940F00E
:105A50007F6646F040568842D8BF002408DDD7490B
:105A60008142C8BF012403DC0024A6F580167F1CF8
:105A7000D348784400EBC4000F9690ED00CB9DED29
:105A80000E0B53EC1C2B51EC100B06F04BF99DED5B
:105A90000E0B41EC1B0B53EC1C2B51EC100B05F0C7
:105AA0006FFA41EC100B51EC190B53EC102B05F075
:105AB000A7FB41EC1D0B51EC1B0B53EC1D2B05F010
:105AC00035FE41EC1A0BBF488DED10AB78441095B4
:105AD00090ED000B4FF0005040EA660000EB844070
