:020000040800F2
:100000008066002029030008834A0008694200082E
:10001000814A0008EB180008515900080000000050
:10002000000000000000000000000000690200085D
:10003000E91B000800000000C50200081951000873
:100040004303000843030008430300084303000878
:100050004303000843030008430300084303000868
:100060004303000843030008430300084303000858
:10007000311B000843030008430300084303000842
:100080004303000843030008430300080519000860
:10009000ED180008F918000843030008430300089E
:1000A0004303000843030008430300084303000818
:1000B0004303000843030008430300084303000808
:1000C00043030008430300084303000843030008F8
:1000D00043030008F95700084303000805580008C7
:1000E00043030008430300084303000843030008D8
:1000F00043030008430300084303000843030008C8
:1001000043030008430300082D520008430300087E
:100110004303000843030008395200084303000862
:10012000430300083D1B0008491B0008551B00083D
:100130004303000843030008430300084303000887
:10014000111900081D1900084303000843030008A3
:1001500043030008611B000843030008C15800085E
:100160004303000843030008430300084303000857
:100170004303000843030008430300080000000095
:10018000430300084303000800F002F800F05CF8A5
:100190000AA090E8000C82448344AAF10107DA45E2
:1001A00001D100F051F8AFF2090EBAE80F0013F0D8
:1001B000010F18BFFB1A43F001031847C0E9000004
:1001C000E0E900000A444FF0000C10F8013B13F086
:1001D000070408BF10F8014B1D1108BF10F8015BA0
:1001E000641E05D010F8016B641E01F8016BF9D193
:1001F00013F0080F1EBF10F8014BAD1C0C1B09D1EA
:100200006D1E58BF01F801CBFAD505E014F8016B5B
:1002100001F8016B6D1EF9D59142D6D370470000ED
:100220000023002400250026103A28BF78C1FBD8FF
:10023000520728BF30C148BF0B6070471FB50DF093
:10024000BAFD1FBD10B510BD00F095FA1146FFF7BD
:10025000F5FF0AF031F900F0B3FA03B4FFF7F2FF4B
:1002600003BC00F0C3FA00002C4B19680868B0E822
:10027000F04F80F30988BFF36F8F4FF0000080F3D9
:10028000118870470000000008480068006880F38B
:1002900008884FF0000080F3148862B661B6BFF39F
:1002A0004F8FBFF36F8F00DF00BF00BF08ED00E08E
:1002B000DFF80C00016841F470010160704700BF75
:1002C00088ED00E0EFF30980BFF36F8F134B1A68DE
:1002D0001EF0100F08BF20ED108A20E9F04F1060CB
:1002E00009B44FF0500080F31188BFF34F8FBFF374
:1002F0006F8F0BF0B9FB4FF0000080F3118809BC41
:1003000019680868B0E8F04F1EF0100F08BFB0EC95
:10031000108A80F30988BFF36F8F70473800002080
:10032000EFF30580704700000948804709480047FF
:10033000FEE7FEE7FEE7FEE7FEE7FEE7FEE7FEE795
:10034000FEE7FEE704480549054A064B70470000F2
:10035000D9510008890100088060002080660020D3
:10036000806200208062002053EA020C00F0698065
:100370002DE9F04B4FF00006002B1FBFB3FA83F5B9
:1003800003FA05F424FA05F65E4012BF1643B2FAEA
:1003900082F502FA05F4C5F120051EBF22FA05FC1C
:1003A00044EA0C04203556EA044C4FEA144418BFC2
:1003B000641C4FF000084FF00009904271EB030CF1
:1003C00039D3002919BFB1FA81F701FA07F6B0FA5B
:1003D00080F700FA07F6C7F120071EBF20FA07FCD6
:1003E00046EA0C062037B6FBF4FCA7EB0507103FE6
:1003F00007F01F0BCBF120060CFA0BFB2CFA06F6CC
:1004000044BFB3460026202FA4BF5E464FF0000B2A
:100410005BEA060C08BF4FF0010B19EB0B09ABFBB5
:10042000027C48EB0608C01B06FB02CC0BFB03CC8E
:1004300071EB0C01C1E70B46024641464846BDE858
:10044000F08B13B54FF000004FF00001AFF30080C8
:10045000BDE81C40704740EA0103024630B59B07E7
:1004600010D14FF0013400E008C208C91D1B9D43A4
:1004700015EAC41FF8D013F0FF0102F8011B0DD0DC
:100480001B0AF8E711F8013B002B02F8013B05D0ED
:1004900011F8013B002B02F8013BF3D130BD10B540
:1004A000431C02E010F8011B71B18107FAD14FF033
:1004B000013202C88C1A8C4314EAC211F9D0C01A56
:1004C0000A0603D0C01E10BDC01A10BD0A0401D018
:1004D000801E10BD0902FCD0401E10BD032A40F250
:1004E000308010F0030C00F0158011F8013BBCF1D6
:1004F000020F624498BF11F801CB00F8013B38BFEE
:1005000011F8013BA2F1040298BF00F801CB38BFFB
:1005100000F8013B11F0030300F06780083AC0F0D7
:10052000088051F8043B083A51F804CBA0E80810C1
:10053000F5E7121D5CBF51F8043B40F8043BAFF3F4
:100540000080D20724BF11F8013B11F801CB48BF4E
:1005500011F8012B24BF00F8013B00F801CB48BF84
:1005600000F8012B7047431A28BF9A427FF6B6AFB6
:10057000032A1044114440F2268010F0030F1EBFDE
:1005800011F8013D521E00F8013D10F0030F7FF4F9
:10059000F6AF11F0030300F0A280083AC0F00B8020
:1005A00051F8043D083A51F804CD40F8043D40F8B4
:1005B00004CDFFF7F3BF121D5CBF51F8043D40F8B6
:1005C000043DAFF30080D20724BF11F8013D11F8BC
:1005D00001CD48BF11F8012C24BF00F8013D00F8FF
:1005E00001CD48BF00F8012C704710B5203AC0F08B
:1005F0000B80B1E81850203AA0E81850B1E8185024
:10060000A0E81850BFF4F5AF5FEA027C24BFB1E860
:100610001850A0E8185044BF18C918C0BDE81040D1
:100620005FEA827C24BF51F8043B40F8043B08BFDA
:100630007047D20728BF31F8023B48BF11F8012BA1
:1006400028BF20F8023B48BF00F8012B70474FF04D
:10065000000200B5134694469646203922BFA0E812
:100660000C50A0E80C50B1F12001BFF4F7AF09071E
:1006700028BFA0E80C5048BF0CC05DF804EB89000F
:1006800028BF40F8042B08BF704748BF20F8022B52
:1006900011F0804F18BF00F8012B7047704770476A
:1006A000704710B500F04AF8006810BD10B5044658
:1006B00000F044F8046010BD431A28BF9A427FF648
:1006C00094AF104410F0030F11441EBF11F8013D08
:1006D000521E00F8013D10F0030F7FF4F6AF103A00
:1006E000C0F00A8010B531E91850103A20E91850CE
:1006F000BFF4F9AFBDE81040530724BF31E908103B
:1007000020E9081044BF51F8043D40F8043D12F0C0
:10071000030F08BF7047D20728BF31F8023D48BF1A
:1007200011F8012C28BF20F8023D48BF00F8012C29
:100730007047000000487047206000200048704764
:10074000206000201FB584B000200A9C06AB04AADC
:1007500002A90094AFF3008018B1DDE9020108B0EE
:1007600010BD0348204000F039F800200146F6E7AC
:100770000000207C70477546FFF7DCFFAE460500A1
:100780006946534620F00700854618B020B5FFF7AC
:10079000D9FDBDE820404FF000064FF000074FF0B4
:1007A00000084FF0000B21F00701AC46ACE8C0098F
:1007B000ACE8C009ACE8C009ACE8C0098D46704798
:1007C00010B50446AFF300802046BDE81040FFF7A7
:1007D00044BD002801D000F009B8704710B500F002
:1007E00025F8BDE81040FFF7F4BF000001491820CC
:1007F000ABBEFEE72600020070B505460C460A2097
:1008000000E06D1C00F068F835B128780028F8D1B8
:1008100002E0641C00F060F814B120780028F8D1E0
:10082000BDE870400A2000F057B8000010B502285B
:1008300003D0410103D50DA112E0002010BD01013C
:1008400001D50FA10CE0C10001D511A108E0810084
:1008500001D512A104E0400001D513A100E0002160
:1008600015A0FFF7C9FF012010BD0000496E766199
:100870006C6964204F7065726174696F6E0000006E
:10088000446976696465204279205A65726F000078
:100890004F766572666C6F7700000000556E646578
:1008A00072666C6F77000000496E65786163742032
:1008B000526573756C7400005349474650453A20A1
:1008C00041726974686D65746963206578636570E9
:1008D00074696F6E3A20000008B569468DF8000013
:1008E0000320ABBE08BD0000B7EE000A80ED000A91
:1008F0009FED040A80ED010A80ED020A80ED030AF3
:100900007047000000000000B4EEE00AF1EE10FABB
:1009100001DD30EE600AB5EEC00AF1EE10FA01D248
:1009200030EE200A704700002DE9F04FFE4940F2FA
:10093000416440F2023AD1F800C040F2D52B40F2B7
:10094000276240F2EA2340F2D6554FF435764FF451
:10095000C16740F2063E4FF4C26908287ED2DFE844
:1009600000F004CDFEFDFCFBFAF99CF8030040F218
:10097000D75520F0380008308CF80300BCF803008D
:1009800020F47070ACF80300BCF8080065F38C002C
:10099000ACF80800BCF8090040F2FF2565F34F10E1
:1009A000ACF809009CF8040040F2096520F03C0016
:1009B00018308CF80400BCF807006FF30900401CE5
:1009C000ACF80700BCF80C0065F38C00ACF80C0028
:1009D000BCF80D0040F2313565F34F10ACF80D0056
:1009E000486810F8035F25F038050835057005885C
:1009F00025F470750580B0F8055064F38C05A0F8F7
:100A00000550C4886AF34F14C480447824F03C0431
:100A1000447084886FF30904641C8480B0F8095022
:100A200040F2736464F38C05A0F8095045894FF4D3
:100A30004D7464F34F154581886840F2476510F89E
:100A4000034F24F0380408340470048824F47074CC
:100A50000480B0F8054065F38C0400E0FEE3A0F8E4
:100A60000540C48840F2A32565F34F14C480447840
:100A700040F2796524F03C040C34447084886FF3B0
:100A80000904641C8480B0F8094065F38C04A0F864
:100A9000094045896BF34F154581C86810F8034F2D
:100AA00024F0380408340470048824F4707404803A
:100AB000B0F8055040F2D95464F38C05A0F8055005
:100AC000C48840F2A12565F34F14C480447824F013
:100AD0003C041C34447084886FF30904641C8480D3
:100AE000B0F8095040F20B6464F38C05A0F809508B
:100AF000458940F2D32464F34F15FCE39CF80300CE
:100B000020F0380008308CF80300BCF8030020F413
:100B10007070ACF80300BCF8080065F38C00ACF80A
:100B20000800BCF8090066F34F10ACF809009CF807
:100B3000040020F03C0018308CF80400BCF80700DA
:100B40006FF30900401CACF80700BCF80C0067F319
:100B50008C0005E0FEE3DAE30BE33CE277E1AAE098
:100B6000ACF80C00BCF80D4040F20A366EF34F149E
:100B7000ACF80D4048684FF44F7710F8034F24F05D
:100B8000380408340470048824F470740480B0F8C5
:100B900005504C4664F38C05A0F80550C58866F3F3
:100BA0004F15C580457825F03C05457085886FF365
:100BB00009056D1C8580B0F8096040F2426565F357
:100BC0008C06A0F80960468967F34F16468188684D
:100BD000AF1D10F8036F26F0380608360670068839
:100BE00026F470760680B0F8056067F38C06A0F8EE
:100BF0000560C68840F2D12767F34F16C680467855
:100C000040F27A6726F03C060C36467086886FF311
:100C10000906761C8680B0F8096067F38C06A0F898
:100C20000960468940F2033767F34F164681C8686A
:100C300010F8036F26F0380608360670068826F48A
:100C400070760680B0F8056064F38C06A0F8056045
:100C5000C4884FF4267666F34F14C480447824F099
:100C60003C041C34447084886FF30904641C848041
:100C7000B0F8094065F38C04A0F8094040F2CA2599
:100C800040E3086910F8031F21F0380110310170AA
:100C9000018821F47071018001896FF309011F310E
:100CA0000181B0F8051062F38C01A0F80510C1882D
:100CB00063F34F11FEE39CF8030020F03800083086
:100CC0008CF80300BCF8030020F47070ACF803004B
:100CD000BCF8084040F2D95060F38C04ACF80840EE
:100CE000BCF809004FF4297464F34F10ACF8090004
:100CF0009CF8040020F03C0018308CF80400BCF88C
:100D000007006FF30900401CACF80700BCF80C406A
:100D100040F20B6060F38C04ACF80C4040F2D62437
:100D2000BCF80D0002E00000B402002064F34F1094
:100D3000ACF80D00486840F2D35510F8034F24F08A
:100D4000380408340470048824F470740480B0F803
:100D5000054065F38C04A0F80540C48840F2FE25E8
:100D600065F34F14C480447840F2056524F03C04D8
:100D7000447084886FF30904641C8480B0F80940CF
:100D800065F38C04A0F8094044894FF44C7565F371
:100D90004F144481886840F2426510F8034F24F0F4
:100DA000380408340470048824F470740480B0F8A3
:100DB000054065F38C04A0F80540C5886AF34F151B
:100DC000C580447840F2746524F03C040C344470CF
:100DD00084886FF30904641C8480B0F8094065F3CB
:100DE0008C04A0F8094045894FF44D7464F34F1505
:100DF0004581C86840F2436510F8034F24F0380479
:100E000008340470048824F470740480B0F8054039
:100E100065F38C04A0F80540C48840F2A52565F36D
:100E20004F14C480447840F2756524F03C041C34AF
:100E3000447084886FF30904641C8480B0F809400E
:100E400065F38C04A0F8094040F2D7255AE29CF8DB
:100E5000030040F20F6520F0380008308CF80300E2
:100E6000BCF8030040F2036620F47070ACF8030095
:100E7000BCF8080040F20D6765F38C00ACF8080080
:100E8000BCF8090040F2972565F34F10ACF8090053
:100E90009CF8040040F2D15520F03C0018308CF84A
:100EA0000400BCF807006FF30900401CACF8070011
:100EB000BCF80C0064F38C00ACF80C00BCF80D001E
:100EC00040F2C92464F34F10ACF80D00486810F8E4
:100ED000034F24F0380408340470048824F4707438
:100EE0000480B0F8054065F38C04A0F80540C5887F
:100EF00040F2D12464F34F15C580457825F03C05B8
:100F0000457085886FF309056D1C8580B0F8095020
:100F100066F38C05A0F80950468940F2033565F365
:100F20004F164681886810F8036F26F03806083699
:100F30000670068826F470760680B0F8056067F3C0
:100F40008C06A0F80560C68840F20D3767F34F168F
:100F5000C680467840F23F6726F03C060C36467065
:100F600086886FF30906761C8680B0F8096067F3FF
:100F70008C06A0F80960468940F23F3767F34F16A8
:100F80004681C86840F24B6710F8036F26F03806B8
:100F900008360670068826F470760680B0F805607C
:100FA00067F38C06A0F80560C68864F34F16C68008
:100FB000447840F27D6624F03C041C3444708488FC
:100FC0006FF30904641C8480B0F8094066F38C0454
:100FD000A0F8094096E19CF8030040F2456820F033
:100FE000380008308CF80300BCF8030020F470705F
:100FF000ACF80300BCF8080068F38C00ACF80800FB
:10100000BCF809004FF4297868F34F10ACF80900D8
:101010009CF8040040F2776820F03C0018308CF80F
:101020000400BCF807006FF30900401CACF807008F
:10103000BCF80C0068F38C00ACF80C00BCF80D0098
:1010400040F2D62868F34F10ACF80D00486840F223
:10105000DA5890F803C02CF0380C0CF1080C80F82A
:1010600003C0B0F803C02CF4707CA0F803C0B0F843
:1010700008C068F38C0CA0F808C0B0F809C040F2B2
:10108000A22868F34F1CA0F809C090F804C040F2F1
:101090000C682CF03C0C80F804C0B0F807C06FF36B
:1010A000090C0CF1010CA0F807C0B0F80CC068F3F3
:1010B0008C0CA0F80CC0B0F80DC066F34F1CA0F863
:1010C0000DC0886810F8036F26F0380608360670E1
:1010D000068826F470760680B0F8056065F38C0605
:1010E000A0F80560C58840F2013666F34F15C5804B
:1010F000457840F2333625F03C050C35457085883F
:101100006FF309056D1C8580B0F8095067F38C05F5
:10111000A0F80950458966F34F154581C86810F855
:10112000035F25F0380508350570058825F47075CE
:101130000580B0F8055064F38C05A0F80550C4880C
:101140004FF4417565F34F14C480447824F03C0497
:101150001C34447084886FF30904641C8480B0F8E4
:10116000095040F2736464F38C05A0F80950F51C33
:10117000C8E09CF8030040F24A6520F038000830CF
:101180008CF80300BCF8030020F47070ACF8030086
:10119000BCF8080065F38C00ACF80800BCF8090046
:1011A00040F2D22565F34F10ACF809009CF804001A
:1011B00040F27C6520F03C0018308CF80400BCF84C
:1011C00007006FF30900401CACF80700BCF80C00E6
:1011D00065F38C00ACF80C00BCF80D004FF44175C1
:1011E00065F34F10ACF80D00486810F8035F25F068
:1011F000380508350570058825F470750580B0F848
:10120000056069F38C06A0F80560C58840F2962653
:1012100066F34F15C580457840F2426625F03C05DF
:10122000457085886FF309056D1C8580B0F80950FD
:1012300066F38C05A0F8095045894FF4327666F3C1
:101240004F154581886810F8035F25F0380508358B
:101250000570058825F47075058000E046E1B0F85A
:10126000055040F2D25666F38C05A0F80550C688AA
:1012700040F2D32565F34F16C680457840F20466E8
:1012800025F03C050C35457085886FF309056D1C0C
:101290008580B0F8095066F38C05A0F8095045899F
:1012A00040F2053666F34F154581C86840F20F6677
:1012B00010F8035F25F0380508350570058825F41A
:1012C00070750580B0F8055066F38C05A0F80550E0
:1012D000C5884FF4437666F34F15C580457825F0F1
:1012E0003C051C35457085886FF309056D1C8580AC
:1012F000B0F8095000E0C0E164F38C05A0F8095093
:1013000040F23E35448965F34F144481B9E49CF8BA
:10131000030040F23D6220F0380008308CF80300F2
:10132000BCF8030040F2013320F47070ACF8030005
:10133000BCF8080062F38C00ACF80800BCF80900A7
:1013400063F34F10ACF809009CF8040020F03C0057
:10135000183000E0CCE08CF80400BCF8070040F244
:101360006F636FF30900401CACF80700BCF80C0079
:1013700040F2333463F38C00ACF80C00BCF80D0081
:1013800064F34F10ACF80D00486810F8034F24F0D8
:10139000380408340470048824F470740480B0F8AD
:1013A000054062F38C04A0F80540C28840F29A24FC
:1013B00064F34F12C280427822F03C02427082886D
:1013C0006FF30902521C8280B0F8092063F38C028B
:1013D000A0F8092042894FF4337363F34F1242811E
:1013E00088684FF4BB6310F8032F22F038020832EC
:1013F0000270028822F470720280B0F8052063F354
:101400008C02A0F80520C288A31C63F34F12C2808F
:10141000427840F20A6322F03C020C324270828829
:101420006FF30902521C8280B0F8092063F38C022A
:10143000A0F80920428940F2CE2363F34F12428183
:10144000C8684FF4407310F8032F22F038020832B6
:101450000270028822F470720280B0F8052065F3F1
:101460008C02A0F80520C28863F34F12C280427834
:1014700040F2323322F03C021C32427082886FF319
:101480000902521C8280B0F8092067F38C02A0F890
:101490000920428963F34F124281086910F8031F43
:1014A00021F0380110310170018821F47071018040
:1014B000018900E010E06FF309011F310181B0F8EC
:1014C000051040F2246262F38C01A0F80510C18877
:1014D00040F2E62262F34F11C180417821F03C01D5
:1014E000417081886FF30901491C8180BDE8F08F4C
:1014F0009CF8030040F20C6420F0380008308CF8AF
:101500000300BCF8030040F24A6520F47070ACF8A8
:101510000300BCF8080064F38C00ACF80800BCF8C9
:10152000090040F20F3464F34F10ACF809009CF846
:10153000040040F23E6420F03C0018308CF80400B7
:10154000BCF807006FF30900401CACF80700BCF8BA
:101550000C0064F38C00ACF80C00BCF80D0040F2F9
:10156000413464F34F10ACF80D00486810F8034F95
:1015700024F0380408340470048824F4707404805F
:10158000B0F8054065F38C04A0F80540C5886BF3FE
:101590004F15C580447840F27C6524F03C044470CB
:1015A00084886FF30904641C8480B0F8094065F3F3
:1015B0008C04A0F80940448940F2073565F34F14C4
:1015C0004481886810F8034F24F03804083404700C
:1015D00004886D0024F470740480B0F8054065F34D
:1015E0008C04A0F80540C48840F2932565F34F149D
:1015F000C48044784FF4C86524F03C040C34447033
:1016000084886FF30904641C8480B0F8094065F392
:101610008C04A0F80940448940F2C52565F34F14B5
:101620004481C86840F2CE5510F8034F24F03804C6
:1016300008340470048824F470740480B0F8054001
:1016400065F38C04A0F80540C4884FF4C06566F3C8
:101650004F14C480447824F03C041C3444708488C3
:101660006FF30904641C8480B0F8094065F38C04AE
:10167000A0F8094045896EF34F15458146E6000004
:1016800001221021014801F0B3BA0000000002401D
:1016900000221021014801F0ABBA00000000024016
:1016A0007047000001221146014801F0A1BA000074
:1016B0000004024000220121014801F099BA000013
:1016C00000040240704730B504464FF47A7502E0DA
:1016D000284600F004F8641EA4B2F9D230BD70B5FB
:1016E0004FF0E02400226569A8214843A169A3695D
:1016F0008B42FCD002D2A1EB030102E0A5EB030672
:1017000031440A4419468242F1D370BD10B5FFF747
:10171000C7FFFFF7D7FF06F011FE044606F096FE5E
:10172000204310BD2DE9FC410746002016460D461A
:1017300000900190FFF7ACFF922000F0BDF8062268
:101740006946122000F09AF8FFF79AFF9DF8010011
:101750009DF80010000200B2084300EE100A464C4B
:10176000B8EEC00AD4ED000A20EE200A85ED000A8A
:101770009DF803009DF80210000200B2084300EE3D
:10178000100AD4ED000AB8EEC00A20EE200A85ED5A
:10179000010A9DF805009DF80410000200B20843FC
:1017A00000EE100AB8EEC00A20EE200A85ED020A0B
:1017B000FFF780FF08226946002000F05FF8FFF77E
:1017C00071FF9DF800000F2830D19DF803009DF8AF
:1017D0000210000200B2084300EE100AD4ED010A24
:1017E000B8EEC00A20EE200A87ED000A9DF8050039
:1017F0009DF80410000200B2084300EE100AD4ED78
:10180000010AB8EEC00A20EE200A87ED010A9DF811
:1018100007009DF80610000200B2084300EE100A0F
:10182000B8EEC00A20EE200A87ED020AFFF730FF6B
:10183000A22000F041F802226946222000F01EF8A2
:10184000FFF71EFF9DF800009DF80110C00040EA60
:101850005110B0F5806F01DBA0F5006000EE100ABA
:10186000B4EE001AF8EEC00AB3EE070A00EE810AE1
:1018700086ED000ABDE8FC814402002070B51446E4
:101880000D4640F0800000F017F806E0552000F00B
:1018900013F8641E05F8010BE4B2002CF6D170BDFC
:1018A00010B50C4640F0800000F006F8552000F01E
:1018B00003F8207010BD000001B582B04FF47A70BB
:1018C0000090012301AA02A9024801F005FE9DF83B
:1018D00004000EBDC409002010B50C46FFF7ECFF54
:1018E0002046BDE81040FFF7E7BFFEE7014800F0E3
:1018F0009ABB000074090020014800F094BB00006E
:1019000074090020014800F08EBB0000740900201B
:10191000014800F088BB00009C090020014800F04D
:1019200082BB00009C09002030B589B04FF40475DB
:101930000C9C0295002505958DF80000080A8DF88D
:101940000100049508250695180A8DF804008DF805
:1019500005308DF80210200A8DF806008DF803205E
:101960008DF8074008AB6A4602A9024800F0FCF96E
:1019700009B030BD9C09002030B587B04FF4FF742A
:101980000094002402940394082404940A4C050A49
:1019900025706070080AA070E170100A20716271F1
:1019A000180AA071E37106AB22466946034800F0AD
:1019B000DBF907B030BD00002402002074090020CC
:1019C00030B587B04FF400740094082404940024C8
:1019D000039402940A4C050A25706070080AA070EE
:1019E000E170100A20716271180AA071E37106ABF0
:1019F00022466946034800F0B7F907B030BD000041
:101A00001C0200209C09002000B589B040F2FF11A3
:101A1000009100210291039102210491010A8DF8A5
:101A200018108DF8190007AB06AA6946024800F0A5
:101A30009BF909B000BD00009C09002010B5134CB3
:101A40006078A070124890F83817124800680F307C
:101A500021B1012907D006290AD00EE00EA1FEF718
:101A6000FAFC002008E010A1FEF7F5FC012003E0DD
:101A700011A1FEF7F0FC022060706078A178884226
:101A800003D0BDE8104006F0EDBB10BD0E020020F3
:101A9000304C002084020020434841535349533ABC
:101AA0004E4F524D414C0000434841535349533A25
:101AB000524F544154450000434841535349533A0F
:101AC000464C59494E47000017494868B0F9020092
:101AD00000EE100A1548B8EEC00A80ED060A8A69C1
:101AE000B2F9022000EE102AB8EEC00A80ED070A13
:101AF000CA6AB2F9022000EE102AB8EEC00A80EDE0
:101B0000080A096CB1F9021000EE101AB8EEC00A0A
:101B100080ED090A90ED050A80ED0A0A90ED040AAD
:101B200080ED0B0A70470000304C0020D84B00209D
:101B3000014800F02BBE0000380C0020014800F0E6
:101B400025BE0000980C0020014800F01FBE0000D8
:101B50001C0A0020014800F019BE00007C0A002089
:101B6000014800F013BE0000F80C002001681823A3
:101B7000CAB2103AB2FBF3F2054B6FF30901032A24
:101B80009B5CC36500D9091D81650846704700004C
:101B90002CE2000810B5014600208B698A6A4FF0DC
:101BA000C07453B1B3F5005F15D072B1012A0CD0E7
:101BB000022A0AD0032A09D104E01AB1012A06D068
:101BC000022A03D1C96AC90100D5012010BDC96A22
:101BD000A142FAD010BD002AF7D0012AF2D0022A81
:101BE000F3D0032AF3D010BD7047000010B50E4C9F
:101BF000E07920720D48C17F0D4800680F3061B157
:101C00000CA1FEF728FC0120E071217AC0B28842C5
:101C100008D0BDE8104006F0F3BA09A1FEF71BFC9E
:101C20000020F1E710BD00000E020020B84B00209C
:101C3000A8020020456E656D793A524544200000A7
:101C4000456E656D793A424C5545000072B6FEE727
:101C500000EE900A0749F8EEE00A30EEC00AF0EE16
:101C6000C00A10EE900A884203DD9FED030A30EEB1
:101C7000600A7047000034430000B44370B5234C41
:101C800040F21635E07820712148867E21480168AF
:101C900008790B8920F03C0201F10F00AEB1192642
:101CA00066F38C030B81B1F80930203265F34F13D2
:101CB000A1F809300A718A88142363F38E128A808E
:101CC00015A1FEF7C8FB002015E040F2DF2666F301
:101CD0008C030B81B1F80930143265F34F13A1F86E
:101CE00009300A718A88502363F38E128A800CA10E
:101CF000FEF7B1FB0120E0702179C0B2884203D029
:101D0000BDE8704006F0C2BA70BD00000E020020AF
:101D1000B84B002090020020465249433A3100005F
:101D2000465249433A30000010B5054C04E000BF6C
:101D300010F8013B5340E25C491EF9D2104610BD39
:101D4000D0E2000890F82020012A07D0022A05D00E
:101D5000416A41F480214162012070470068426974
:101D60000A43426100207047F0B590F820500468A3
:101D7000A468012D05D0022D03D0416A41F48021D1
:101D800053E014F0406F01D1E5004BD5C4F301647A
:101D9000022C03D9416A41F4000146E00125A54027
:101DA0001D608D684FF4C0739DB1CE6835434E6899
:101DB00045EAC605066803EB0417F5514FF4C275F2
:101DC000076805EB04150E697E51097D012905D0D0
:101DD00009E00E88CD6845EA4655EBE701684E59A3
:101DE00046F480764E511179D2F805504FF4C676FC
:101DF00041EA0525016806EB04168D511178D2F8E9
:101E000001204FF4C47541EA0221026805EB041574
:101E10005151006803EB0411425842F00102425054
:101E20000020F0BD416A41F4001141620120F0BD83
:101E300010B590F82020012A07D0022A05D0416A67
:101E400041F480214162012010BD3B48D0F80022BE
:101E500042F00102C0F80022D0F8002222F47C52A5
:101E6000C0F80022D0F800224B6A42EA0322C0F8F0
:101E700000220A7D02F01F0301229A40D0F81C3292
:101E80009343C0F81C32CB69B3B9D0F80C329343FA
:101E9000C0F80C328C894B6864F31F434C6900EB2B
:101EA000C404C4F840320C890B6864F31F434C69C6
:101EB00000EBC404C4F84432CB69012B16D1D0F82E
:101EC0000C321343C0F80C320C884B6864F31F4388
:101ED0004C6900EBC404C4F840320C89CB6864F34D
:101EE0001F434C6900EBC404C4F844328B69002BD7
:101EF000D0F804320ED01343C0F804320B69002B23
:101F0000D0F8143208D01343C0F81432096A0129FA
:101F100004D008E09343EFE79343F5E7D0F81C12B1
:101F20001143C0F81C12D0F8001221F00101C0F8D2
:101F30000012002010BD000000640040704730B562
:101F400090F82040012C05D0022C03D0416A41F4C6
:101F500080215DE00468002955D02469A40754D08D
:101F60004FF4D874056804EB01142D5915F00405DD
:101F7000956005682D594ED0ED08556005682C59BF
:101F800004F00204D4604FF4DA74056804EB011421
:101F90002D5905F00F05156105682D59C5F3072565
:101FA000956105682C59240C54614FF4DC72046867
:101FB00002EB0112A4581C700468A458240A5C7037
:101FC0000468A458240C9C700468A258120EDA709D
:101FD0004FF4DE72046802EB0112A4581C7104680D
:101FE000A458240A5C710468A458240C9C710468E9
:101FF000A258120EDA71006881B1016941F0200126
:102000000161002030BDE468A8E7416A41F4001195
:102010004162012030BD6D0D1560AFE7C16841F030
:102020002001C160EDE72DE9F05F0546006800245E
:102030004669D0F804908768D0F80CB0D0F810A0AA
:10204000D0F81880F10748D0F90714D00121816039
:10205000B80703D5284600F038FB0CE0780702D516
:102060004FF4006407E0380702D54FF4805402E0D3
:10207000284600F029FBF80516D529684FF4807032
:102080008860B80503D5284600F021FB0CE07805F0
:1020900002D544F4005407E0380502D544F48044E6
:1020A00002E0284600F012FBF80316D529684FF429
:1020B00080308860B80303D5284600F00AFB0CE0A6
:1020C000780302D544F4004407E0380302D544F411
:1020D000803402E0284600F0FBFA300707D55FEABB
:1020E000CB6004D52968102044F40074C8607007E0
:1020F0004FF0080707D55FEA0B7004D52868C76062
:10210000284600F0B1F9B00706D52868C0688007F6
:1021100002D0284600F0AAF9700607D55FEACA6027
:1021200004D52968102044F480640861B00607D5FE
:102130005FEA0A7004D528680761284600F094FA1F
:10214000F00606D528680069800702D0284600F00E
:102150008CFAB00308D55FEAC96005D5296810205C
:102160004860284600F082FAF00307D55FEA09705C
:1021700004D528684760284600F0ACFA300446D5FC
:102180005FEA497040D5F00504D55FEAC87001D018
:1021900044F00104B00504D55FEA887001D544F02D
:1021A0000204700504D55FEA487001D544F00404C8
:1021B000300529D518F0700F26D008F0700040289F
:1021C00015D006DC102809D020280AD0302816D1D6
:1021D0000AE050280ED0602811D10EE044F0080427
:1021E0000DE044F010040AE044F0200407E044F05D
:1021F000400404E044F0800401E044F48074286862
:10220000816921F070018161296804204860002CF7
:1022100005D0686A204368622846FFF78FFEBDE854
:10222000F09F70B5040003D094F8200010B104E0D2
:10223000012070BD204600F081F82068016841F05F
:102240000101016000F0DAFC0546052604E000F01B
:10225000D5FC401B0A2811D820684068C007F6D07A
:102260002068016821F00201016000F0C7FC05460A
:102270000BE000F0C3FC401B0A2806D9606A40F45A
:102280000030606284F82060D2E7206840688007F0
:10229000EFD4207E0128206801683DD021F0800124
:1022A0000160607E01282068016838D021F040017B
:1022B0000160A07E01282068016833D021F0200150
:1022C0000160E07E0128206801682ED041F01001F5
:1022D0000160207F01282068016829D021F00801D1
:1022E0000160607F01282068016824D021F004018A
:1022F0000160D4E902010843D4E904121143084300
:102300006168491E08432168C8610020606201209D
:1023100084F82000002070BD41F08001C0E741F04A
:102320004001C5E741F02001CAE721F01001CFE7E5
:1023300041F00801D4E741F00401D9E7F0B587B0D6
:10234000044614216846FEF782F9424B4248DFF802
:1023500000E11968D4F800C03F4A03250226092786
:1023600010300024491CF44532D11960012907D1ED
:10237000016841F000710160006800F00070059094
:10238000106840F0080010601068CDE9005600F0B9
:102390000800CDE9047069463048CDE9024500F0F7
:1023A0002FFB00220521132000F0C6FC132000F0B3
:1023B000B5FC00220521142000F0BEFC142000F022
:1023C000ADFC00220521152000F0B6FC15203AE0F6
:1023D000DFF88CE0F44538D1D0F800C04CF0806CC8
:1023E000C0F800C0D0F800C001290CF0806CCDF816
:1023F00014C0196007D1016841F0007101600068E4
:1024000000F000700590106840F002001060106845
:1024100002AB00F0020005906020CDE9000683E8E1
:10242000B00069460F4800F0EBFA00220521402079
:1024300000F082FC402000F071FC002205214120C8
:1024400000F07AFC412000F069FC07B0F0BD00000C
:10245000006400402400002030380240000C02409C
:1024600000680040000402407047000010B500689A
:1024700076498EB0884271D1754B6A460021754805
:10248000FFF75DFD009A40F2072471487249A2F2FD
:102490000723A2423DD019DCA2F58072113A57D031
:1024A000F42A27D0F52A0FD14A894A82028852BAE3
:1024B0004A81428852BA8A81828852BACA81807916
:1024C0000874062007F02EFD0EB010BD012B2FD092
:1024D000022BF9D1604932310A880A81028852BA46
:1024E0000A80428852BA4A80828852BA8A808079A9
:1024F0008871E9E70A880A81028852BA0A8042880C
:1025000052BA4A80828852BA8A80807988710520BE
:10251000D8E78A8A8A83028852BA8A82428852BA63
:10252000CA82828852BA0A83807988760720C9E7EE
:10253000CA8BCA84028852BACA83428852BA0A84B1
:10254000828852BA4A84807981F824000820B9E749
:102550003F49424807F0C0FEB6E7FFE740498842DE
:10256000B2D13B4B07AA083300213E48FFF7E7FCF6
:1025700037483949079A08302839B2F5017F44D0E5
:1025800016DCA2F50072013A21D0012A2ED0022ACF
:102590009AD18A8A8A83028852BA8A82428852BA37
:1025A000CA82828852BA0A8380798876032089E7B2
:1025B000A2F50072053A38D00C2A85D12448183883
:1025C000016A016190F8241001750B207AE70A88EE
:1025D0000A81028852BA0A80428852BA4A808288A6
:1025E00052BA8A808079887101206BE74A894A82D1
:1025F000028852BA4A81428852BA8A81828852BA83
:10260000CA818079087402205CE7CA8BCA84028878
:1026100052BACA83428852BA0A84828852BA4A8419
:10262000807981F8240004204CE70B4928310A887E
:102630000A81028852BA0A80428852BA4A80828845
:1026400052BA8A808079887109203BE70064004093
:102650003402002074090020A85D0020B84B00203F
:10266000006800409C0900207047704770470000D8
:1026700070B5044690F82000012804D0606A40F448
:102680000020606218E0022084F8200020680168C1
:1026900021F00101016000F0B1FA05460EE000BF33
:1026A00000F0ACFA401B0A2808D9606A40F40030F8
:1026B0006062052084F82000012070BD2068406819
:1026C000C007EDD1606270BD7047704770477047BA
:1026D0007047704770472DE9F0410446876D00F060
:1026E0008DFA064694F835000025022806D0802091
:1026F000606584F834500120BDE8F08120680168ED
:1027000021F0160101602068416921F080014161DA
:10271000206C08B9A06C20B12068016821F0080184
:1027200001602068016821F0010101600CE000F007
:1027300065FA801B052807D920206065032084F8EE
:10274000350084F83450D7E720680068C007EED120
:1027500094F85C103F208840B860012084F8350070
:1027600084F834500020C7E790F83510022903D0D0
:102770008021416501207047052180F835100068EF
:10278000016821F001010160002070472DE9F84344
:1027900004464FF00009CDF8009063484FF41651FD
:1027A000A56D0068B0FBF1F72E6894F85C10082066
:1027B00000FA01F131420FD021680A6852070BD5A7
:1027C0000A6822F004020A6094F85C108840A8604D
:1027D000606D40F00100606594F85C104FF00108F6
:1027E00008FA01F0304208D021684969090604D589
:1027F000A860606D40F00200606594F85C100420F1
:102800008840304208D021680968890704D5A8604B
:10281000606D40F00400606594F85C101020884002
:10282000304218D021680968090714D5A8602068CB
:102830000168490304D50068000308D5A16C07E0CE
:102840000168C90503D4016821F008010160216C09
:1028500009B12046884794F85C1020208840304217
:1028600031D021680968C9062DD5A86094F83500D3
:1028700005282068016806D0490347D50068000391
:102880001DD4616C1CE021F01601016020684169D3
:1028900021F080014161206C08B9A06C20B1206852
:1028A000016821F00801016094F85C103F20884025
:1028B000A86084F8358084F83490216D1FE0E16BC6
:1028C00009B120468847606D00282BD0606DC00795
:1028D00014D0052084F835002068016821F001013A
:1028E00001600098401C0090B84203D8206800683E
:1028F000C007F6D184F8358084F83490E16C002963
:1029000010D001B02046BDE8F04308470168C90572
:10291000D5D4016821F01001016084F8358084F875
:102920003490CCE7BDE8F883340000202DE9F04175
:10293000044600F063F906465CB1022084F83500D5
:10294000002584F834502068016821F001010160FD
:102950000DE00120BDE8F08100F050F9801B052852
:1029600005D920206065032084F83500F2E720684F
:102970000068C007F0D12268116820480140D4E9FE
:1029800001031843D4E903363343184363691843FA
:10299000A3691843E3691843236A18430843616A2B
:1029A000042903D1D4E90B131943084310602068AC
:1029B0004069666A20F0070130460E43012704286B
:1029C0000CD1A06A0643E06A40B12046FFF7E2F866
:1029D00020B14020606584F83570BAE72068466110
:1029E0002046FFF7C3F894F85C203F2191408160B6
:1029F000656584F835700020ACE700003F8010F07A
:102A00002DE9F84FDFF8BCA10022012503264FF085
:102A10000F090AF1040BAAF1040E00BF0B6805FAB6
:102A200002F42340A34270D10F7907F00307012F6E
:102A300001D0022F16D187684FEA420806FA08FC37
:102A400027EA0C07D1F80CC00CFA08FC4CEA070C7A
:102A5000C0F808C04768A7430C79C4F30014944039
:102A60003C4344600C79E443A4070AD0C4684FEAAD
:102A7000420C06FA0CF7BC438F6807FA0CF72743A1
:102A8000C7600C7904F00304022C12D1D40800EBC7
:102A9000840CDCF820405707FF0E09FA07F824EAF7
:102AA0000804D1F8108008FA07F848EA0408CCF8BE
:102AB000208004684FEA420C06FA0CF7BC430F79F9
:102AC00007F0030707FA0CF7274307604C6814F474
:102AD000403F70D03C4C276847F48047276024680B
:102AE00022F0030704F480440094384C07EB040CF4
:102AF000DCF8084897074FEA177809FA08F7BC434B
:102B0000334FB84202D1002724E054E0314FB8429D
:102B100001D101271EE0304FB84201D1022719E050
:102B20002E4FB84201D1032714E02D4FB84201D1F6
:102B300004270FE02B4FB84201D105270AE02A4FA6
:102B4000B84201D1062705E0284FB84201D1072736
:102B500000E0082707FA08F72743CCF80878DAF8E6
:102B600000405746D1F804C09C435FEACC2C00D506
:102B70001C433C60DBF800405F46D1F804C09C4336
:102B80005FEA8C2C00D51C433C60DEF800407746A1
:102B9000D1F804C09C435FEA8C3C00D51C433C60E8
:102BA000084F083F3C68D1F804C09C435FEACC3C26
:102BB00000D51C433C60521C102AFFF42FAFBDE827
:102BC000F88F0000083C01404438024000300140CA
:102BD000000002400004024000080240000C0240D5
:102BE000001002400014024000180240001C024085
:102BF0000AB1816170470904FBE700000148806861
:102C000070470000280000200248816802781144C3
:102C100081607047280000200B4810B5016841F41E
:102C200000710160016841F480610160016841F454
:102C300080710160032000F09FF80F2000F006F87B
:102C400000F050F8002010BD003C024030B50546B1
:102C50001F4887B00024016841F01001016000683E
:102C600006A900F01000009001A800F031F90498C6
:102C7000A8B100F04DF940001649174AB0FBF1F138
:102C80001648491E026040F2E732C0E90324C0E959
:102C90000114846100F05CFD040003D015E000F035
:102CA00037F9E9E70D4800F0ABFD04000DD13620FF
:102CB00000F034F8102D07D200222946362000F00B
:102CC0003BF80748056000E0012407B0204630BD0E
:102CD0004038024040420F0000100040580D0020D4
:102CE0002C0000200C4882B0016841F48041016052
:102CF000006800F4804000900748001F016841F020
:102D0000805101600068002200F0805000900F2187
:102D1000901E02B000F010B844380240002809DBD1
:102D200000F01F02012191404009800000F1E020E5
:102D3000C0F8001170470000F0B40E4B1B680C4641
:102D4000C3F30223C3F10705042D00D90425191D7F
:102D5000072901D2002300E0DB1E012606FA05F157
:102D6000491E214099409E40761E16403143F0BCDA
:102D700002F045BE0CED00E0064900F007020868CD
:102D80004FF6FF03184040EA0220034A1043086050
:102D9000704700000CED00E00000FA052DE9F04757
:102DA0000E46050065D0DFF81481D8F80000F7B2B0
:102DB00000F00700B04207D288F80070D8F8000091
:102DC00000F00700B04254D128683D4C810712D56D
:102DD000400703D5206840F4E050206028780007C1
:102DE00003D5206840F4604020602068A96820F086
:102DF000F000084320602878C0072DD0304968686B
:102E00000839012812D0022813D0032811D00968EC
:102E1000890700292DDA216821F00301014321608F
:102E2000FFF7ECFE814641F2883A0EE0096889031B
:102E3000EFE709688901ECE7FFF7E0FEA0EB090185
:102E4000514502D90320BDE8F0872068696800F089
:102E50000C00B0EB810FEFD1D8F80010404601F024
:102E60000701B14207D90770006800F00700B042BF
:102E700001D00120E7E72878400705D52068E968F8
:102E800020F4E050084320602878000706D5206829
:102E9000296920F4604040EAC100206000F058F841
:102EA0002168084AC1F30311515CC8400649086013
:102EB00006480068FFF7CAFE0020C4E7003C024055
:102EC0000838024034E20008340000202C000020C2
:102ED0000F2202600C4A136803F003034360136877
:102EE00003F0F0038360136803F4E053C3601268D7
:102EF0004FF4E05303EAD20202610448006800F094
:102F0000070008607047000008380240003C02409B
:102F10000448054900680968044AC1F38221515CEC
:102F2000C8407047340000200838024044E20008DE
:102F30000448054900680968044AC1F34231515CFC
:102F4000C8407047340000200838024044E20008BE
:102F5000154810B5006810F00C02144813D014493D
:102F6000042A0FD0082A0ED10F4C241F2268236890
:102F700002F03F025B0207D52068C0F38810A0FB77
:102F8000010106E0084610BD2168C1F38811A1FBCC
:102F900000010023FDF7E8F92168C1F30141491C54
:102FA0004900B0FBF1F010BD083802400024F400E5
:102FB000001BB7002DE9F84F04006ED02078DFF831
:102FC0004C93C007A9F104054AD009F10400016837
:102FD000C1F38101012908D00068C0F381000228F3
:102FE0000AD1D9F80000400206D52868800337D5F9
:102FF00060680028E1D033E06068B0F5803F10D011
:10300000B0F5A02F286810D020F480302860286800
:1030100020F4802028606068A8B1FFF7EFFD064625
:103020000DE0286840F48030F4E740F48020286008
:10303000F7E700BFFFF7E2FD801B642873D828681C
:103040008003F7D50CE0FFF7D9FD064605E000BF89
:10305000FFF7D4FD801B6428F0D828688003F7D4DC
:103060002078DFF8AC8280074FF0000A3ED5A748F1
:10307000001D016811F00C0F08D00068C0F381003A
:1030800002280BD1D9F80000400207D42868800735
:1030900016D5E068012800D112E033E1E068B8B14C
:1030A0000120C8F80000FFF7A9FD064605E000BFB3
:1030B000FFF7A4FD801B0228C0D828688007F7D539
:1030C0002868216920F0F80040EAC10028600DE07E
:1030D000C8F800A0FFF792FD064604E0FFF78EFD5A
:1030E000801B02281FD828688007F7D420780007A3
:1030F00022D5864F87486169703771B1012101601F
:10310000FFF77CFD064604E0FFF778FD801B0228F0
:1031100009D838688007F7D50EE0C0F800A0FFF79F
:103120006DFD064605E082E0FFF768FD801B022882
:103130007DD838688007F7D42078400768D5DFF855
:10314000CCB100270BF13C0BDBF80000C0000BD426
:10315000DBF8001041F08051CBF80010DBF80000E4
:10316000012700F0805000906B4E3068C00510D4ED
:10317000306840F480703060FFF740FD009005E05B
:10318000FFF73CFD0099401A022850D83068C0056E
:10319000F6D55E4EA0686C3601280FD00528306841
:1031A00010D020F001003060306820F00400306062
:1031B000A068B8B1FFF722FD00900FE0306840F042
:1031C0000100F4E740F004003060F7E7FFF716FD78
:1031D0000099411A41F28830814266D830688007F0
:1031E000F4D50EE0FFF70AFD009007E0FFF706FDBB
:1031F0000099411A41F28830814256D830688007E0
:10320000F4D42FB1DBF8001021F08051CBF800107E
:10321000A069C8B33D49091D0968C1F381010229AC
:103220004AD00228504607D0C8F8600000E03CE0D1
:10323000FFF7E4FC04463BE04746C8F86000FFF7B0
:10324000DDFC064605E000BFFFF7D8FC801B022826
:103250002BD828688001F7D4D4E907010843A16A74
:103260002E4A490802EB0141626A41EA8211084391
:1032700094F82C1040EA0161C9F80010012038666A
:10328000FFF7BCFC044606E03EE000BFFFF7B6FCDB
:10329000001B022809D828688001F7D534E000BF58
:1032A000FFF7ACFC001B022802D90320BDE8F88F11
:1032B00028688001F4D427E00128F7D0D9F800006D
:1032C000E26900F4800191421CD1226A00F03F01C2
:1032D000914217D147F6C071626A0140B1EB821F7B
:1032E00010D1A26A4FF0FF3300F4403103EB5202D9
:1032F000B1EB024F06D194F82C1000F07060B0EBE7
:10330000016F01D00120D1E70020CFE7043802404F
:1033100000004742800E4742007000400000FFFF5F
:1033200070B5040009D0606A002540B1256165616F
:10333000A56294F8510040B10CE0012070BD6068B6
:10334000B0F5827FF4D0E561F2E784F85050204672
:1033500000F044F8022084F851002068016821F050
:1033600040010160A088218900F4827001F40441C9
:103370000843A18901F400610843217C01F00201A6
:103380000843217D01F001010843218B01F4007104
:103390000843217F01F03801084394F8201001F020
:1033A00080010843218D01F4005108432168086021
:1033B000A069042101EA104094F8241001F01001E2
:1033C0000843216848602068C16921F40061C16137
:1033D0006565012084F85100002070BD2DE9F041A1
:1033E00086B0064614216846FDF731F93449306845
:1033F000884262D133480024016841F48051016061
:10340000006800F4805005902E481438016841F09F
:1034100002010160016801F002010591016841F0BB
:10342000010101600068022500F0010005901820EC
:10343000CDE9000502AA03274FF0050882E89001B4
:1034400069462148FFF7DCFA8020CDE9000502AA91
:10345000694682E890011D48FFF7D2FA1D4D1C48CD
:103460007F062860C5E901744FF48068C5E9034808
:103470006C61AC61EC612C6228466C62FFF756FA15
:1034800008B1FEF7E3FBF564AE63124D10486035FA
:103490001830E5E802074020A5E811010D4845F87D
:1034A00014496030AC61EC612C626C62FFF73EFA4B
:1034B00008B1FEF7CBFBB564AE6306B0BDE8F081A2
:1034C0000030014044380240000402400000024045
:1034D000406402401C0A00202DE9F84F044690F891
:1034E000500000270A9E1D4692468B464FF0010968
:1034F00001280ED0012084F85000FFF77FFB8046A2
:1035000094F85100616801280CD0B1F5827F07D191
:1035100002E00220BDE8F88FA16809B9042801D0B3
:103520000227C2E0BBF1000F27D0BAF1000F24D070
:103530001DB394F85100042802D0052084F85100EE
:1035400000206065C4F838A0E587A587C4F830B0CE
:10355000E586A5862064606420680168490603D476
:10356000016841F040010160E068B0F5006F6068FB
:1035700005D0E8B3012D46D07FE0012795E008B1E2
:10358000012D39D1206B21680088C860206B801C18
:103590002063E08E401EE0862EE020688168890767
:1035A0000FD5E18E69B1B9F1010F0AD1216B0988FC
:1035B000C160206B801C2063E08E401EE0864FF0CF
:1035C000000920688168C9070CD0E18F51B1C0683B
:1035D000A16B0880A06B801CA063E08F401EE08779
:1035E0004FF00109FFF70AFBA0EB0800B04200E032
:1035F00009E001D3701C50D1E08E0028CDD1E08FBE
:103600000028CAD13FE0206B216800780873206B46
:10361000401C2063E08E401EE0862EE0206881681A
:1036200089070FD5E18E69B1B9F1010F0AD1216B7C
:1036300009780173206B401C2063E08E401EE086F9
:103640004FF0000920688168C9070CD0E18F51B1A3
:10365000C068A16B0870A06B401CA063E08F401E87
:10366000E0874FF00109FFF7C9FAA0EB0800B0426C
:1036700002D3701C01D010E07EB1E08E0028CDD1C5
:10368000E08F0028CAD142463146204601F05EFC58
:1036900028B101272020606507E0032705E0A06826
:1036A00018B92068C16880680090012084F8510032
:1036B000002084F8500038462CE77047704700001F
:1036C00070B590F83C20012A32D0012480F83C40AB
:1036D000022280F83D2003685A689D6822F0700637
:1036E0000A6832435A60134B02689A4214D0B2F10E
:1036F000804F11D0104B9A420ED0104B9A420BD0F3
:103700000F4B9A4208D00F4B9A4205D00E4B9A426B
:1037100002D00E4B9A4204D1496825F08003194328
:10372000916080F83D40002180F83C10084670BD53
:10373000022070BD0000014000040040000800406D
:10374000000C00400004014000400140001800400F
:1037500010B5040003D094F83D0010B107E001203B
:1037600010BD002084F83C00204600F01FF8022025
:1037700084F83D00211D206801F064FD012084F8DB
:10378000460084F83E0084F83F0084F8400084F846
:10379000410084F8420084F8430084F8440084F82F
:1037A000450084F83D00002010BD000008B5114A16
:1037B00001681148914208D1016841F0040101609B
:1037C000006800F00400009008BD0C4A9142FBD153
:1037D000016841F0080101600068002200F0080063
:1037E000009005213220FFF7A7FABDE808403220FB
:1037F000FFF794BA0008004040380240000C004037
:1038000090F83D10012901D001207047022180F875
:103810003D100168CA6842F00102CA60006811499F
:10382000884214D0B0F1804F11D00F4988420ED099
:103830000E4988420BD00E49884208D00D49884273
:1038400005D00D49884202D00C49884204D18168D4
:1038500001F00701062903D0016841F00101016070
:1038600000207047000001400004004000080040B4
:10387000000C0040000401400040014000180040DE
:1038800070B5044690F83C000025012817D00126A9
:1038900084F83C60022084F83D002068826822F0B1
:1038A000770222F47F4282600868502838D00DDC0D
:1038B00020284FD005DC90B3102811D14AE0022017
:1038C00070BD302846D040280AD13BE060282FD078
:1038D00070280DD0B0F5805F03D0B0F5005F12D036
:1038E000012584F83D60002084F83C00284670BD26
:1038F000CB68D1E90121206801F008FD20688168CA
:1039000041F0770109E0CB68D1E90121206801F09D
:10391000FDFC2068816841F480418160E1E719E0A5
:10392000CA684968206801F0C5FD5021206806E09A
:10393000CA684968206801F0CEFD6021206801F066
:10394000EFFCCEE7CA684968206801F0B3FD40216A
:103950002068F4E7226801461046F0E7704770B52A
:103960000446006801694FF00005C943890715D472
:10397000C168C943890711D4E91E0161012020777C
:10398000206880698007204602D0FFF7E7FF04E047
:1039900000F0C2F8204600F054F92577206801694C
:1039A000C943490717D4C168C943490713D46FF005
:1039B00004010161022020772068806910F4407FB3
:1039C000204602D0FFF7CAFF04E000F0A5F8204629
:1039D00000F037F9257720680169C943090716D433
:1039E000C168C943090712D46FF0080101610420BE
:1039F00020772068C0698007204602D0FFF7AEFF1D
:103A000004E000F089F8204600F01BF925772068D3
:103A10000169C943C90617D4C168C943C90613D48B
:103A20006FF010010161082020772068C06910F450
:103A3000407F204602D0FFF791FF04E000F06CF8D1
:103A4000204600F0FEF8257720680169C943C907C0
:103A500008D1C168C943C90704D1891E0161204644
:103A600000F0F0F820680169C943090609D4C1686B
:103A7000C943090605D46FF0800101612046FFF7B4
:103A80001CFE20680169C943490609D4C168C943BD
:103A9000490605D46FF040010161204600F02AF983
:103AA00020680169C94389060BD4C168C9438906E6
:103AB00007D46FF0200101612046BDE87040FFF798
:103AC000FDBD70BD10B586B0044614216846FCF7F4
:103AD000BEFD0E492068884215D10D4800210268BC
:103AE00042F008020260006800F0080005904FF400
:103AF000804000900220CDE90101CDE90310694624
:103B00000448FEF77DFF06B010BD0000000800402D
:103B100030380240000C0240704770B5044690F8FF
:103B20003C0000260D4601280FD0012084F83C00FF
:103B30006AB1042A1DD0082A2FD00C2A3FD00126B2
:103B4000002084F83C00304670BD022070BD206823
:103B500001F0EEFB2068816941F008018161206875
:103B6000816921F004018161206881692A6911431A
:103B700011E0206801F00CFC2068816941F40061CB
:103B800081612068816921F4806181612068816997
:103B90002A6941EA02218161D2E7206801F02EFC06
:103BA0002068C16941F00801C1612068C16921F044
:103BB0000401C1612068C1692A69114311E02068CC
:103BC00001F050FC2068C16941F40061C1612068C6
:103BD000C16921F48061C1612068C1692A6941EA33
:103BE0000221C161ACE710B5040003D094F83D0098
:103BF00010B107E0012010BD002084F83C002046F1
:103C000000F01EF8022084F83D00211D206801F01C
:103C100019FB012084F8460084F83E0084F83F0038
:103C200084F8400084F8410084F8420084F843009E
:103C300084F8440084F8450084F83D00002010BD5D
:103C400070477047F0B4244A016891423AD1234941
:103C5000B2EE041AD1F88C21B2F8CB3400EE103A4F
:103C6000B2F8CD34B2F89F24F8EE400A9A1AA2F1C5
:103C7000280380EE810A9FED1A1AC0EE010A9FED1B
:103C8000190A70EE600A00EE103AB8EEC00A80EE33
:103C9000201ABCEEC10A10EE103A9EB2124B1E80E2
:103CA000124B1D886C1C1C800024B54203D981F87E
:103CB00090411C8002E0012381F890311E2A01DC32
:103CC00081F8904100680A49884202D1F0BCFEF7B1
:103CD0009BBFF0BC70470000000C0040485B002018
:103CE00000007A449999993E0002002000000020CB
:103CF000001000407047704770470000F8B5016839
:103D000004460868CA684B6910F00F0F4FF00005B1
:103D100059D003F0010602F49077374365D0C1070C
:103D200005D0D10503D5216C41F001012164410783
:103D300005D5D90703D0216C41F002012164810728
:103D400005D5D90703D0216C41F004012164010796
:103D500007D502F02001314303D0216C41F0080166
:103D60002164216C00293AD0800604D5900602D542
:103D7000204601F01EFC20684069216CC0F38010D1
:103D8000090700D460B3204601F0ECFB20684069CD
:103D9000400621D52068143050E8001F21F0400172
:103DA00040E80012002AF5D1A06BA8B16C4901656A
:103DB000A06BFEF7D9FC002811D0A06B016D01B0FB
:103DC000BDE8F040084783060FD593060DD5204681
:103DD000BDE8F84001F0EDBB2046FFF78DFFF8BDD0
:103DE0002046FFF789FF2564F8BD266B2023012EAE
:103DF00079D1C60677D5D60675D50868486800908B
:103E00004869400640D5A16B086840680004000C72
:103E1000EAD0A28D8242E7D9E085C869B0F5807FFB
:103E20002DD020680C3050E8001F21F4807140E84C
:103E30000012002AF5D12068143050E8001F21F04C
:103E4000010140E80012002AF5D12068143050E842
:103E5000001F21F0400140E80012002AF5D184F84B
:103E60003E30256320680C3050E8001F21F010011F
:103E700040E80012002AF5D1A06BFEF72CFCA08DC3
:103E8000E18D401A81B229E0A08DE18D401A81B206
:103E9000E08D0028A8D00029A6D020680C3050E87A
:103EA000002F22F4907240E80026002EF5D1206801
:103EB000143050E8002F22F0010240E80026002EC6
:103EC000F5D184F83E30256320680C3050E8002F8F
:103ED00022F0100240E80023002BF5D12046FFF726
:103EE0000AFFF8BDFFE705062BD5150629D594F87E
:103EF0003D002128F5D1A068B0F5805F01D120698F
:103F0000B0B1206A411C2162216800784860E08CD1
:103F1000401E0004000CE084E3D12068C16821F059
:103F20008001C1602068C16841F04001C160D8E7EC
:103F3000206A0088C0F308004860206A801C206264
:103F4000E5E74006CDD55006CBD5CA68204622F01D
:103F50004002CA6084F83D3000F085F9C1E70000F6
:103F60005555000870B5040004D094F83D000025B4
:103F700010B106E0012070BD84F83C50204600F0EE
:103F800023F8242084F83D002068C16821F4005102
:103F9000C160204601F06EFB2068016921F4904168
:103FA00001612068416921F02A0141612068C168EE
:103FB00041F40051C1602564202084F83D0084F85C
:103FC0003E00002070BD00002DE9F04387B006469A
:103FD00014216846FCF73BFB6B486A4B32686A4920
:103FE0001438022500244FF003084FF007099A42C5
:103FF00032D10A6842F010020A60096801F010012B
:104000000591016841F002010160016801F00201BF
:104010000591016841F001010160006802AA00F009
:10402000010005908020CDE9000582E81003694673
:104030005648FEF7E5FC2802CDE9000502AA6946CC
:1040400082E810035248FEF7DBFC00220521252000
:10405000FEF772FE25203BE04E4B1F159A423CD1E5
:104060004949091F0A6842F480220A60096801F47C
:1040700080210591016841F004010160006802AAF5
:1040800000F0040005904FF44060CDE9000582E89F
:10409000100369464048FEF7B3FC414D3F48286095
:1040A0007804C5E90104C5E903476C61AC61EC61C2
:1040B0002C6228466C62FEF739FC08B1FDF7C6FD9C
:1040C000B563002205212720AE63FEF735FE2720C9
:1040D000FEF724FE07B0BDE8F083324B9A42F9D1D7
:1040E0000A6842F020020A60096801F02001059187
:1040F000016841F0400101600068029400F0400056
:1041000005904FF48440CDE900050820CDE90380F7
:1041100069462548FEF774FC214D244860354FF070
:1041200020682860C5E90184C5E903476C61AC617A
:10413000EC612C6228466C62FEF7F8FB08B1FDF7D3
:1041400085FDB563AE63164D1848C0357830E5E897
:104150000208402091C5124845F81449C030AC61AE
:10416000EC612C626C62FEF7E1FB08B1FDF76EFDBD
:104170007563002205214720AE63FEF7DDFD472071
:10418000A6E700000010014044380240000402404D
:104190000000024000480040000802402860024041
:1041A000380C00200014014000180240286402402E
:1041B000704700002DE9F843044690F83D001F4683
:1041C00016460D4620284CD1C5B1BEB194F83C002E
:1041D000012846D0012084F83C004FF00008C4F8C4
:1041E0004080212084F83D00FEF708FDA68481462A
:1041F000E684A068B0F5805F03D004E00120BDE84C
:10420000F883206928B12E465FF0000584F83C80D1
:104210000EE00026FAE78021204601F0B1FAA0B9AD
:10422000AEB116F8010B21684860E08C401EE084B6
:10423000E08C4B464FF0000200970028EBD14FF086
:104240004001204601F09CFA30B10320D7E735F851
:10425000020BC0F30800E6E7202084F83D000020B0
:10426000CDE70220CBE77047FEE700002DED028B83
:10427000002007F015FB02E0642006F04BF9FDF783
:1042800045FA0028F8D12A4AA2F11004101D9146DF
:10429000211D8046FDF746FA0023DFED260A9FED3B
:1042A000260A264A012104F1300000F03BFDA4F16A
:1042B0001000FCF719FB04F1A80006F04BF804F11C
:1042C0002C073E1F9FED1E8A351F4A46211D404682
:1042D000FDF728FA16494046983106F093F804F1A4
:1042E0001401134891EC030A211D2038D1EC031A64
:1042F00000F0CCFA0E483B4632462946203805F0FD
:1043000067FF002004EB8001401C91ED090AC0B258
:10431000032820EE080A81ED090AF3D394ED0A0A76
:104320000120B1EE400A84ED0A0A06F0F3F8CCE76A
:10433000D85300200080894500A08C4558E2000831
:10434000E12E654210B531483149408A0A8808801B
:1043500020EA02042F49142201F11400FCF7BEF8F0
:10436000012100222B48402C03D08271802C06D0E2
:1043700000E08171C271B4F5807F06D000E0C171A8
:104380000272B4F5007F06D000E001724272B4F50B
:10439000806F06D000E041728272B4F5006F06D0E3
:1043A00000E08172C272B4F5805F06D000E0C17295
:1043B0000273B4F5005F06D000E001734273B4F5F8
:1043C000804F06D000E041738273B4F5004F05D0F2
:1043D00000E08173C273102C05D000E0C17302713C
:1043E000202C10D000E0017142714179427A01EA3B
:1043F00002030374C37B19404174C17A0A4082747A
:104400001940C17410BD4171EFE70000B84B0020A6
:104410000C020020585D00200F4810B50D490160C6
:104420000321416000214FF410228160C0E9031292
:104430004FF400124261017641768176C1760177B0
:104440004177FDF7EEFE002803D0BDE81040FDF7F0
:10445000FDBB10BD00640040740900200E4810B57B
:104460000C4901600321416000214FF4302281603A
:10447000C0E903124161017641768176C176017708
:104480004177FDF7CEFE002803D0BDE81040FDF7D0
:10449000DDBB10BD006800409C0900201D4808B528
:1044A000016841F480010160016801F4800100911C
:1044B000016841F4001101600068002200F400105E
:1044C000009005210C20FEF737FC0C20FEF726FC9F
:1044D000002205213920FEF72FFC3920FEF71EFCB3
:1044E000002205213A20FEF727FC3A20FEF716FCB1
:1044F000002205213B20FEF71FFC3B20FEF70EFCAF
:10450000002205214520FEF717FCBDE808404520A4
:10451000FEF704BC3038024010B5B8B01C222C495C
:104520006846FCF762F80021684605F0FFFF294C59
:1045300027491C2220601C3107A8FCF756F80021EF
:1045400007A805F0F3FF224960601C2238310EA84D
:10455000FCF74BF800210EA805F0E8FF1C49A0600D
:104560001C22543115A8FCF740F8002115A805F0CD
:10457000DDFF1749E0601C2270311CA8FCF735F8FC
:1045800000211CA805F0D2FF114920611C228C31AA
:1045900023A8FCF72AF8002123A805F0C7FF0C493F
:1045A00060611C22A8312AA8FCF71FF800212AA864
:1045B00005F0BCFF0649A0611C22C43131A8FCF7FC
:1045C00014F8002131A805F0B1FFE06138B010BD4A
:1045D0004CE10008040000202DE9F04186B01421D0
:1045E0006846FCF734F829480025016841F00201CB
:1045F0000160016801F002010591016841F040018C
:104600000160016801F040010591016841F001017C
:104610000160016801F001010591016841F00801A4
:104620000160016801F008010591016841F0040191
:104630000160016801F004010591016841F0800109
:1046400001600068124F00F08000059001221021E7
:104650003846FEF7CDFADFF83C800122114640468D
:10466000FEF7C6FA1020012402268DE87100694683
:104670003846FEF7C5F901AA009482E87000694641
:104680004046FEF7BDF906B0BDE8F0813038024083
:104690000000024000040240104810B50E490160BD
:1046A0004FF482714160002102228160C0E903124F
:1046B00001224261520282613822C0E9072141622F
:1046C00081620A21C162FEF72BFE002803D0BDE8FB
:1046D0001040FDF7BBBA10BD00300140C4090020F6
:1046E00010B58EB000240794089409940A940B9492
:1046F0001C2168460C94FBF7AAFF1E481C49C0E920
:10470000001445F20721C0E9024104618461FFF70A
:104710001FF808B1FDF79AFA4FF48050079007A9E7
:104720001448FFF7ADF808B1FDF790FA1148FFF70C
:104730005AFA08B1FDF78AFA0B940BA90D480C94AC
:10474000FEF7BEFF08B1FDF781FA6020CDE9000455
:1047500002940822694607480494FFF7DEF908B17D
:10476000FDF774FA0348FFF7ADF90EB010BD000075
:1047700000080040DC0A002010B586B0002417486D
:104780000094019402940394049413490594C0E99D
:1047900000144AF20F41C0E90241802104618161A5
:1047A000FEF7D6FF08B1FDF751FA4FF480500090A4
:1047B00069460A48FFF764F808B1FDF747FA049420
:1047C00004A906480594FEF77BFF002801D0FDF7F9
:1047D0003DFA06B010BD0000000C0040240B002084
:1047E0000C4810B50A4901604FF4E13141600021E5
:1047F00081600C22C160C0E904128161C161FFF7D0
:10480000B1FB002803D0BDE81040FDF71FBA10BD72
:10481000001001406C0B00200C4810B50A490160E3
:104820000B494160002181600C22C160C0E9041283
:104830008161C161FFF796FB002803D0BDE81040FD
:10484000FDF704BA10BD000000480040B00B002086
:10485000A08601000C4810B50A4901604FF4E1310F
:104860004160002181600C22C160C0E904128161B5
:10487000C161FFF777FB002803D0BDE81040FDF7CA
:10488000E5B910BD00140140F40B0020F5EEC01A8C
:10489000B0EE413AF0EE603AB0EE404AF1EE10FA76
:1048A00000B5024609D1B5EEC02AF1EE10FA04D1E6
:1048B000F5EEC02AF1EE10FA78D021EEA10A02EE50
:1048C000020A02EEA20A05F0B7FD21EE805A62EE5E
:1048D000004A92ED011AD2ED030A22EE800AD2EDCF
:1048E000002A21EE202AD2ED021A22EE811A5C481B
:1048F00002EEE12A01EEA01AF6EE001A52EEA21A1A
:1049000040EEA01A60EE020A64EEA12A45EE610AAA
:1049100040EE412A25EE010A90ED011A04EEC20A8A
:10492000B5EEC01AF1EE10FA2CDD90ED011AD0EDC3
:10493000021A21EE222A9FED4B1A42EE011AC0ED17
:10494000021AD0ED011A21EEA02AD0ED031A42EE90
:10495000011AC0ED031AD0ED011A21EE802AD0ED24
:10496000041A42EE011AC0ED041A90ED021A34EE58
:10497000014A90ED031A73EE813A90ED041A33EE7A
:10498000013A07E09FED381A80ED021A80ED031A14
:1049900080ED041A90ED001A01EE224A90ED001A03
:1049A00041EE203AD0ED000A00EE803A9FED2F0A4A
:1049B000D2ED021A24EE002A63EE802A23EE001ABA
:1049C00092EC020A92ED033A60EEC23A41EEE23A0C
:1049D00043EE413A73EE804A60EE023AC2ED004A7D
:1049E00041EE813A43EE623A33EEA04A60EE223A5B
:1049F00020EE010A82ED014A40EEC13A00EEA20A21
:104A000043EE023A01EEC20A73EEA13A70EE030AD7
:104A100024EEA40AC2ED023AC2ED030A04EE040A2F
:104A200003EEA30A00EEA00A05F006FDD2ED000A8F
:104A300060EE800AC2ED000AD2ED010A60EE800A43
:104A4000C2ED010AD2ED020A60EE800AC2ED020A4E
:104A5000D2ED030A20EE800A82ED030A00BD0000B9
:104A6000700200206F12833A000000006F12033AB8
:104A7000B5EEC00AF1EE10FA01DCB1EE400A704763
:104A8000FEE7FEE7E8B390ED101A80ED111A90ED05
:104A90000F1A80ED101AC0ED060AFCEEE00A80ED58
:104AA000070ABCEEC00A10EE902A93B210EE102A4C
:104AB00092B29A1A4B089A4200DD521A5B429A420D
:104AC00000DA0A4400EE102AB8EEC00A80ED0F0AA0
:104AD000D0ED010A60EE801AC0ED091AD0ED0A0A85
:104AE00090ED022A42EE000A30EE410AC0ED0A0AB9
:104AF00090ED0D2A80ED0E2A90ED0C2A80ED0D2A06
:104B000000E018E080ED0C0A90ED031A21EE001A87
:104B100080ED0B1A90ED050AF4EEC00AF1EE10FAE2
:104B20000CDCB1EE400AF4EEC00AF1EE10FA05D347
:104B300090ED0A0A04E09FED0F0A704780ED0A0A23
:104B400031EE800A30EE010A80ED080AD0ED040A49
:104B5000B4EEE00AF1EE10FA06DCF1EE600AB4EE13
:104B6000E00AF1EE10FA01D2C0ED080A90ED080A51
:104B7000704700000000000070B504002DED048BAC
:104B8000F0EE608AB0EE409A9FED608A29D094F8EA
:104B900060004FF0010500063FD594ED080AD4ED02
:104BA000040A9FED5B1A60EE810AB4EEE00AF1EEB2
:104BB00010FA2AD394ED060AD4ED070A30EE600A03
:104BC000FFF756FF94ED061A5249C0EE010A10EEA7
:104BD000900A88420ADDD4E91A01401C41F1000123
:104BE00006E0B0EE480ABDEC048B70BD0020014623
:104BF000C4E91A01D4E91A124FF4FA630020591AD1
:104C0000904102D284F8705002E094F8700020B114
:104C1000B0EE480A84ED080AE5E794ED100A78EE54
:104C2000C90A84ED110AB7EE000A94ED0F1A20EEBE
:104C3000200A84ED101AC4ED068A84ED079A08EE66
:104C4000010A84ED0F0A207898B910EE100A324953
:104C5000DFED320A884203DD30EE600A84ED0F0A90
:104C600010EE100A2E49884203D930EE200A84ED56
:104C70000F0A94ED010AD4ED0F0A60EE201AC4ED7C
:104C8000091A94ED0A0A94ED022A02EE200A70EE47
:104C9000C10A84ED0A0A94ED0D2A84ED0E2A94EDE2
:104CA0000C2A84ED0D2AC4ED0C0A94ED031A21EEB2
:104CB000201A84ED0B1AD4ED050AB4EEE00AF1EEE9
:104CC00010FA06DCF1EE600AB4EEE00AF1EE10FA3A
:104CD00001D2C4ED0A0A94ED0A0A31EE800A30EEE0
:104CE000010A84ED080AD4ED040AB4EEE00AF1EEFC
:104CF00010FA06DCF1EE600AB4EEE00AF1EE10FA0A
:104D000001D2C4ED080A94ED080A6CE70000000027
:104D1000CDCCCC3D6666663F000034430000B44312
:104D2000000034C300282AD0002A28D0017092ED58
:104D3000001A80ED011A92ED011A80ED021A92ED2F
:104D4000021A80ED031A80ED040AC0ED050A9FEDFA
:104D50000C0A80F8603080ED0E0A80ED0D0A80EDBF
:104D60000C0A80ED080A80ED0B0A80ED0A0A80ED3E
:104D7000090A80ED110A80ED100A80ED0F0A7047D4
:104D80000000000030B5144B1C68656945F0400513
:104D900065611B68DC6844F01004DC600F4B1C6824
:104DA000256825F0010525601C682568ED07F7D109
:104DB0001D680B4CAC601C68E060186801611868E5
:104DC00042601868016841F4802101601868016838
:104DD00041F00101016030BDB00B0020380C002013
:104DE0000448004070B5154A13681C6824F001049B
:104DF0001C6013681C68E407F7D1114E4FF40014CF
:104E0000B34202D90E4D4C3D04E00E4DAB4203D9E6
:104E10000B4D503D2C6008E00A4E0A4D603EB83DF7
:104E2000B34201D9EC6000E0AC60D860106841602A
:104E30001068016841F00101016070BDF80C0020AC
:104E400058640240B860024010B5134CC4F88204A4
:104E5000B4F8800400281DD0D4F882040178A52974
:104E600018D1052100F075FD012813D1D4F8820472
:104E7000C01D00F013F8D4F88204B4F88014B0F820
:104E80000120891A0939A4F88014B0F801100844E7
:104E90000930DBE710BD000050560020224930B435
:104EA000D1F8822440F20624B2F80520A2F20623AB
:104EB000A24227D00DDC012A15D0032A18D0A2F572
:104EC0000072013A19D0012A0BD10146102217486D
:104ED00026E0012B1BD0032B1ED0FB2B01D1C1F8E8
:104EE000860430BC7047014610480B220B3817E08F
:104EF00001460E482022103012E001460B480D22D8
:104F000030300DE0014609480122413008E00146F9
:104F100006480722463003E00146044804223D309B
:104F200030BCFBF720BB000050560020E55A0020A3
:104F300008B58020044B8200A3F500710090A1F514
:104F4000007005F05DFF08BD505A002038B50446DA
:104F50001248134B0068B0FBF3F04FF47A735843D8
:104F600000906068B0F5827F0DD10B460092002260
:104F70008021204600F016F870B1606D40F02000EE
:104F80006065032038BD009830B1401E0090206855
:104F90008068C0430006F6D5002038BD34000020EC
:104FA00000366E012DE9F8431E46914688460446B8
:104FB000089DFDF723FE401B351AFDF71FFE07462F
:104FC00025480068C0F3CB30684338E0701C37D008
:104FD000FDF714FEC01BA84203D215B1009860B3C0
:104FE0002CE02068416821F0E00141606068B0F584
:104FF000827F0BD1A068B0F5004F02D0B0F5806F72
:1050000004D12068016821F040010160A06AB0F578
:10501000005F09D12068016821F400510160206817
:10502000016841F400510160012084F85100002022
:1050300084F850000320BDE8F8830025401E00904E
:105040002068816838EA010004D000214945BDD1BB
:105050000020F0E70121F9E73400002070B5254C6D
:105060006079A071244805782448016801F10F0097
:105070008B880A890DB3142565F38E138B80192351
:1050800063F38C020A81B1F8092040F2EE2363F346
:105090004F12A1F809200A7922F03C0220320A714D
:1050A00017A1FBF7D8F901206071A179C0B288423D
:1050B0001ED0BDE8704003F0FDB8502565F38E1397
:1050C0008B8040F2D52363F38C020A81B1F809206A
:1050D0004FF42F7363F34F12A1F809200A7922F0DD
:1050E0003C0218320A7109A1FBF7B5F90020DBE791
:1050F00070BD00000E020020B600002094020020C7
:105100004341503A434C4F53450000004341503A0D
:105110004F50454E0000000010B5502080F311881C
:10512000BFF34F8FBFF36F8F07F050F818B10449EA
:105130004FF080500860002080F3118810BD0000FF
:1051400004ED00E030B593B030216846FBF77FFAFC
:1051500014210CA8FBF77BFA1D480025016841F0DB
:1051600080510160006800F080501190194801687A
:1051700041F4804101600068022400F480401190F5
:1051800001200090000401908001CDE90640062036
:105190000890A820CDE9090404200B906846FDF78B
:1051A00009FF08B172B6FEE70CA90F2081E83100B3
:1051B0004FF4A0500F904FF48050109005210CA890
:1051C000FDF7ECFD002801D072B6FEE713B030BD4C
:1051D00040380240007000401048016841F47001FE
:1051E00001600F48016841F0010101600C4A002193
:1051F0000832116002680B4B1A400260031D0A4A14
:105200001A60026822F48022026005480C300160B6
:1052100002495806803908607047000088ED00E0B8
:1052200000380240FFFFF6FE103000240148FEF770
:1052300096BB0000240B00200148FEF790BB000045
:10524000580D0020F0B50268254C264D264E274FFC
:10525000274B4FF0804CA04209D0604507D0A842B0
:1052600005D0B04203D0B84201D0984204D122F018
:10527000700E4A6842EA0E02A0421BD0604519D067
:10528000A84217D0B04215D0B84213D0984211D0DE
:10529000184DA8420ED0184DA8420BD0174DA84269
:1052A00008D0174DA84205D0164DA84202D0164D81
:1052B000A84203D122F44075CA682A434D6922F0FE
:1052C00080022A4302608A68C2620A688262A0423F
:1052D00001D0984201D10969016301214161F0BD0A
:1052E000000001400004004000080040000C0040A5
:1052F00000040140004001400044014000480140DA
:1053000000180040001C00400020004010B58468D8
:1053100042EA032224F47F440A432243826010BD00
:10532000826822F070020A4342F0070181607047F0
:10533000F0B5026A22F001020262036A42688469DF
:10534000124E24F073050C682C4323F002058B6881
:105350002B430D4DA84201D0B04205D123F00807E0
:10536000CB683B4323F00403A84201D0B04205D1EF
:105370004D6922F4407215438A692A434260846170
:10538000496841630362F0BD000001400004014030
:10539000F0B5026A22F010020262026A4368846970
:1053A0000D6824F4E64444EA05248D6822F02002C6
:1053B00042EA05120F4D104EA84201D0B04206D16C
:1053C000CF6822F0800242EA071222F04002A8428F
:1053D00001D0B04207D14D6923F4406343EA85030D
:1053E0008D6943EA85034360846149688163026291
:1053F000F0BD00000000014000040140F0B5026A69
:1054000022F480720262026A4368C46922F4007264
:1054100024F073050C68124E2C438D6842EA052275
:105420000E4DA84201D0B04206D1CF6822F40062EE
:1054300042EA072222F48062A84201D0B04207D19A
:105440004D6923F4405343EA05138D6943EA05137C
:105450004360C4614968C1630262F0BD000001405D
:105460000004014030B5026A22F480520262046AEC
:105470004268C3690D6823F4E64343EA05238D6857
:1054800024F4005444EA0534084DA84202D0084DE3
:10549000A84204D14D6922F4804242EA851242605A
:1054A000C36149680164046230BD0000000001402E
:1054B0000004014010B5036A046A24F00104046288
:1054C000846924F0F00444EA021423F00A020A4337
:1054D0008461026210BD10B5036A23F010030362F9
:1054E0008369046A23F4704343EA023224F0A00380
:1054F00043EA01118261016210BD000010B50E4C3B
:10550000607AA0720D4890F888110D4800680F303D
:1055100061B10CA1FAF79FFF01206072A17AC0B2BD
:10552000884208D0BDE8104002F0D8BE07A1FAF7C3
:1055300092FF0020F1E710BD0E020020485B002022
:10554000C802002053657269616C000053696E6780
:105550006C65000010B5806B0021C185C184FEF729
:10556000CBFB10BD01680C3151E8002F22F4907282
:1055700041E80023002BF5D10168143151E8002FD8
:1055800022F0010241E80023002BF5D1016B012933
:1055900009D101680C3151E8002F22F0100241E8D6
:1055A0000023002BF5D1202180F83E10002101635B
:1055B000704708B590F83E10222901D0022008BD9E
:1055C00082684FF480539A4201D1016921B1816A06
:1055D0009A421BD04AB10AE00268816A5268C2F35B
:1055E00008020A80816A891C08E0026972B10268B7
:1055F000526802F07F020A70816A491C8162C18D83
:10560000491E0904090CC18503D019E002685268DB
:10561000F1E70168CA6822F02002CA600168CA681E
:1056200022F48072CA6001684A6922F001024A616C
:10563000202180F83E10016B012903D0FEF7B8FD50
:10564000002008BD0021016301680C3151E8002FE2
:1056500022F0100241E80023002BF5D101680A680E
:10566000D20602D50A6849680091818DFEF743FB96
:10567000E6E7000070B5044600680169E26821F4BD
:105680004051114301612169A068E26908436169E1
:10569000114308432168CA6849F20C639A430243E4
:1056A000CA6020684169A26921F4407111434161D7
:1056B00031492068884202D03049884202D1FDF742
:1056C00037FC01E0FDF724FCE26900231921642581
:1056D0003226B2F5004F626828D0A0FB0101930F7B
:1056E0009200FAF741FE0146B0FBF5F06FF01802A8
:1056F000504301EB800006EB0010B0FBF5F000F02A
:10570000F002B1FBF5F002EB0012B1FBF5F06FF027
:105710001803584301EB800006EB0010B0FBF5F0D6
:1057200000F00F0021681044886070BDA0FB0101EB
:1057300092185B41FAF718FE0146B0FBF5F0020142
:10574000B1FBF5F06FF01803584301EB800006EB56
:10575000C000B0FBF5F000F0F80002EB4002B1FB36
:10576000F5F0584301EB800006EBC000B0FBF5F00C
:1057700000F00700D6E700000010014000140140CF
:105780002DE9F041984617460E460446069D27E04F
:10579000681C25D02DB1FDF731FAA0EB0800A84216
:1057A0001ED920680C3050E8001F21F4D07140E869
:1057B0000012002AF5D12068143050E8001F21F0B3
:1057C000010140E80012002AF5D1202084F83D00B4
:1057D00084F83E00002084F83C000320BDE8F081FE
:1057E0002068006836EA000004D00020B842CFD01C
:1057F0000020F3E70120F9E70148FEF77FBA000037
:105800006C0B002038B5284800680168890603D56C
:1058100001684068009038BD24490968C906FAD576
:1058200001684068224A0090106801684FF0240324
:105830000C032049046824F00104046016D41068A5
:105840004468C4F12404A4B20C8043601068016869
:1058500041F4002101601068016841F0010101601C
:10586000122CD8D1144901F1160015E014686068B3
:10587000C0F1240080B20880636010498B6A23F471
:1058800000238B6211680A6842F001020A60122844
:10589000C1D1094901F13A0005F02EFBBDE83840BD
:1058A000002004F03FBB0000B00B00200048004087
:1058B000380C002002020020E05C00200060024062
:1058C00038B51F480068C00638D51E4801680A6808
:1058D00049680091816B09680A684FF400731403EA
:1058E000194A0C6824F001040C60816B0C68646830
:1058F000C4F50074A2F8804409684B60816B0968A4
:105900000A680AD442F400220A60806B00680168C9
:1059100041F0010101600C4809E022F400220A6014
:10592000806B0068016841F0010101600748FFF7E2
:105930008BFABDE838400A2004F0F4BA38BD000004
:1059400000140140F40B0020505600205058002055
:10595000FEE730B50C4605000CD0022C0AD9FF2218
:10596000611EFCF7E1F9291911F8011C814201D1EE
:10597000012030BD002030BD10B504F081FC034C87
:10598000206004F095FC606010BD0000040200205F
:1059900003480622014680EC060A024806F092B847
:1059A000405D00206C0B002003B40198410000987A
:1059B00050EAC12018BF04204A0D18BF40F0010072
:1059C00040F2FF72B2EB515F08BF40F002000128C5
:1059D00008BF052002B070474100080218BF04202C
:1059E0000A0E18BF40F001004FF07F4232EA010179
:1059F00008BF40F00200012808BF052070470907D2
:105A0000090E002804DB00F1E02080F80014704744
:105A100000F00F0000F1E02080F8141D7047000036
:105A200010B54FF00E402DED028BB0EE408A18EE0F
:105A3000104A00EB4400B0F1506F4AD84FF0FC40E0
:105A4000B0EB440F22D2B0EEC80AF7EE000A30EEF7
:105A5000C00AF6EE000A60EE208A18EE900A05F001
:105A6000DCFA01EE100A14F0004F1DBFDFED2D0A25
:105A70009FED2D0AB1EE411ADFED2C0A08BF9FED14
:105A80002C0AF8EE001A21EE218A05E0DFED290A42
:105A900068EE088AB0EE600A9FED271ADFED271A3C
:105AA00030EE080A48EE811A9FED251A08EEA11A79
:105AB000DFED241A48EE811A9FED231A08EEA11A91
:105AC00068EE281ABDEC028B01EE810A30EE200A46
:105AD00010BD4FF0E440B0EB440F0CD918EE100AA3
